{
  "contractName": "Escrow",
  "abi": [
    {
      "inputs": [
        {
          "name": "_userAddress",
          "type": "address"
        },
        {
          "name": "_productAddress",
          "type": "address"
        }
      ],
      "payable": false,
      "stateMutability": "nonpayable",
      "type": "constructor"
    },
    {
      "anonymous": false,
      "inputs": [
        {
          "indexed": true,
          "name": "invoice",
          "type": "bytes32"
        },
        {
          "indexed": false,
          "name": "index",
          "type": "uint256"
        },
        {
          "indexed": false,
          "name": "sku",
          "type": "bytes32"
        },
        {
          "indexed": false,
          "name": "qty",
          "type": "int256"
        },
        {
          "indexed": false,
          "name": "deadline",
          "type": "bytes32"
        }
      ],
      "name": "NewTrx",
      "type": "event"
    },
    {
      "anonymous": false,
      "inputs": [
        {
          "indexed": true,
          "name": "invoice",
          "type": "bytes32"
        },
        {
          "indexed": false,
          "name": "index",
          "type": "uint256"
        },
        {
          "indexed": false,
          "name": "buyerAddress",
          "type": "address"
        },
        {
          "indexed": false,
          "name": "paymentDateTime",
          "type": "bytes32"
        },
        {
          "indexed": false,
          "name": "estimate",
          "type": "bytes32"
        },
        {
          "indexed": false,
          "name": "shippingFee",
          "type": "uint256"
        },
        {
          "indexed": false,
          "name": "pay",
          "type": "uint256"
        }
      ],
      "name": "UpdateTrx",
      "type": "event"
    },
    {
      "anonymous": false,
      "inputs": [
        {
          "indexed": true,
          "name": "invoice",
          "type": "bytes32"
        },
        {
          "indexed": false,
          "name": "invoiceToBuyerIndex",
          "type": "uint256"
        },
        {
          "indexed": false,
          "name": "buyerAddress",
          "type": "address"
        },
        {
          "indexed": false,
          "name": "waybill",
          "type": "bytes32"
        },
        {
          "indexed": false,
          "name": "pay",
          "type": "uint256"
        }
      ],
      "name": "ConfirmSent",
      "type": "event"
    },
    {
      "anonymous": false,
      "inputs": [
        {
          "indexed": true,
          "name": "invoice",
          "type": "bytes32"
        },
        {
          "indexed": false,
          "name": "totalItemPrice",
          "type": "uint256"
        },
        {
          "indexed": false,
          "name": "invoiceToBuyerIndex",
          "type": "uint256"
        },
        {
          "indexed": false,
          "name": "buyerAddress",
          "type": "address"
        },
        {
          "indexed": false,
          "name": "pay",
          "type": "uint256"
        }
      ],
      "name": "ConfirmReceived",
      "type": "event"
    },
    {
      "anonymous": false,
      "inputs": [
        {
          "indexed": true,
          "name": "invoice",
          "type": "bytes32"
        },
        {
          "indexed": false,
          "name": "invoiceToBuyerIndex",
          "type": "uint256"
        },
        {
          "indexed": false,
          "name": "buyerAddress",
          "type": "address"
        },
        {
          "indexed": false,
          "name": "pay",
          "type": "uint256"
        }
      ],
      "name": "AbortTrx",
      "type": "event"
    },
    {
      "anonymous": false,
      "inputs": [
        {
          "indexed": true,
          "name": "invoice",
          "type": "bytes32"
        }
      ],
      "name": "FailedTrx",
      "type": "event"
    },
    {
      "anonymous": false,
      "inputs": [
        {
          "indexed": true,
          "name": "invoice",
          "type": "bytes32"
        },
        {
          "indexed": false,
          "name": "invoiceToBuyerIndex",
          "type": "uint256"
        },
        {
          "indexed": false,
          "name": "buyerAddress",
          "type": "address"
        },
        {
          "indexed": false,
          "name": "pay",
          "type": "uint256"
        }
      ],
      "name": "ComplainTrx",
      "type": "event"
    },
    {
      "constant": false,
      "inputs": [
        {
          "name": "_invoice",
          "type": "bytes32"
        },
        {
          "name": "_qty",
          "type": "int256"
        },
        {
          "name": "_idr",
          "type": "uint256"
        },
        {
          "name": "_deadline",
          "type": "bytes32"
        },
        {
          "name": "_sku",
          "type": "bytes32"
        },
        {
          "name": "_seller",
          "type": "address"
        }
      ],
      "name": "createInvoice",
      "outputs": [
        {
          "name": "success",
          "type": "bool"
        }
      ],
      "payable": true,
      "stateMutability": "payable",
      "type": "function"
    },
    {
      "constant": false,
      "inputs": [
        {
          "name": "_invoice",
          "type": "bytes32"
        },
        {
          "name": "_buyer",
          "type": "address"
        },
        {
          "name": "_paymentDateTime",
          "type": "bytes32"
        },
        {
          "name": "_itemPrice",
          "type": "uint256"
        },
        {
          "name": "_estimate",
          "type": "bytes32"
        },
        {
          "name": "_shippingFee",
          "type": "uint256"
        }
      ],
      "name": "addInvoice",
      "outputs": [
        {
          "name": "success",
          "type": "bool"
        }
      ],
      "payable": true,
      "stateMutability": "payable",
      "type": "function"
    },
    {
      "constant": false,
      "inputs": [
        {
          "name": "_invoice",
          "type": "bytes32"
        },
        {
          "name": "_index",
          "type": "uint256"
        }
      ],
      "name": "aborted",
      "outputs": [
        {
          "name": "success",
          "type": "bool"
        }
      ],
      "payable": false,
      "stateMutability": "nonpayable",
      "type": "function"
    },
    {
      "constant": false,
      "inputs": [
        {
          "name": "_invoice",
          "type": "bytes32"
        }
      ],
      "name": "failed",
      "outputs": [
        {
          "name": "success",
          "type": "bool"
        }
      ],
      "payable": false,
      "stateMutability": "nonpayable",
      "type": "function"
    },
    {
      "constant": false,
      "inputs": [
        {
          "name": "_invoice",
          "type": "bytes32"
        },
        {
          "name": "_index",
          "type": "uint256"
        },
        {
          "name": "_waybill",
          "type": "bytes32"
        }
      ],
      "name": "confirmSent",
      "outputs": [
        {
          "name": "success",
          "type": "bool"
        }
      ],
      "payable": false,
      "stateMutability": "nonpayable",
      "type": "function"
    },
    {
      "constant": false,
      "inputs": [
        {
          "name": "_invoice",
          "type": "bytes32"
        },
        {
          "name": "_index",
          "type": "uint256"
        }
      ],
      "name": "confirmReceived",
      "outputs": [
        {
          "name": "success",
          "type": "bool"
        }
      ],
      "payable": false,
      "stateMutability": "nonpayable",
      "type": "function"
    },
    {
      "constant": false,
      "inputs": [
        {
          "name": "_invoice",
          "type": "bytes32"
        },
        {
          "name": "_index",
          "type": "uint256"
        }
      ],
      "name": "complain",
      "outputs": [
        {
          "name": "success",
          "type": "bool"
        }
      ],
      "payable": false,
      "stateMutability": "nonpayable",
      "type": "function"
    },
    {
      "constant": true,
      "inputs": [],
      "name": "getContractBalance",
      "outputs": [
        {
          "name": "count",
          "type": "uint256"
        }
      ],
      "payable": false,
      "stateMutability": "view",
      "type": "function"
    },
    {
      "constant": true,
      "inputs": [],
      "name": "getInvoiceCount",
      "outputs": [
        {
          "name": "count",
          "type": "uint256"
        }
      ],
      "payable": false,
      "stateMutability": "view",
      "type": "function"
    },
    {
      "constant": true,
      "inputs": [
        {
          "name": "_sellerAddress",
          "type": "address"
        }
      ],
      "name": "getInvoiceCountBySeller",
      "outputs": [
        {
          "name": "count",
          "type": "uint256"
        }
      ],
      "payable": false,
      "stateMutability": "view",
      "type": "function"
    },
    {
      "constant": true,
      "inputs": [
        {
          "name": "_buyerAddress",
          "type": "address"
        }
      ],
      "name": "getInvoiceCountByBuyer",
      "outputs": [
        {
          "name": "count",
          "type": "uint256"
        }
      ],
      "payable": false,
      "stateMutability": "view",
      "type": "function"
    },
    {
      "constant": true,
      "inputs": [
        {
          "name": "_sku",
          "type": "bytes32"
        }
      ],
      "name": "getInvoiceCountBySku",
      "outputs": [
        {
          "name": "count",
          "type": "uint256"
        }
      ],
      "payable": false,
      "stateMutability": "view",
      "type": "function"
    },
    {
      "constant": true,
      "inputs": [
        {
          "name": "_invoice",
          "type": "bytes32"
        }
      ],
      "name": "getInvoiceToBuyerCount",
      "outputs": [
        {
          "name": "count",
          "type": "uint256"
        }
      ],
      "payable": false,
      "stateMutability": "view",
      "type": "function"
    },
    {
      "constant": true,
      "inputs": [
        {
          "name": "_index",
          "type": "uint256"
        }
      ],
      "name": "getInvoiceByInvoiceIndex",
      "outputs": [
        {
          "name": "invoiceCode",
          "type": "bytes32"
        }
      ],
      "payable": false,
      "stateMutability": "view",
      "type": "function"
    },
    {
      "constant": true,
      "inputs": [
        {
          "name": "_sku",
          "type": "bytes32"
        },
        {
          "name": "_index",
          "type": "uint256"
        }
      ],
      "name": "getInvoiceBySkuToInvoiceIndex",
      "outputs": [
        {
          "name": "invoiceCode",
          "type": "bytes32"
        }
      ],
      "payable": false,
      "stateMutability": "view",
      "type": "function"
    },
    {
      "constant": true,
      "inputs": [
        {
          "name": "_sellerAddress",
          "type": "address"
        },
        {
          "name": "_index",
          "type": "uint256"
        }
      ],
      "name": "getInvoiceBySellerToInvoiceIndex",
      "outputs": [
        {
          "name": "invoiceCode",
          "type": "bytes32"
        }
      ],
      "payable": false,
      "stateMutability": "view",
      "type": "function"
    },
    {
      "constant": true,
      "inputs": [
        {
          "name": "_buyerAddress",
          "type": "address"
        },
        {
          "name": "_index",
          "type": "uint256"
        }
      ],
      "name": "getInvoiceByBuyerToInvoiceIndex",
      "outputs": [
        {
          "name": "invoiceCode",
          "type": "bytes32"
        }
      ],
      "payable": false,
      "stateMutability": "view",
      "type": "function"
    },
    {
      "constant": true,
      "inputs": [
        {
          "name": "_index",
          "type": "uint256"
        }
      ],
      "name": "getQtyByInvoiceIndex",
      "outputs": [
        {
          "name": "qty",
          "type": "int256"
        }
      ],
      "payable": false,
      "stateMutability": "view",
      "type": "function"
    },
    {
      "constant": true,
      "inputs": [
        {
          "name": "_sku",
          "type": "bytes32"
        },
        {
          "name": "_index",
          "type": "uint256"
        }
      ],
      "name": "getQtyBySkuToInvoiceIndex",
      "outputs": [
        {
          "name": "qty",
          "type": "int256"
        }
      ],
      "payable": false,
      "stateMutability": "view",
      "type": "function"
    },
    {
      "constant": true,
      "inputs": [
        {
          "name": "_sellerAddress",
          "type": "address"
        },
        {
          "name": "_index",
          "type": "uint256"
        }
      ],
      "name": "getQtyBySellerToInvoiceIndex",
      "outputs": [
        {
          "name": "qty",
          "type": "int256"
        }
      ],
      "payable": false,
      "stateMutability": "view",
      "type": "function"
    },
    {
      "constant": true,
      "inputs": [
        {
          "name": "_buyerAddress",
          "type": "address"
        },
        {
          "name": "_index",
          "type": "uint256"
        }
      ],
      "name": "getQtyByBuyerToInvoiceIndex",
      "outputs": [
        {
          "name": "qty",
          "type": "int256"
        }
      ],
      "payable": false,
      "stateMutability": "view",
      "type": "function"
    },
    {
      "constant": true,
      "inputs": [
        {
          "name": "_index",
          "type": "uint256"
        }
      ],
      "name": "getTotalItemPriceByInvoiceIndex",
      "outputs": [
        {
          "name": "totalItemPrice",
          "type": "uint256"
        }
      ],
      "payable": false,
      "stateMutability": "view",
      "type": "function"
    },
    {
      "constant": true,
      "inputs": [
        {
          "name": "_sku",
          "type": "bytes32"
        },
        {
          "name": "_index",
          "type": "uint256"
        }
      ],
      "name": "getTotaltemPriceIBySkuToInvoiceIndex",
      "outputs": [
        {
          "name": "totalItemPrice",
          "type": "uint256"
        }
      ],
      "payable": false,
      "stateMutability": "view",
      "type": "function"
    },
    {
      "constant": true,
      "inputs": [
        {
          "name": "_sellerAddress",
          "type": "address"
        },
        {
          "name": "_index",
          "type": "uint256"
        }
      ],
      "name": "getTotalItemPriceBySellerToInvoiceIndex",
      "outputs": [
        {
          "name": "totalItemPrice",
          "type": "uint256"
        }
      ],
      "payable": false,
      "stateMutability": "view",
      "type": "function"
    },
    {
      "constant": true,
      "inputs": [
        {
          "name": "_buyerAddress",
          "type": "address"
        },
        {
          "name": "_index",
          "type": "uint256"
        }
      ],
      "name": "getTotalItemPriceByBuyerToInvoiceIndex",
      "outputs": [
        {
          "name": "totalItemPrice",
          "type": "uint256"
        }
      ],
      "payable": false,
      "stateMutability": "view",
      "type": "function"
    },
    {
      "constant": true,
      "inputs": [
        {
          "name": "_index",
          "type": "uint256"
        }
      ],
      "name": "getDeadlineByInvoiceIndex",
      "outputs": [
        {
          "name": "deadline",
          "type": "bytes32"
        }
      ],
      "payable": false,
      "stateMutability": "view",
      "type": "function"
    },
    {
      "constant": true,
      "inputs": [
        {
          "name": "_sku",
          "type": "bytes32"
        },
        {
          "name": "_index",
          "type": "uint256"
        }
      ],
      "name": "getDeadlineBySkuToInvoiceIndex",
      "outputs": [
        {
          "name": "deadline",
          "type": "bytes32"
        }
      ],
      "payable": false,
      "stateMutability": "view",
      "type": "function"
    },
    {
      "constant": true,
      "inputs": [
        {
          "name": "_sellerAddress",
          "type": "address"
        },
        {
          "name": "_index",
          "type": "uint256"
        }
      ],
      "name": "getDeadlineBySellerToInvoiceIndex",
      "outputs": [
        {
          "name": "deadline",
          "type": "bytes32"
        }
      ],
      "payable": false,
      "stateMutability": "view",
      "type": "function"
    },
    {
      "constant": true,
      "inputs": [
        {
          "name": "_buyerAddress",
          "type": "address"
        },
        {
          "name": "_index",
          "type": "uint256"
        }
      ],
      "name": "getDeadlineByBuyerToInvoiceIndex",
      "outputs": [
        {
          "name": "deadline",
          "type": "bytes32"
        }
      ],
      "payable": false,
      "stateMutability": "view",
      "type": "function"
    },
    {
      "constant": true,
      "inputs": [
        {
          "name": "_index",
          "type": "uint256"
        }
      ],
      "name": "getStateByInvoiceIndex",
      "outputs": [
        {
          "name": "state",
          "type": "uint256"
        }
      ],
      "payable": false,
      "stateMutability": "view",
      "type": "function"
    },
    {
      "constant": true,
      "inputs": [
        {
          "name": "_sku",
          "type": "bytes32"
        },
        {
          "name": "_index",
          "type": "uint256"
        }
      ],
      "name": "getStateBySkuToInvoiceIndex",
      "outputs": [
        {
          "name": "state",
          "type": "uint256"
        }
      ],
      "payable": false,
      "stateMutability": "view",
      "type": "function"
    },
    {
      "constant": true,
      "inputs": [
        {
          "name": "_sellerAddress",
          "type": "address"
        },
        {
          "name": "_index",
          "type": "uint256"
        }
      ],
      "name": "getStateBySellerToInvoiceIndex",
      "outputs": [
        {
          "name": "state",
          "type": "uint256"
        }
      ],
      "payable": false,
      "stateMutability": "view",
      "type": "function"
    },
    {
      "constant": true,
      "inputs": [
        {
          "name": "_buyerAddress",
          "type": "address"
        },
        {
          "name": "_index",
          "type": "uint256"
        }
      ],
      "name": "getStateByBuyerToInvoiceIndex",
      "outputs": [
        {
          "name": "state",
          "type": "uint256"
        }
      ],
      "payable": false,
      "stateMutability": "view",
      "type": "function"
    },
    {
      "constant": true,
      "inputs": [
        {
          "name": "_index",
          "type": "uint256"
        }
      ],
      "name": "getFixBuyerByInvoiceIndex",
      "outputs": [
        {
          "name": "fixBuyer",
          "type": "int256"
        }
      ],
      "payable": false,
      "stateMutability": "view",
      "type": "function"
    },
    {
      "constant": true,
      "inputs": [
        {
          "name": "_sku",
          "type": "bytes32"
        },
        {
          "name": "_index",
          "type": "uint256"
        }
      ],
      "name": "getFixBuyerBySkuToInvoiceIndex",
      "outputs": [
        {
          "name": "fixBuyer",
          "type": "int256"
        }
      ],
      "payable": false,
      "stateMutability": "view",
      "type": "function"
    },
    {
      "constant": true,
      "inputs": [
        {
          "name": "_sellerAddress",
          "type": "address"
        },
        {
          "name": "_index",
          "type": "uint256"
        }
      ],
      "name": "getFixBuyerBySellerToInvoiceIndex",
      "outputs": [
        {
          "name": "fixBuyer",
          "type": "int256"
        }
      ],
      "payable": false,
      "stateMutability": "view",
      "type": "function"
    },
    {
      "constant": true,
      "inputs": [
        {
          "name": "_buyerAddress",
          "type": "address"
        },
        {
          "name": "_index",
          "type": "uint256"
        }
      ],
      "name": "getFixBuyerByBuyerToInvoiceIndex",
      "outputs": [
        {
          "name": "fixBuyer",
          "type": "int256"
        }
      ],
      "payable": false,
      "stateMutability": "view",
      "type": "function"
    },
    {
      "constant": true,
      "inputs": [
        {
          "name": "_index",
          "type": "uint256"
        }
      ],
      "name": "getIdrByInvoiceIndex",
      "outputs": [
        {
          "name": "rupiah",
          "type": "uint256"
        }
      ],
      "payable": false,
      "stateMutability": "view",
      "type": "function"
    },
    {
      "constant": true,
      "inputs": [
        {
          "name": "_sku",
          "type": "bytes32"
        },
        {
          "name": "_index",
          "type": "uint256"
        }
      ],
      "name": "getIdrBySkuToInvoiceIndex",
      "outputs": [
        {
          "name": "rupiah",
          "type": "uint256"
        }
      ],
      "payable": false,
      "stateMutability": "view",
      "type": "function"
    },
    {
      "constant": true,
      "inputs": [
        {
          "name": "_sellerAddress",
          "type": "address"
        },
        {
          "name": "_index",
          "type": "uint256"
        }
      ],
      "name": "getIdrBySellerToInvoiceIndex",
      "outputs": [
        {
          "name": "rupiah",
          "type": "uint256"
        }
      ],
      "payable": false,
      "stateMutability": "view",
      "type": "function"
    },
    {
      "constant": true,
      "inputs": [
        {
          "name": "_buyerAddress",
          "type": "address"
        },
        {
          "name": "_index",
          "type": "uint256"
        }
      ],
      "name": "getIdrByBuyerToInvoiceIndex",
      "outputs": [
        {
          "name": "rupiah",
          "type": "uint256"
        }
      ],
      "payable": false,
      "stateMutability": "view",
      "type": "function"
    },
    {
      "constant": true,
      "inputs": [
        {
          "name": "_index",
          "type": "uint256"
        }
      ],
      "name": "getSkuByInvoiceIndex",
      "outputs": [
        {
          "name": "sku",
          "type": "bytes32"
        }
      ],
      "payable": false,
      "stateMutability": "view",
      "type": "function"
    },
    {
      "constant": true,
      "inputs": [
        {
          "name": "_sellerAddress",
          "type": "address"
        },
        {
          "name": "_index",
          "type": "uint256"
        }
      ],
      "name": "getSkuBySellerToInvoiceIndex",
      "outputs": [
        {
          "name": "sku",
          "type": "bytes32"
        }
      ],
      "payable": false,
      "stateMutability": "view",
      "type": "function"
    },
    {
      "constant": true,
      "inputs": [
        {
          "name": "_sku",
          "type": "bytes32"
        },
        {
          "name": "_index",
          "type": "uint256"
        }
      ],
      "name": "getSkuBySkuToInvoiceIndex",
      "outputs": [
        {
          "name": "sku",
          "type": "bytes32"
        }
      ],
      "payable": false,
      "stateMutability": "view",
      "type": "function"
    },
    {
      "constant": true,
      "inputs": [
        {
          "name": "_buyerAddress",
          "type": "address"
        },
        {
          "name": "_index",
          "type": "uint256"
        }
      ],
      "name": "getSkuByBuyerToInvoiceIndex",
      "outputs": [
        {
          "name": "sku",
          "type": "bytes32"
        }
      ],
      "payable": false,
      "stateMutability": "view",
      "type": "function"
    },
    {
      "constant": true,
      "inputs": [
        {
          "name": "_index",
          "type": "uint256"
        }
      ],
      "name": "getSellerByInvoiceIndex",
      "outputs": [
        {
          "name": "sellerAddress",
          "type": "address"
        }
      ],
      "payable": false,
      "stateMutability": "view",
      "type": "function"
    },
    {
      "constant": true,
      "inputs": [
        {
          "name": "_sku",
          "type": "bytes32"
        },
        {
          "name": "_index",
          "type": "uint256"
        }
      ],
      "name": "getSellerBySkuToInvoiceIndex",
      "outputs": [
        {
          "name": "sellerAddress",
          "type": "address"
        }
      ],
      "payable": false,
      "stateMutability": "view",
      "type": "function"
    },
    {
      "constant": true,
      "inputs": [
        {
          "name": "_sellerAddress",
          "type": "address"
        },
        {
          "name": "_index",
          "type": "uint256"
        }
      ],
      "name": "getSellerBySellerToInvoiceIndex",
      "outputs": [
        {
          "name": "sellerAddress",
          "type": "address"
        }
      ],
      "payable": false,
      "stateMutability": "view",
      "type": "function"
    },
    {
      "constant": true,
      "inputs": [
        {
          "name": "_buyerAddress",
          "type": "address"
        },
        {
          "name": "_index",
          "type": "uint256"
        }
      ],
      "name": "getSellerByBuyerToInvoiceIndex",
      "outputs": [
        {
          "name": "sellerAddress",
          "type": "address"
        }
      ],
      "payable": false,
      "stateMutability": "view",
      "type": "function"
    },
    {
      "constant": true,
      "inputs": [
        {
          "name": "_index",
          "type": "uint256"
        },
        {
          "name": "_invoiceToBuyerIndex",
          "type": "uint256"
        }
      ],
      "name": "getPaymentDateTimeByInvoiceIndex",
      "outputs": [
        {
          "name": "paymentDateTime",
          "type": "bytes32"
        }
      ],
      "payable": false,
      "stateMutability": "view",
      "type": "function"
    },
    {
      "constant": true,
      "inputs": [
        {
          "name": "_sku",
          "type": "bytes32"
        },
        {
          "name": "_index",
          "type": "uint256"
        },
        {
          "name": "_invoiceToBuyerIndex",
          "type": "uint256"
        }
      ],
      "name": "getPaymentDateTimeBySkuToInvoiceIndex",
      "outputs": [
        {
          "name": "paymentDateTime",
          "type": "bytes32"
        }
      ],
      "payable": false,
      "stateMutability": "view",
      "type": "function"
    },
    {
      "constant": true,
      "inputs": [
        {
          "name": "_sellerAddress",
          "type": "address"
        },
        {
          "name": "_index",
          "type": "uint256"
        },
        {
          "name": "_invoiceToBuyerIndex",
          "type": "uint256"
        }
      ],
      "name": "getPaymentDateTimeBySellerToInvoiceIndex",
      "outputs": [
        {
          "name": "paymentDateTime",
          "type": "bytes32"
        }
      ],
      "payable": false,
      "stateMutability": "view",
      "type": "function"
    },
    {
      "constant": true,
      "inputs": [
        {
          "name": "_buyerAddress",
          "type": "address"
        },
        {
          "name": "_index",
          "type": "uint256"
        },
        {
          "name": "_invoiceToBuyerIndex",
          "type": "uint256"
        }
      ],
      "name": "getPaymentDateTimeByBuyerToInvoiceIndex",
      "outputs": [
        {
          "name": "paymentDateTime",
          "type": "bytes32"
        }
      ],
      "payable": false,
      "stateMutability": "view",
      "type": "function"
    },
    {
      "constant": true,
      "inputs": [
        {
          "name": "_index",
          "type": "uint256"
        },
        {
          "name": "_invoiceToBuyerIndex",
          "type": "uint256"
        }
      ],
      "name": "getItemPriceByInvoiceIndex",
      "outputs": [
        {
          "name": "itemPrice",
          "type": "uint256"
        }
      ],
      "payable": false,
      "stateMutability": "view",
      "type": "function"
    },
    {
      "constant": true,
      "inputs": [
        {
          "name": "_sku",
          "type": "bytes32"
        },
        {
          "name": "_index",
          "type": "uint256"
        },
        {
          "name": "_invoiceToBuyerIndex",
          "type": "uint256"
        }
      ],
      "name": "getItemPriceBySkuToInvoiceIndex",
      "outputs": [
        {
          "name": "itemPrice",
          "type": "uint256"
        }
      ],
      "payable": false,
      "stateMutability": "view",
      "type": "function"
    },
    {
      "constant": true,
      "inputs": [
        {
          "name": "_sellerAddress",
          "type": "address"
        },
        {
          "name": "_index",
          "type": "uint256"
        },
        {
          "name": "_invoiceToBuyerIndex",
          "type": "uint256"
        }
      ],
      "name": "getItemPriceBySellerToInvoiceIndex",
      "outputs": [
        {
          "name": "itemPrice",
          "type": "uint256"
        }
      ],
      "payable": false,
      "stateMutability": "view",
      "type": "function"
    },
    {
      "constant": true,
      "inputs": [
        {
          "name": "_buyerAddress",
          "type": "address"
        },
        {
          "name": "_index",
          "type": "uint256"
        },
        {
          "name": "_invoiceToBuyerIndex",
          "type": "uint256"
        }
      ],
      "name": "getItemPriceByBuyerToInvoiceIndex",
      "outputs": [
        {
          "name": "itemPrice",
          "type": "uint256"
        }
      ],
      "payable": false,
      "stateMutability": "view",
      "type": "function"
    },
    {
      "constant": true,
      "inputs": [
        {
          "name": "_index",
          "type": "uint256"
        },
        {
          "name": "_invoiceToBuyerIndex",
          "type": "uint256"
        }
      ],
      "name": "getEstimateByInvoiceIndex",
      "outputs": [
        {
          "name": "estimate",
          "type": "bytes32"
        }
      ],
      "payable": false,
      "stateMutability": "view",
      "type": "function"
    },
    {
      "constant": true,
      "inputs": [
        {
          "name": "_sku",
          "type": "bytes32"
        },
        {
          "name": "_index",
          "type": "uint256"
        },
        {
          "name": "_invoiceToBuyerIndex",
          "type": "uint256"
        }
      ],
      "name": "getEstimateBySkuToInvoiceIndex",
      "outputs": [
        {
          "name": "estimate",
          "type": "bytes32"
        }
      ],
      "payable": false,
      "stateMutability": "view",
      "type": "function"
    },
    {
      "constant": true,
      "inputs": [
        {
          "name": "_sellerAddress",
          "type": "address"
        },
        {
          "name": "_index",
          "type": "uint256"
        },
        {
          "name": "_invoiceToBuyerIndex",
          "type": "uint256"
        }
      ],
      "name": "getEstimateBySellerToInvoiceIndex",
      "outputs": [
        {
          "name": "estimate",
          "type": "bytes32"
        }
      ],
      "payable": false,
      "stateMutability": "view",
      "type": "function"
    },
    {
      "constant": true,
      "inputs": [
        {
          "name": "_buyerAddress",
          "type": "address"
        },
        {
          "name": "_index",
          "type": "uint256"
        },
        {
          "name": "_invoiceToBuyerIndex",
          "type": "uint256"
        }
      ],
      "name": "getEstimateByBuyerToInvoiceIndex",
      "outputs": [
        {
          "name": "estimate",
          "type": "bytes32"
        }
      ],
      "payable": false,
      "stateMutability": "view",
      "type": "function"
    },
    {
      "constant": true,
      "inputs": [
        {
          "name": "_index",
          "type": "uint256"
        },
        {
          "name": "_invoiceToBuyerIndex",
          "type": "uint256"
        }
      ],
      "name": "getShippingFeeByInvoiceIndex",
      "outputs": [
        {
          "name": "shippingFee",
          "type": "uint256"
        }
      ],
      "payable": false,
      "stateMutability": "view",
      "type": "function"
    },
    {
      "constant": true,
      "inputs": [
        {
          "name": "_sku",
          "type": "bytes32"
        },
        {
          "name": "_index",
          "type": "uint256"
        },
        {
          "name": "_invoiceToBuyerIndex",
          "type": "uint256"
        }
      ],
      "name": "getShippingFeeBySkuToInvoiceIndex",
      "outputs": [
        {
          "name": "shippingFee",
          "type": "uint256"
        }
      ],
      "payable": false,
      "stateMutability": "view",
      "type": "function"
    },
    {
      "constant": true,
      "inputs": [
        {
          "name": "_sellerAddress",
          "type": "address"
        },
        {
          "name": "_index",
          "type": "uint256"
        },
        {
          "name": "_invoiceToBuyerIndex",
          "type": "uint256"
        }
      ],
      "name": "getShippingFeeBySellerToInvoiceIndex",
      "outputs": [
        {
          "name": "shippingFee",
          "type": "uint256"
        }
      ],
      "payable": false,
      "stateMutability": "view",
      "type": "function"
    },
    {
      "constant": true,
      "inputs": [
        {
          "name": "_buyerAddress",
          "type": "address"
        },
        {
          "name": "_index",
          "type": "uint256"
        },
        {
          "name": "_invoiceToBuyerIndex",
          "type": "uint256"
        }
      ],
      "name": "getShippingFeeByBuyerToInvoiceIndex",
      "outputs": [
        {
          "name": "shippingFee",
          "type": "uint256"
        }
      ],
      "payable": false,
      "stateMutability": "view",
      "type": "function"
    },
    {
      "constant": true,
      "inputs": [
        {
          "name": "_index",
          "type": "uint256"
        },
        {
          "name": "_invoiceToBuyerIndex",
          "type": "uint256"
        }
      ],
      "name": "getNoteByInvoiceIndex",
      "outputs": [
        {
          "name": "note",
          "type": "uint256"
        }
      ],
      "payable": false,
      "stateMutability": "view",
      "type": "function"
    },
    {
      "constant": true,
      "inputs": [
        {
          "name": "_sku",
          "type": "bytes32"
        },
        {
          "name": "_index",
          "type": "uint256"
        },
        {
          "name": "_invoiceToBuyerIndex",
          "type": "uint256"
        }
      ],
      "name": "getNoteBySkuToInvoiceIndex",
      "outputs": [
        {
          "name": "note",
          "type": "uint256"
        }
      ],
      "payable": false,
      "stateMutability": "view",
      "type": "function"
    },
    {
      "constant": true,
      "inputs": [
        {
          "name": "_sellerAddress",
          "type": "address"
        },
        {
          "name": "_index",
          "type": "uint256"
        },
        {
          "name": "_invoiceToBuyerIndex",
          "type": "uint256"
        }
      ],
      "name": "getNoteBySellerToInvoiceIndex",
      "outputs": [
        {
          "name": "note",
          "type": "uint256"
        }
      ],
      "payable": false,
      "stateMutability": "view",
      "type": "function"
    },
    {
      "constant": true,
      "inputs": [
        {
          "name": "_buyerAddress",
          "type": "address"
        },
        {
          "name": "_index",
          "type": "uint256"
        },
        {
          "name": "_invoiceToBuyerIndex",
          "type": "uint256"
        }
      ],
      "name": "getNoteByBuyerToInvoiceIndex",
      "outputs": [
        {
          "name": "note",
          "type": "uint256"
        }
      ],
      "payable": false,
      "stateMutability": "view",
      "type": "function"
    },
    {
      "constant": true,
      "inputs": [
        {
          "name": "_index",
          "type": "uint256"
        },
        {
          "name": "_invoiceToBuyerIndex",
          "type": "uint256"
        }
      ],
      "name": "getWaybillByInvoiceIndex",
      "outputs": [
        {
          "name": "waybill",
          "type": "bytes32"
        }
      ],
      "payable": false,
      "stateMutability": "view",
      "type": "function"
    },
    {
      "constant": true,
      "inputs": [
        {
          "name": "_sku",
          "type": "bytes32"
        },
        {
          "name": "_index",
          "type": "uint256"
        },
        {
          "name": "_invoiceToBuyerIndex",
          "type": "uint256"
        }
      ],
      "name": "getWaybillBySkuToInvoiceIndex",
      "outputs": [
        {
          "name": "waybill",
          "type": "bytes32"
        }
      ],
      "payable": false,
      "stateMutability": "view",
      "type": "function"
    },
    {
      "constant": true,
      "inputs": [
        {
          "name": "_sellerAddress",
          "type": "address"
        },
        {
          "name": "_index",
          "type": "uint256"
        },
        {
          "name": "_invoiceToBuyerIndex",
          "type": "uint256"
        }
      ],
      "name": "getWaybillBySellerToInvoiceIndex",
      "outputs": [
        {
          "name": "waybill",
          "type": "bytes32"
        }
      ],
      "payable": false,
      "stateMutability": "view",
      "type": "function"
    },
    {
      "constant": true,
      "inputs": [
        {
          "name": "_buyerAddress",
          "type": "address"
        },
        {
          "name": "_index",
          "type": "uint256"
        },
        {
          "name": "_invoiceToBuyerIndex",
          "type": "uint256"
        }
      ],
      "name": "getWaybillByBuyerToInvoiceIndex",
      "outputs": [
        {
          "name": "waybill",
          "type": "bytes32"
        }
      ],
      "payable": false,
      "stateMutability": "view",
      "type": "function"
    },
    {
      "constant": true,
      "inputs": [
        {
          "name": "_index",
          "type": "uint256"
        },
        {
          "name": "_invoiceToBuyerIndex",
          "type": "uint256"
        }
      ],
      "name": "getBuyerByInvoiceIndex",
      "outputs": [
        {
          "name": "buyerAddress",
          "type": "address"
        }
      ],
      "payable": false,
      "stateMutability": "view",
      "type": "function"
    },
    {
      "constant": true,
      "inputs": [
        {
          "name": "_sku",
          "type": "bytes32"
        },
        {
          "name": "_index",
          "type": "uint256"
        },
        {
          "name": "_invoiceToBuyerIndex",
          "type": "uint256"
        }
      ],
      "name": "getBuyerBySkuToInvoiceIndex",
      "outputs": [
        {
          "name": "buyerAddress",
          "type": "address"
        }
      ],
      "payable": false,
      "stateMutability": "view",
      "type": "function"
    },
    {
      "constant": true,
      "inputs": [
        {
          "name": "_sellerAddress",
          "type": "address"
        },
        {
          "name": "_index",
          "type": "uint256"
        },
        {
          "name": "_invoiceToBuyerIndex",
          "type": "uint256"
        }
      ],
      "name": "getBuyerBySellerToInvoiceIndex",
      "outputs": [
        {
          "name": "buyerAddress",
          "type": "address"
        }
      ],
      "payable": false,
      "stateMutability": "view",
      "type": "function"
    },
    {
      "constant": true,
      "inputs": [
        {
          "name": "_buyerAddress",
          "type": "address"
        },
        {
          "name": "_index",
          "type": "uint256"
        },
        {
          "name": "_invoiceToBuyerIndex",
          "type": "uint256"
        }
      ],
      "name": "getBuyerByInvoiceToBuyerIndex",
      "outputs": [
        {
          "name": "buyerAddress",
          "type": "address"
        }
      ],
      "payable": false,
      "stateMutability": "view",
      "type": "function"
    }
  ],
  "bytecode": "0x6060604052341561000f57600080fd5b60405160408062005e7783398101604052808051906020019091908051906020019091905050816000806101000a81548173ffffffffffffffffffffffffffffffffffffffff021916908373ffffffffffffffffffffffffffffffffffffffff16021790555080600160006101000a81548173ffffffffffffffffffffffffffffffffffffffff021916908373ffffffffffffffffffffffffffffffffffffffff16021790555033600460006101000a81548173ffffffffffffffffffffffffffffffffffffffff021916908373ffffffffffffffffffffffffffffffffffffffff1602179055505050615d6e80620001096000396000f300606060405260043610610385576000357c0100000000000000000000000000000000000000000000000000000000900463ffffffff168063027664751461038a57806307a4e533146103e05780630df87f5d1461043657806313237cf21461049457806313541fad146104cb5780631473a21f1461054d57806314c4269d146105995780631d740cb1146105d957806320ed315e1461062f5780632583046e1461069657806328c34c29146106de5780632a6fa4d6146107155780632c87c442146107615780632c93c3db146107b75780632e5b357714610836578063331618011461089457806333da99a0146108fb5780633b48c151146109515780634e6e69a0146109a75780634ec963e3146109fd5780634fac529014610a5c5780634fac78b014610aba5780635006e76f14610af95780635033d4d814610b3957806354608ebf14610b815780635a2d340c14610be85780635b02c58b14610c345780635bbaa01914610c935780635c5da40e14610cdb578063612ef91a14610d1f57806368d4ec3814610d9e5780636f9fb98a14610dfd57806371ea568a14610e2657806373d4d88014610e84578063797e01cd14610ee35780637d6a59ed14610f415780637dbb97eb14610f6a57806381ac124a14610fbf57806382a39eed1461102b5780638354c68c146110925780638449b2281461111457806388cc46331461115c5780638af36f15146111a05780638b4b08f71461122b5780638d7498a4146112665780638de18101146112b35780638f6d0cc3146112ea5780639097310b14611329578063912d13901461138857806393dbc6d1146113ef5780639632d0b21461144e5780639dc839fc146114d9578063a1cb69d71461153c578063a6ceb26614611592578063affbb820146115d6578063b109fe0e1461162b578063b72d49e7146116a4578063b75d8ade146116f1578063b7ac99d614611730578063bc2910dd14611767578063bebfe0e1146117d7578063c26c4e541461182d578063ca9ed8f114611883578063cc9176c1146118e1578063ccb09b0614611921578063d0aacbb414611976578063d2d7833f146119c3578063d5e69eab14611a07578063d946849714611a42578063e180a66c14611a79578063e1cdcf6314611ac6578063e89700c414611b13578063ea67a9d214611b57578063eaf1197714611bbe578063ee2c87fb14611c06578063f183d06b14611c5b578063f6a7c0af14611c9a575b600080fd5b341561039557600080fd5b6103ca600480803573ffffffffffffffffffffffffffffffffffffffff16906020019091908035906020019091905050611ce2565b6040518082815260200191505060405180910390f35b34156103eb57600080fd5b610420600480803573ffffffffffffffffffffffffffffffffffffffff16906020019091908035906020019091905050611d62565b6040518082815260200191505060405180910390f35b341561044157600080fd5b610476600480803573ffffffffffffffffffffffffffffffffffffffff16906020019091908035906020019091905050611de2565b60405180826000191660001916815260200191505060405180910390f35b341561049f57600080fd5b6104b56004808035906020019091905050611f08565b6040518082815260200191505060405180910390f35b34156104d657600080fd5b61050b600480803573ffffffffffffffffffffffffffffffffffffffff16906020019091908035906020019091905050611f4a565b604051808273ffffffffffffffffffffffffffffffffffffffff1673ffffffffffffffffffffffffffffffffffffffff16815260200191505060405180910390f35b341561055857600080fd5b61057b600480803560001916906020019091908035906020019091905050612070565b60405180826000191660001916815260200191505060405180910390f35b34156105a457600080fd5b6105c360048080359060200190919080359060200190919050506120ae565b6040518082815260200191505060405180910390f35b34156105e457600080fd5b610619600480803573ffffffffffffffffffffffffffffffffffffffff169060200190919080359060200190919050506120fa565b6040518082815260200191505060405180910390f35b341561063a57600080fd5b610678600480803573ffffffffffffffffffffffffffffffffffffffff1690602001909190803590602001909190803590602001909190505061217a565b60405180826000191660001916815260200191505060405180910390f35b34156106a157600080fd5b6106c46004808035600019169060200190919080359060200190919050506121c8565b604051808215151515815260200191505060405180910390f35b34156106e957600080fd5b6106ff60048080359060200190919050506126d0565b6040518082815260200191505060405180910390f35b341561072057600080fd5b610743600480803560001916906020019091908035906020019091905050612712565b60405180826000191660001916815260200191505060405180910390f35b341561076c57600080fd5b6107a1600480803573ffffffffffffffffffffffffffffffffffffffff1690602001909190803590602001909190505061276e565b6040518082815260200191505060405180910390f35b61081c60048080356000191690602001909190803573ffffffffffffffffffffffffffffffffffffffff1690602001909190803560001916906020019091908035906020019091908035600019169060200190919080359060200190919050506127ee565b604051808215151515815260200191505060405180910390f35b341561084157600080fd5b610876600480803573ffffffffffffffffffffffffffffffffffffffff16906020019091908035906020019091905050612c22565b60405180826000191660001916815260200191505060405180910390f35b341561089f57600080fd5b6108dd600480803573ffffffffffffffffffffffffffffffffffffffff16906020019091908035906020019091908035906020019091905050612ca2565b60405180826000191660001916815260200191505060405180910390f35b341561090657600080fd5b61093b600480803573ffffffffffffffffffffffffffffffffffffffff16906020019091908035906020019091905050612cf0565b6040518082815260200191505060405180910390f35b341561095c57600080fd5b610991600480803573ffffffffffffffffffffffffffffffffffffffff16906020019091908035906020019091905050612d70565b6040518082815260200191505060405180910390f35b34156109b257600080fd5b6109e7600480803573ffffffffffffffffffffffffffffffffffffffff16906020019091908035906020019091905050612df0565b6040518082815260200191505060405180910390f35b3415610a0857600080fd5b610a46600480803573ffffffffffffffffffffffffffffffffffffffff16906020019091908035906020019091908035906020019091905050612e70565b6040518082815260200191505060405180910390f35b3415610a6757600080fd5b610a9c600480803573ffffffffffffffffffffffffffffffffffffffff16906020019091908035906020019091905050612ebe565b60405180826000191660001916815260200191505060405180910390f35b3415610ac557600080fd5b610adb6004808035906020019091905050612fe4565b60405180826000191660001916815260200191505060405180910390f35b3415610b0457600080fd5b610b236004808035906020019091908035906020019091905050613026565b6040518082815260200191505060405180910390f35b3415610b4457600080fd5b610b67600480803560001916906020019091908035906020019091905050613072565b604051808215151515815260200191505060405180910390f35b3415610b8c57600080fd5b610bca600480803573ffffffffffffffffffffffffffffffffffffffff16906020019091908035906020019091908035906020019091905050613517565b60405180826000191660001916815260200191505060405180910390f35b3415610bf357600080fd5b610c16600480803560001916906020019091908035906020019091905050613565565b60405180826000191660001916815260200191505060405180910390f35b3415610c3f57600080fd5b610c7d600480803573ffffffffffffffffffffffffffffffffffffffff16906020019091908035906020019091908035906020019091905050613667565b6040518082815260200191505060405180910390f35b3415610c9e57600080fd5b610cc16004808035600019169060200190919080359060200190919050506136b5565b604051808215151515815260200191505060405180910390f35b3415610ce657600080fd5b610d09600480803560001916906020019091908035906020019091905050613d1c565b6040518082815260200191505060405180910390f35b610d84600480803560001916906020019091908035906020019091908035906020019091908035600019169060200190919080356000191690602001909190803573ffffffffffffffffffffffffffffffffffffffff16906020019091905050613d78565b604051808215151515815260200191505060405180910390f35b3415610da957600080fd5b610de7600480803573ffffffffffffffffffffffffffffffffffffffff16906020019091908035906020019091908035906020019091905050614479565b6040518082815260200191505060405180910390f35b3415610e0857600080fd5b610e106144c7565b6040518082815260200191505060405180910390f35b3415610e3157600080fd5b610e66600480803573ffffffffffffffffffffffffffffffffffffffff169060200190919080359060200190919050506144d1565b60405180826000191660001916815260200191505060405180910390f35b3415610e8f57600080fd5b610ecd600480803573ffffffffffffffffffffffffffffffffffffffff16906020019091908035906020019091908035906020019091905050614551565b6040518082815260200191505060405180910390f35b3415610eee57600080fd5b610f23600480803573ffffffffffffffffffffffffffffffffffffffff1690602001909190803590602001909190505061459f565b60405180826000191660001916815260200191505060405180910390f35b3415610f4c57600080fd5b610f54614601565b6040518082815260200191505060405180910390f35b3415610f7557600080fd5b610fa160048080356000191690602001909190803590602001909190803590602001909190505061460e565b60405180826000191660001916815260200191505060405180910390f35b3415610fca57600080fd5b610fe9600480803590602001909190803590602001909190505061465c565b604051808273ffffffffffffffffffffffffffffffffffffffff1673ffffffffffffffffffffffffffffffffffffffff16815260200191505060405180910390f35b341561103657600080fd5b611074600480803573ffffffffffffffffffffffffffffffffffffffff1690602001909190803590602001909190803590602001909190505061474d565b60405180826000191660001916815260200191505060405180910390f35b341561109d57600080fd5b6110d2600480803573ffffffffffffffffffffffffffffffffffffffff1690602001909190803590602001909190505061479b565b604051808273ffffffffffffffffffffffffffffffffffffffff1673ffffffffffffffffffffffffffffffffffffffff16815260200191505060405180910390f35b341561111f57600080fd5b61113e60048080359060200190919080359060200190919050506148c1565b60405180826000191660001916815260200191505060405180910390f35b341561116757600080fd5b61118a60048080356000191690602001909190803590602001909190505061490d565b6040518082815260200191505060405180910390f35b34156111ab57600080fd5b6111e9600480803573ffffffffffffffffffffffffffffffffffffffff16906020019091908035906020019091908035906020019091905050614969565b604051808273ffffffffffffffffffffffffffffffffffffffff1673ffffffffffffffffffffffffffffffffffffffff16815260200191505060405180910390f35b341561123657600080fd5b611250600480803560001916906020019091905050614a5c565b6040518082815260200191505060405180910390f35b341561127157600080fd5b61129d600480803560001916906020019091908035906020019091908035906020019091905050614a84565b6040518082815260200191505060405180910390f35b34156112be57600080fd5b6112d46004808035906020019091905050614ad2565b6040518082815260200191505060405180910390f35b34156112f557600080fd5b61130b6004808035906020019091905050614b14565b60405180826000191660001916815260200191505060405180910390f35b341561133457600080fd5b611372600480803573ffffffffffffffffffffffffffffffffffffffff16906020019091908035906020019091908035906020019091905050614b38565b6040518082815260200191505060405180910390f35b341561139357600080fd5b6113d1600480803573ffffffffffffffffffffffffffffffffffffffff16906020019091908035906020019091908035906020019091905050614b86565b60405180826000191660001916815260200191505060405180910390f35b34156113fa57600080fd5b611438600480803573ffffffffffffffffffffffffffffffffffffffff16906020019091908035906020019091908035906020019091905050614bd4565b6040518082815260200191505060405180910390f35b341561145957600080fd5b611497600480803573ffffffffffffffffffffffffffffffffffffffff16906020019091908035906020019091908035906020019091905050614c22565b604051808273ffffffffffffffffffffffffffffffffffffffff1673ffffffffffffffffffffffffffffffffffffffff16815260200191505060405180910390f35b34156114e457600080fd5b6114fa6004808035906020019091905050614d15565b604051808273ffffffffffffffffffffffffffffffffffffffff1673ffffffffffffffffffffffffffffffffffffffff16815260200191505060405180910390f35b341561154757600080fd5b61157c600480803573ffffffffffffffffffffffffffffffffffffffff16906020019091908035906020019091905050614dfd565b6040518082815260200191505060405180910390f35b341561159d57600080fd5b6115c0600480803560001916906020019091908035906020019091905050614e7d565b6040518082815260200191505060405180910390f35b34156115e157600080fd5b61160d600480803560001916906020019091908035906020019091908035906020019091905050614ed9565b60405180826000191660001916815260200191505060405180910390f35b341561163657600080fd5b611662600480803560001916906020019091908035906020019091908035906020019091905050614f27565b604051808273ffffffffffffffffffffffffffffffffffffffff1673ffffffffffffffffffffffffffffffffffffffff16815260200191505060405180910390f35b34156116af57600080fd5b6116db600480803573ffffffffffffffffffffffffffffffffffffffff1690602001909190505061501a565b6040518082815260200191505060405180910390f35b34156116fc57600080fd5b6117126004808035906020019091905050615066565b60405180826000191660001916815260200191505060405180910390f35b341561173b57600080fd5b611751600480803590602001909190505061514e565b6040518082815260200191505060405180910390f35b341561177257600080fd5b611795600480803560001916906020019091908035906020019091905050615190565b604051808273ffffffffffffffffffffffffffffffffffffffff1673ffffffffffffffffffffffffffffffffffffffff16815260200191505060405180910390f35b34156117e257600080fd5b611817600480803573ffffffffffffffffffffffffffffffffffffffff16906020019091908035906020019091905050615292565b6040518082815260200191505060405180910390f35b341561183857600080fd5b61186d600480803573ffffffffffffffffffffffffffffffffffffffff16906020019091908035906020019091905050615312565b6040518082815260200191505060405180910390f35b341561188e57600080fd5b6118c3600480803573ffffffffffffffffffffffffffffffffffffffff16906020019091908035906020019091905050615392565b60405180826000191660001916815260200191505060405180910390f35b34156118ec57600080fd5b61190b60048080359060200190919080359060200190919050506153f4565b6040518082815260200191505060405180910390f35b341561192c57600080fd5b61195c60048080356000191690602001909190803590602001909190803560001916906020019091905050615440565b604051808215151515815260200191505060405180910390f35b341561198157600080fd5b6119ad600480803560001916906020019091908035906020019091908035906020019091905050615764565b6040518082815260200191505060405180910390f35b34156119ce57600080fd5b6119f16004808035600019169060200190919080359060200190919050506157b2565b6040518082815260200191505060405180910390f35b3415611a1257600080fd5b611a2c60048080356000191690602001909190505061580e565b6040518082815260200191505060405180910390f35b3415611a4d57600080fd5b611a636004808035906020019091905050615836565b6040518082815260200191505060405180910390f35b3415611a8457600080fd5b611ab0600480803573ffffffffffffffffffffffffffffffffffffffff16906020019091905050615878565b6040518082815260200191505060405180910390f35b3415611ad157600080fd5b611afd6004808035600019169060200190919080359060200190919080359060200190919050506158c4565b6040518082815260200191505060405180910390f35b3415611b1e57600080fd5b611b41600480803560001916906020019091908035906020019091905050615912565b6040518082815260200191505060405180910390f35b3415611b6257600080fd5b611ba0600480803573ffffffffffffffffffffffffffffffffffffffff1690602001909190803590602001909190803590602001909190505061596e565b60405180826000191660001916815260200191505060405180910390f35b3415611bc957600080fd5b611be860048080359060200190919080359060200190919050506159bc565b60405180826000191660001916815260200191505060405180910390f35b3415611c1157600080fd5b611c3d600480803560001916906020019091908035906020019091908035906020019091905050615a08565b60405180826000191660001916815260200191505060405180910390f35b3415611c6657600080fd5b611c80600480803560001916906020019091905050615a56565b604051808215151515815260200191505060405180910390f35b3415611ca557600080fd5b611cc46004808035906020019091908035906020019091905050615c0c565b60405180826000191660001916815260200191505060405180910390f35b600060056000600860008673ffffffffffffffffffffffffffffffffffffffff1673ffffffffffffffffffffffffffffffffffffffff16815260200190815260200160002084815481101515611d3457fe5b9060005260206000209001546000191660001916815260200190815260200160002060040154905092915050565b600060056000600960008673ffffffffffffffffffffffffffffffffffffffff1673ffffffffffffffffffffffffffffffffffffffff16815260200190815260200160002084815481101515611db457fe5b9060005260206000209001546000191660001916815260200190815260200160002060030154905092915050565b6000600160009054906101000a900473ffffffffffffffffffffffffffffffffffffffff1673ffffffffffffffffffffffffffffffffffffffff1663ef21d9c260056000600960008873ffffffffffffffffffffffffffffffffffffffff1673ffffffffffffffffffffffffffffffffffffffff16815260200190815260200160002086815481101515611e7257fe5b90600052602060002090015460001916600019168152602001908152602001600020600701546040518263ffffffff167c010000000000000000000000000000000000000000000000000000000002815260040180828152602001915050602060405180830381600087803b1515611ee957600080fd5b5af11515611ef657600080fd5b50505060405180519050905092915050565b600060056000600384815481101515611f1d57fe5b90600052602060002090015460001916600019168152602001908152602001600020600101549050919050565b6000600160009054906101000a900473ffffffffffffffffffffffffffffffffffffffff1673ffffffffffffffffffffffffffffffffffffffff16636cbd1e9160056000600960008873ffffffffffffffffffffffffffffffffffffffff1673ffffffffffffffffffffffffffffffffffffffff16815260200190815260200160002086815481101515611fda57fe5b90600052602060002090015460001916600019168152602001908152602001600020600801546040518263ffffffff167c010000000000000000000000000000000000000000000000000000000002815260040180828152602001915050602060405180830381600087803b151561205157600080fd5b5af1151561205e57600080fd5b50505060405180519050905092915050565b60006007600084600019166000191681526020019081526020016000208281548110151561209a57fe5b906000526020600020900154905092915050565b6000600660006120bd85614b14565b60001916600019168152602001908152602001600020828154811015156120e057fe5b906000526020600020906009020160010154905092915050565b600060056000600960008673ffffffffffffffffffffffffffffffffffffffff1673ffffffffffffffffffffffffffffffffffffffff1681526020019081526020016000208481548110151561214c57fe5b9060005260206000209001546000191660001916815260200190815260200160002060010154905092915050565b60006006600061218a8686615392565b60001916600019168152602001908152602001600020828154811015156121ad57fe5b90600052602060002090600902016002015490509392505050565b6000806000806000600160056000896000191660001916815260200190815260200160002060030154148015612237575060016006600089600019166000191681526020019081526020016000208781548110151561222357fe5b906000526020600020906009020160050154145b151561224257600080fd5b6006600088600019166000191681526020019081526020016000208681548110151561226a57fe5b9060005260206000209060090201600101549350600660008860001916600019168152602001908152602001600020868154811015156122a657fe5b90600052602060002090600902016003015492506000809054906101000a900473ffffffffffffffffffffffffffffffffffffffff1673ffffffffffffffffffffffffffffffffffffffff1663ce10cf88600660008a600019166000191681526020019081526020016000208881548110151561231f57fe5b9060005260206000209060090201600601546040518263ffffffff167c010000000000000000000000000000000000000000000000000000000002815260040180828152602001915050602060405180830381600087803b151561238257600080fd5b5af1151561238f57600080fd5b505050604051805190509150600160009054906101000a900473ffffffffffffffffffffffffffffffffffffffff1673ffffffffffffffffffffffffffffffffffffffff1663eb134677600560008a60001916600019168152602001908152602001600020600801546040518263ffffffff167c010000000000000000000000000000000000000000000000000000000002815260040180828152602001915050602060405180830381600087803b151561244957600080fd5b5af1151561245657600080fd5b5050506040518051905090508173ffffffffffffffffffffffffffffffffffffffff166108fc859081150290604051600060405180830381858888f1935050505015156124a257600080fd5b8073ffffffffffffffffffffffffffffffffffffffff166108fc849081150290604051600060405180830381858888f1935050505015156124e257600080fd5b82840160026000828254039250508190555060036006600089600019166000191681526020019081526020016000208781548110151561251e57fe5b90600052602060002090600902016005018190555086600019167f8c650fea209f040c07ece8db8d58ac64c77ec94befb255889c4bc04e090fe06a876000809054906101000a900473ffffffffffffffffffffffffffffffffffffffff1673ffffffffffffffffffffffffffffffffffffffff1663ce10cf88600660008d600019166000191681526020019081526020016000208b8154811015156125bf57fe5b9060005260206000209060090201600601546040518263ffffffff167c010000000000000000000000000000000000000000000000000000000002815260040180828152602001915050602060405180830381600087803b151561262257600080fd5b5af1151561262f57600080fd5b50505060405180519050600660008c600019166000191681526020019081526020016000208a81548110151561266157fe5b906000526020600020906009020160010154604051808481526020018373ffffffffffffffffffffffffffffffffffffffff1673ffffffffffffffffffffffffffffffffffffffff168152602001828152602001935050505060405180910390a2600194505050505092915050565b6000600560006003848154811015156126e557fe5b90600052602060002090015460001916600019168152602001908152602001600020600501549050919050565b6000600560006007600086600019166000191681526020019081526020016000208481548110151561274057fe5b9060005260206000209001546000191660001916815260200190815260200160002060020154905092915050565b600060056000600860008673ffffffffffffffffffffffffffffffffffffffff1673ffffffffffffffffffffffffffffffffffffffff168152602001908152602001600020848154811015156127c057fe5b9060005260206000209001546000191660001916815260200190815260200160002060010154905092915050565b600060016005600089600019166000191681526020019081526020016000206003015414151561281d57600080fd5b600560008860001916600019168152602001908152602001600020600001546005600089600019166000191681526020019081526020016000206004015412151561286757600080fd5b8184013373ffffffffffffffffffffffffffffffffffffffff1631118015612890575081840134145b151561289b57600080fd5b3460026000828254019250508190555060016005600089600019166000191681526020019081526020016000206004016000828254019250508190555060066000886000191660001916815260200190815260200160002080548060010182816129059190615c58565b916000526020600020906009020160006101206040519081016040528089600019168152602001888152602001876000191681526020018681526020017f2d00000000000000000000000000000000000000000000000000000000000000600019168152602001600081526020016000809054906101000a900473ffffffffffffffffffffffffffffffffffffffff1673ffffffffffffffffffffffffffffffffffffffff16631973ef918c6040518263ffffffff167c0100000000000000000000000000000000000000000000000000000000028152600401808273ffffffffffffffffffffffffffffffffffffffff1673ffffffffffffffffffffffffffffffffffffffff168152602001915050602060405180830381600087803b1515612a2e57600080fd5b5af11515612a3b57600080fd5b505050604051805190508152602001600660008d600019166000191681526020019081526020016000208054905081526020016001600960008d73ffffffffffffffffffffffffffffffffffffffff1673ffffffffffffffffffffffffffffffffffffffff1681526020019081526020016000208054806001018281612ac19190615c8a565b916000526020600020900160008f909190915090600019169055038152509091909150600082015181600001906000191690556020820151816001015560408201518160020190600019169055606082015181600301556080820151816004019060001916905560a0820151816005015560c0820151816006015560e08201518160070155610100820151816008015550505086600019167fd52f45b906b7aa1f086638d6ae7524daa66682e359bf0527a8341d45b6d8629d600560008a600019166000191681526020019081526020016000206006015488888787888b01604051808781526020018673ffffffffffffffffffffffffffffffffffffffff1673ffffffffffffffffffffffffffffffffffffffff16815260200185600019166000191681526020018460001916600019168152602001838152602001828152602001965050505050505060405180910390a2600190509695505050505050565b600060056000600960008673ffffffffffffffffffffffffffffffffffffffff1673ffffffffffffffffffffffffffffffffffffffff16815260200190815260200160002084815481101515612c7457fe5b9060005260206000209001546000191660001916815260200190815260200160002060020154905092915050565b600060066000612cb28686615392565b6000191660001916815260200190815260200160002082815481101515612cd557fe5b90600052602060002090600902016004015490509392505050565b600060056000600860008673ffffffffffffffffffffffffffffffffffffffff1673ffffffffffffffffffffffffffffffffffffffff16815260200190815260200160002084815481101515612d4257fe5b9060005260206000209001546000191660001916815260200190815260200160002060050154905092915050565b600060056000600860008673ffffffffffffffffffffffffffffffffffffffff1673ffffffffffffffffffffffffffffffffffffffff16815260200190815260200160002084815481101515612dc257fe5b9060005260206000209001546000191660001916815260200190815260200160002060030154905092915050565b600060056000600960008673ffffffffffffffffffffffffffffffffffffffff1673ffffffffffffffffffffffffffffffffffffffff16815260200190815260200160002084815481101515612e4257fe5b9060005260206000209001546000191660001916815260200190815260200160002060040154905092915050565b600060066000612e808686615392565b6000191660001916815260200190815260200160002082815481101515612ea357fe5b90600052602060002090600902016003015490509392505050565b6000600160009054906101000a900473ffffffffffffffffffffffffffffffffffffffff1673ffffffffffffffffffffffffffffffffffffffff1663ef21d9c260056000600860008873ffffffffffffffffffffffffffffffffffffffff1673ffffffffffffffffffffffffffffffffffffffff16815260200190815260200160002086815481101515612f4e57fe5b90600052602060002090015460001916600019168152602001908152602001600020600701546040518263ffffffff167c010000000000000000000000000000000000000000000000000000000002815260040180828152602001915050602060405180830381600087803b1515612fc557600080fd5b5af11515612fd257600080fd5b50505060405180519050905092915050565b600060056000600384815481101515612ff957fe5b90600052602060002090015460001916600019168152602001908152602001600020600201549050919050565b60006006600061303585614b14565b600019166000191681526020019081526020016000208281548110151561305857fe5b906000526020600020906009020160030154905092915050565b60008060006001600560008760001916600019168152602001908152602001600020600301541480156130de57506001600660008760001916600019168152602001908152602001600020858154811015156130ca57fe5b906000526020600020906009020160050154145b15156130e957600080fd5b6006600086600019166000191681526020019081526020016000208481548110151561311157fe5b9060005260206000209060090201600301546006600087600019166000191681526020019081526020016000208581548110151561314b57fe5b906000526020600020906009020160010154019150600160009054906101000a900473ffffffffffffffffffffffffffffffffffffffff1673ffffffffffffffffffffffffffffffffffffffff1663eb134677600560008860001916600019168152602001908152602001600020600801546040518263ffffffff167c010000000000000000000000000000000000000000000000000000000002815260040180828152602001915050602060405180830381600087803b151561320e57600080fd5b5af1151561321b57600080fd5b5050506040518051905090508073ffffffffffffffffffffffffffffffffffffffff166108fc839081150290604051600060405180830381858888f19350505050151561326757600080fd5b816002600082825403925050819055506006600086600019166000191681526020019081526020016000208481548110151561329f57fe5b9060005260206000209060090201600101546005600087600019166000191681526020019081526020016000206001016000828254019250508190555060026006600087600019166000191681526020019081526020016000208581548110151561330657fe5b90600052602060002090600902016005018190555084600019167f3e607985ba41cae5ed26b2eb69c0fcba51d7eb00eb1ab2642d9a0f31f08e080e60056000886000191660001916815260200190815260200160002060010154866000809054906101000a900473ffffffffffffffffffffffffffffffffffffffff1673ffffffffffffffffffffffffffffffffffffffff1663ce10cf88600660008c600019166000191681526020019081526020016000208a8154811015156133c657fe5b9060005260206000209060090201600601546040518263ffffffff167c010000000000000000000000000000000000000000000000000000000002815260040180828152602001915050602060405180830381600087803b151561342957600080fd5b5af1151561343657600080fd5b50505060405180519050600660008b600019166000191681526020019081526020016000208981548110151561346857fe5b906000526020600020906009020160030154600660008c600019166000191681526020019081526020016000208a8154811015156134a257fe5b90600052602060002090600902016001015401604051808581526020018481526020018373ffffffffffffffffffffffffffffffffffffffff1673ffffffffffffffffffffffffffffffffffffffff16815260200182815260200194505050505060405180910390a260019250505092915050565b600060066000613527868661459f565b600019166000191681526020019081526020016000208281548110151561354a57fe5b90600052602060002090600902016002015490509392505050565b6000600160009054906101000a900473ffffffffffffffffffffffffffffffffffffffff1673ffffffffffffffffffffffffffffffffffffffff1663ef21d9c260056000600760008860001916600019168152602001908152602001600020868154811015156135d157fe5b90600052602060002090015460001916600019168152602001908152602001600020600701546040518263ffffffff167c010000000000000000000000000000000000000000000000000000000002815260040180828152602001915050602060405180830381600087803b151561364857600080fd5b5af1151561365557600080fd5b50505060405180519050905092915050565b600060066000613677868661459f565b600019166000191681526020019081526020016000208281548110151561369a57fe5b90600052602060002090600902016005015490509392505050565b600080600080600660008760001916600019168152602001908152602001600020858154811015156136e357fe5b90600052602060002090600902016005015414151561370157600080fd5b6006600086600019166000191681526020019081526020016000208481548110151561372957fe5b9060005260206000209060090201600301546006600087600019166000191681526020019081526020016000208581548110151561376357fe5b9060005260206000209060090201600101540191506000809054906101000a900473ffffffffffffffffffffffffffffffffffffffff1673ffffffffffffffffffffffffffffffffffffffff1663ce10cf88600660008860001916600019168152602001908152602001600020868154811015156137dd57fe5b9060005260206000209060090201600601546040518263ffffffff167c010000000000000000000000000000000000000000000000000000000002815260040180828152602001915050602060405180830381600087803b151561384057600080fd5b5af1151561384d57600080fd5b5050506040518051905090508073ffffffffffffffffffffffffffffffffffffffff166108fc839081150290604051600060405180830381858888f19350505050151561389957600080fd5b81600260008282540392505081905550600660008660001916600019168152602001908152602001600020848154811015156138d157fe5b9060005260206000209060090201600101546005600087600019166000191681526020019081526020016000206001016000828254039250508190555060016005600087600019166000191681526020019081526020016000206004016000828254039250508190555060036006600087600019166000191681526020019081526020016000208581548110151561396557fe5b9060005260206000209060090201600501819055506001600560008760001916600019168152602001908152602001600020600301541480156139c65750600060056000876000191660001916815260200190815260200160002060040154145b15613b4657600160009054906101000a900473ffffffffffffffffffffffffffffffffffffffff1673ffffffffffffffffffffffffffffffffffffffff1663b18434bb613a3060056000896000191660001916815260200190815260200160002060060154614d15565b613a57600560008a6000191660001916815260200190815260200160002060060154615066565b600560008a60001916600019168152602001908152602001600020600001546040518463ffffffff167c0100000000000000000000000000000000000000000000000000000000028152600401808473ffffffffffffffffffffffffffffffffffffffff1673ffffffffffffffffffffffffffffffffffffffff16815260200183600019166000191681526020018281526020019350505050602060405180830381600087803b1515613b0957600080fd5b5af11515613b1657600080fd5b50505060405180519050506000600560008760001916600019168152602001908152602001600020600301819055505b84600019167f81f5f844aa02a4b0fbec3b1c8c0d5bc010bad0dc95c69c41f61338ea3d7e18f9856000809054906101000a900473ffffffffffffffffffffffffffffffffffffffff1673ffffffffffffffffffffffffffffffffffffffff1663ce10cf88600660008b6000191660001916815260200190815260200160002089815481101515613bd257fe5b9060005260206000209060090201600601546040518263ffffffff167c010000000000000000000000000000000000000000000000000000000002815260040180828152602001915050602060405180830381600087803b1515613c3557600080fd5b5af11515613c4257600080fd5b50505060405180519050600660008a6000191660001916815260200190815260200160002088815481101515613c7457fe5b906000526020600020906009020160030154600660008b6000191660001916815260200190815260200160002089815481101515613cae57fe5b90600052602060002090600902016001015401604051808481526020018373ffffffffffffffffffffffffffffffffffffffff1673ffffffffffffffffffffffffffffffffffffffff168152602001828152602001935050505060405180910390a260019250505092915050565b60006005600060076000866000191660001916815260200190815260200160002084815481101515613d4a57fe5b9060005260206000209001546000191660001916815260200190815260200160002060030154905092915050565b600085600160009054906101000a900473ffffffffffffffffffffffffffffffffffffffff1673ffffffffffffffffffffffffffffffffffffffff16638b271928600160009054906101000a900473ffffffffffffffffffffffffffffffffffffffff1673ffffffffffffffffffffffffffffffffffffffff1663638a8a84876040518263ffffffff167c0100000000000000000000000000000000000000000000000000000000028152600401808260001916600019168152602001915050602060405180830381600087803b1515613e5157600080fd5b5af11515613e5e57600080fd5b505050604051805190506040518263ffffffff167c010000000000000000000000000000000000000000000000000000000002815260040180828152602001915050602060405180830381600087803b1515613eb957600080fd5b5af11515613ec657600080fd5b5050506040518051905012151515613edd57600080fd5b85600560008960001916600019168152602001908152602001600020600001819055506000600560008960001916600019168152602001908152602001600020600101819055508360056000896000191660001916815260200190815260200160002060020181600019169055506001600560008960001916600019168152602001908152602001600020600301819055506000600560008960001916600019168152602001908152602001600020600401819055508460056000896000191660001916815260200190815260200160002060050181905550600160038054806001018281613fcc9190615c8a565b916000526020600020900160008a9091909150906000191690550360056000896000191660001916815260200190815260200160002060060181905550600160009054906101000a900473ffffffffffffffffffffffffffffffffffffffff1673ffffffffffffffffffffffffffffffffffffffff1663638a8a84846040518263ffffffff167c0100000000000000000000000000000000000000000000000000000000028152600401808260001916600019168152602001915050602060405180830381600087803b15156140a157600080fd5b5af115156140ae57600080fd5b5050506040518051905060056000896000191660001916815260200190815260200160002060070181905550600160076000856000191660001916815260200190815260200160002080548060010182816141099190615c8a565b916000526020600020900160008a9091909150906000191690550360056000896000191660001916815260200190815260200160002060090181905550600160009054906101000a900473ffffffffffffffffffffffffffffffffffffffff1673ffffffffffffffffffffffffffffffffffffffff1663b8e6018683856040518363ffffffff167c0100000000000000000000000000000000000000000000000000000000028152600401808373ffffffffffffffffffffffffffffffffffffffff1673ffffffffffffffffffffffffffffffffffffffff168152602001826000191660001916815260200192505050602060405180830381600087803b151561421257600080fd5b5af1151561421f57600080fd5b50505060405180519050600560008960001916600019168152602001908152602001600020600801819055506001600860008473ffffffffffffffffffffffffffffffffffffffff1673ffffffffffffffffffffffffffffffffffffffff168152602001908152602001600020805480600101828161429e9190615c8a565b916000526020600020900160008a90919091509060001916905503600560008960001916600019168152602001908152602001600020600a0181905550600160009054906101000a900473ffffffffffffffffffffffffffffffffffffffff1673ffffffffffffffffffffffffffffffffffffffff1663b18434bb8385897fffffffffffffffffffffffffffffffffffffffffffffffffffffffffffffffff026040518463ffffffff167c0100000000000000000000000000000000000000000000000000000000028152600401808473ffffffffffffffffffffffffffffffffffffffff1673ffffffffffffffffffffffffffffffffffffffff16815260200183600019166000191681526020018281526020019350505050602060405180830381600087803b15156143d157600080fd5b5af115156143de57600080fd5b505050604051805190505086600019167f73cf23e5d7f4fb9c4dfb59e0f91fdb8ede9b11e926e1607b87ec28108c0a213b600560008a6000191660001916815260200190815260200160002060060154858988604051808581526020018460001916600019168152602001838152602001826000191660001916815260200194505050505060405180910390a2600190509695505050505050565b6000600660006144898686615392565b60001916600019168152602001908152602001600020828154811015156144ac57fe5b90600052602060002090600902016005015490509392505050565b6000600254905090565b600060056000600860008673ffffffffffffffffffffffffffffffffffffffff1673ffffffffffffffffffffffffffffffffffffffff1681526020019081526020016000208481548110151561452357fe5b9060005260206000209001546000191660001916815260200190815260200160002060020154905092915050565b6000600660006145618686615392565b600019166000191681526020019081526020016000208281548110151561458457fe5b90600052602060002090600902016001015490509392505050565b6000600960008473ffffffffffffffffffffffffffffffffffffffff1673ffffffffffffffffffffffffffffffffffffffff168152602001908152602001600020828154811015156145ed57fe5b906000526020600020900154905092915050565b6000600380549050905090565b60006006600061461e8686612070565b600019166000191681526020019081526020016000208281548110151561464157fe5b90600052602060002090600902016002015490509392505050565b60008060009054906101000a900473ffffffffffffffffffffffffffffffffffffffff1673ffffffffffffffffffffffffffffffffffffffff1663ce10cf88600660006146a887614b14565b60001916600019168152602001908152602001600020848154811015156146cb57fe5b9060005260206000209060090201600601546040518263ffffffff167c010000000000000000000000000000000000000000000000000000000002815260040180828152602001915050602060405180830381600087803b151561472e57600080fd5b5af1151561473b57600080fd5b50505060405180519050905092915050565b60006006600061475d868661459f565b600019166000191681526020019081526020016000208281548110151561478057fe5b90600052602060002090600902016000015490509392505050565b6000600160009054906101000a900473ffffffffffffffffffffffffffffffffffffffff1673ffffffffffffffffffffffffffffffffffffffff16636cbd1e9160056000600860008873ffffffffffffffffffffffffffffffffffffffff1673ffffffffffffffffffffffffffffffffffffffff1681526020019081526020016000208681548110151561482b57fe5b90600052602060002090015460001916600019168152602001908152602001600020600801546040518263ffffffff167c010000000000000000000000000000000000000000000000000000000002815260040180828152602001915050602060405180830381600087803b15156148a257600080fd5b5af115156148af57600080fd5b50505060405180519050905092915050565b6000600660006148d085614b14565b60001916600019168152602001908152602001600020828154811015156148f357fe5b906000526020600020906009020160040154905092915050565b6000600560006007600086600019166000191681526020019081526020016000208481548110151561493b57fe5b9060005260206000209001546000191660001916815260200190815260200160002060010154905092915050565b60008060009054906101000a900473ffffffffffffffffffffffffffffffffffffffff1673ffffffffffffffffffffffffffffffffffffffff1663ce10cf88600660006149b68888615392565b60001916600019168152602001908152602001600020848154811015156149d957fe5b9060005260206000209060090201600601546040518263ffffffff167c010000000000000000000000000000000000000000000000000000000002815260040180828152602001915050602060405180830381600087803b1515614a3c57600080fd5b5af11515614a4957600080fd5b5050506040518051905090509392505050565b6000600760008360001916600019168152602001908152602001600020805490509050919050565b600060066000614a948686612070565b6000191660001916815260200190815260200160002082815481101515614ab757fe5b90600052602060002090600902016001015490509392505050565b600060056000600384815481101515614ae757fe5b90600052602060002090015460001916600019168152602001908152602001600020600001549050919050565b6000600382815481101515614b2557fe5b9060005260206000209001549050919050565b600060066000614b48868661459f565b6000191660001916815260200190815260200160002082815481101515614b6b57fe5b90600052602060002090600902016001015490509392505050565b600060066000614b96868661459f565b6000191660001916815260200190815260200160002082815481101515614bb957fe5b90600052602060002090600902016004015490509392505050565b600060066000614be4868661459f565b6000191660001916815260200190815260200160002082815481101515614c0757fe5b90600052602060002090600902016003015490509392505050565b60008060009054906101000a900473ffffffffffffffffffffffffffffffffffffffff1673ffffffffffffffffffffffffffffffffffffffff1663ce10cf8860066000614c6f888861459f565b6000191660001916815260200190815260200160002084815481101515614c9257fe5b9060005260206000209060090201600601546040518263ffffffff167c010000000000000000000000000000000000000000000000000000000002815260040180828152602001915050602060405180830381600087803b1515614cf557600080fd5b5af11515614d0257600080fd5b5050506040518051905090509392505050565b6000600160009054906101000a900473ffffffffffffffffffffffffffffffffffffffff1673ffffffffffffffffffffffffffffffffffffffff16636cbd1e9160056000600386815481101515614d6857fe5b90600052602060002090015460001916600019168152602001908152602001600020600801546040518263ffffffff167c010000000000000000000000000000000000000000000000000000000002815260040180828152602001915050602060405180830381600087803b1515614ddf57600080fd5b5af11515614dec57600080fd5b505050604051805190509050919050565b600060056000600960008673ffffffffffffffffffffffffffffffffffffffff1673ffffffffffffffffffffffffffffffffffffffff16815260200190815260200160002084815481101515614e4f57fe5b9060005260206000209001546000191660001916815260200190815260200160002060000154905092915050565b60006005600060076000866000191660001916815260200190815260200160002084815481101515614eab57fe5b9060005260206000209001546000191660001916815260200190815260200160002060000154905092915050565b600060066000614ee98686612070565b6000191660001916815260200190815260200160002082815481101515614f0c57fe5b90600052602060002090600902016004015490509392505050565b60008060009054906101000a900473ffffffffffffffffffffffffffffffffffffffff1673ffffffffffffffffffffffffffffffffffffffff1663ce10cf8860066000614f748888612070565b6000191660001916815260200190815260200160002084815481101515614f9757fe5b9060005260206000209060090201600601546040518263ffffffff167c010000000000000000000000000000000000000000000000000000000002815260040180828152602001915050602060405180830381600087803b1515614ffa57600080fd5b5af1151561500757600080fd5b5050506040518051905090509392505050565b6000600860008373ffffffffffffffffffffffffffffffffffffffff1673ffffffffffffffffffffffffffffffffffffffff168152602001908152602001600020805490509050919050565b6000600160009054906101000a900473ffffffffffffffffffffffffffffffffffffffff1673ffffffffffffffffffffffffffffffffffffffff1663ef21d9c2600560006003868154811015156150b957fe5b90600052602060002090015460001916600019168152602001908152602001600020600701546040518263ffffffff167c010000000000000000000000000000000000000000000000000000000002815260040180828152602001915050602060405180830381600087803b151561513057600080fd5b5af1151561513d57600080fd5b505050604051805190509050919050565b60006005600060038481548110151561516357fe5b90600052602060002090015460001916600019168152602001908152602001600020600301549050919050565b6000600160009054906101000a900473ffffffffffffffffffffffffffffffffffffffff1673ffffffffffffffffffffffffffffffffffffffff16636cbd1e9160056000600760008860001916600019168152602001908152602001600020868154811015156151fc57fe5b90600052602060002090015460001916600019168152602001908152602001600020600801546040518263ffffffff167c010000000000000000000000000000000000000000000000000000000002815260040180828152602001915050602060405180830381600087803b151561527357600080fd5b5af1151561528057600080fd5b50505060405180519050905092915050565b600060056000600960008673ffffffffffffffffffffffffffffffffffffffff1673ffffffffffffffffffffffffffffffffffffffff168152602001908152602001600020848154811015156152e457fe5b9060005260206000209001546000191660001916815260200190815260200160002060050154905092915050565b600060056000600860008673ffffffffffffffffffffffffffffffffffffffff1673ffffffffffffffffffffffffffffffffffffffff1681526020019081526020016000208481548110151561536457fe5b9060005260206000209001546000191660001916815260200190815260200160002060000154905092915050565b6000600860008473ffffffffffffffffffffffffffffffffffffffff1673ffffffffffffffffffffffffffffffffffffffff168152602001908152602001600020828154811015156153e057fe5b906000526020600020900154905092915050565b60006006600061540385614b14565b600019166000191681526020019081526020016000208281548110151561542657fe5b906000526020600020906009020160050154905092915050565b6000600560008560001916600019168152602001908152602001600020600001546005600086600019166000191681526020019081526020016000206004015414151561548c57600080fd5b6001600560008660001916600019168152602001908152602001600020600301541480156154f357506000600660008660001916600019168152602001908152602001600020848154811015156154df57fe5b906000526020600020906009020160050154145b15156154fe57600080fd5b60016006600086600019166000191681526020019081526020016000208481548110151561552857fe5b906000526020600020906009020160050181905550816006600086600019166000191681526020019081526020016000208481548110151561556657fe5b9060005260206000209060090201600401816000191690555083600019167f09e5a4504a8ace5999076dd30e2fdf1256431f3170c1ccf451a8e8b1ec9649d5846000809054906101000a900473ffffffffffffffffffffffffffffffffffffffff1673ffffffffffffffffffffffffffffffffffffffff1663ce10cf88600660008a600019166000191681526020019081526020016000208881548110151561560b57fe5b9060005260206000209060090201600601546040518263ffffffff167c010000000000000000000000000000000000000000000000000000000002815260040180828152602001915050602060405180830381600087803b151561566e57600080fd5b5af1151561567b57600080fd5b5050506040518051905085600660008a60001916600019168152602001908152602001600020888154811015156156ae57fe5b906000526020600020906009020160030154600660008b60001916600019168152602001908152602001600020898154811015156156e857fe5b90600052602060002090600902016001015401604051808581526020018473ffffffffffffffffffffffffffffffffffffffff1673ffffffffffffffffffffffffffffffffffffffff168152602001836000191660001916815260200182815260200194505050505060405180910390a2600190509392505050565b6000600660006157748686612070565b600019166000191681526020019081526020016000208281548110151561579757fe5b90600052602060002090600902016005015490509392505050565b600060056000600760008660001916600019168152602001908152602001600020848154811015156157e057fe5b9060005260206000209001546000191660001916815260200190815260200160002060050154905092915050565b6000600660008360001916600019168152602001908152602001600020805490509050919050565b60006005600060038481548110151561584b57fe5b90600052602060002090015460001916600019168152602001908152602001600020600401549050919050565b6000600960008373ffffffffffffffffffffffffffffffffffffffff1673ffffffffffffffffffffffffffffffffffffffff168152602001908152602001600020805490509050919050565b6000600660006158d48686612070565b60001916600019168152602001908152602001600020828154811015156158f757fe5b90600052602060002090600902016003015490509392505050565b6000600560006007600086600019166000191681526020019081526020016000208481548110151561594057fe5b9060005260206000209001546000191660001916815260200190815260200160002060040154905092915050565b60006006600061597e8686615392565b60001916600019168152602001908152602001600020828154811015156159a157fe5b90600052602060002090600902016000015490509392505050565b6000600660006159cb85614b14565b60001916600019168152602001908152602001600020828154811015156159ee57fe5b906000526020600020906009020160020154905092915050565b600060066000615a188686612070565b6000191660001916815260200190815260200160002082815481101515615a3b57fe5b90600052602060002090600902016000015490509392505050565b6000600160009054906101000a900473ffffffffffffffffffffffffffffffffffffffff1673ffffffffffffffffffffffffffffffffffffffff1663b18434bb615abd60056000866000191660001916815260200190815260200160002060060154614d15565b615ae460056000876000191660001916815260200190815260200160002060060154615066565b600560008760001916600019168152602001908152602001600020600001546040518463ffffffff167c0100000000000000000000000000000000000000000000000000000000028152600401808473ffffffffffffffffffffffffffffffffffffffff1673ffffffffffffffffffffffffffffffffffffffff16815260200183600019166000191681526020018281526020019350505050602060405180830381600087803b1515615b9657600080fd5b5af11515615ba357600080fd5b505050604051805190505060006005600084600019166000191681526020019081526020016000206003018190555081600019167f10898ddd27412b548db258a12f5a952deaa2c22f018c59aff82aba628b78ba7660405160405180910390a260019050919050565b600060066000615c1b85614b14565b6000191660001916815260200190815260200160002082815481101515615c3e57fe5b906000526020600020906009020160000154905092915050565b815481835581811511615c8557600902816009028360005260206000209182019101615c849190615cb6565b5b505050565b815481835581811511615cb157818360005260206000209182019101615cb09190615d1d565b5b505050565b615d1a91905b80821115615d16576000808201600090556001820160009055600282016000905560038201600090556004820160009055600582016000905560068201600090556007820160009055600882016000905550600901615cbc565b5090565b90565b615d3f91905b80821115615d3b576000816000905550600101615d23565b5090565b905600a165627a7a72305820aa76ee57af77ca22bf8e26f18ae33dee529bc8088d099226b6ba9b216e4177c30029",
  "source": "pragma solidity ^0.4.21;\r\nimport \"./User.sol\";\r\nimport \"./Product.sol\";\r\n\r\ncontract Escrow{\r\n\tUser private user;\r\n\tProduct private product;\r\n\r\n\tstruct EscrowStruct{\r\n\t\tint qty;\r\n\t\tuint totalItemPrice;\r\n\t\tbytes32 deadline;\r\n\t\tuint state;\r\n\t\tint fixBuyer;\r\n\t\tuint idr;\r\n\t\tuint index;\r\n\t\tuint skuIndex;\r\n\t\tuint sellerIndex;\r\n\t\tuint skuToInvoiceIndex;\r\n\t\tuint sellerToInvoiceIndex;\r\n\t}\r\n\tstruct BuyerStruct{\r\n\t\tbytes32 paymentDateTime;\r\n\t\tuint itemPrice;\r\n\t\tbytes32 estimate;\r\n\t\tuint shippingFee;\r\n\t\tbytes32 waybill;\r\n\t\tuint note;\r\n\t\tuint buyerIndex;\r\n\t\tuint invoiceToBuyerIndex;\r\n\t\tuint buyerToInvoiceIndex;\r\n\t}\r\n\tuint contractBalance;\r\n\tbytes32[] invoice;\r\n\taddress private owner;\r\n\tmapping(bytes32 => EscrowStruct) private invoiceToDetail;\r\n\tmapping(bytes32 => BuyerStruct[]) private invoiceToBuyer;\r\n\tmapping(bytes32 => bytes32[]) private skuToInvoice;\r\n\tmapping(address => bytes32[]) private sellerToInvoice;\r\n\tmapping(address => bytes32[]) private buyerToInvoice;\r\n\r\n\tevent NewTrx(bytes32 indexed invoice, uint index, bytes32 sku, int qty, bytes32 deadline);\r\n\tevent UpdateTrx(bytes32 indexed invoice, uint index, address buyerAddress, bytes32 paymentDateTime, bytes32 estimate, uint shippingFee, uint pay);\r\n\tevent ConfirmSent(bytes32 indexed invoice, uint invoiceToBuyerIndex, address buyerAddress, bytes32 waybill, uint pay);\r\n\tevent ConfirmReceived(bytes32 indexed invoice, uint totalItemPrice, uint invoiceToBuyerIndex, address buyerAddress, uint pay);\r\n\tevent AbortTrx(bytes32 indexed invoice, uint invoiceToBuyerIndex, address buyerAddress, uint pay);\r\n\tevent FailedTrx(bytes32 indexed invoice);\r\n\tevent ComplainTrx(bytes32 indexed invoice, uint invoiceToBuyerIndex, address buyerAddress, uint pay);\r\n\r\n\tmodifier onlyOwner(){\r\n\t\trequire (msg.sender == owner);\r\n\t\t_;\t\r\n\t}\r\n\r\n\tfunction Escrow(address _userAddress, address _productAddress) public{\r\n\t\tuser = User(_userAddress);\r\n\t\tproduct = Product(_productAddress);\r\n\t\towner = msg.sender;\r\n\t}\r\n\r\n\tfunction createInvoice(\r\n\t\tbytes32 _invoice,\r\n\t\tint _qty,\r\n\t\tuint _idr,\r\n\t\tbytes32 _deadline,\r\n\t\tbytes32 _sku,\r\n\t\taddress _seller) public payable returns(bool success)\r\n\t{\r\n\t\trequire(product.getStockByIndex(product.getIndexBySku(_sku)) >= _qty);\r\n\r\n\t\tinvoiceToDetail[_invoice].qty = _qty;\r\n\t\tinvoiceToDetail[_invoice].totalItemPrice = 0;\r\n\t\tinvoiceToDetail[_invoice].deadline = _deadline;\r\n\t\tinvoiceToDetail[_invoice].state = 1;\r\n\t\tinvoiceToDetail[_invoice].fixBuyer = 0;\r\n\t\tinvoiceToDetail[_invoice].idr = _idr;\r\n\t\tinvoiceToDetail[_invoice].index = invoice.push(_invoice)-1;\r\n\t\tinvoiceToDetail[_invoice].skuIndex = product.getIndexBySku(_sku);\r\n\t\tinvoiceToDetail[_invoice].skuToInvoiceIndex = skuToInvoice[_sku].push(_invoice)-1;\r\n\t\tinvoiceToDetail[_invoice].sellerIndex = product.getSellerIndexByAddress(_seller, _sku);\r\n\t\tinvoiceToDetail[_invoice].sellerToInvoiceIndex = sellerToInvoice[_seller].push(_invoice)-1;\r\n\r\n\t\tproduct.updateStock(_seller, _sku, -1*_qty);\r\n\r\n\t\temit NewTrx(_invoice, invoiceToDetail[_invoice].index, _sku, _qty, _deadline);\r\n\r\n\t\treturn true;\r\n\t}\r\n\r\n\tfunction addInvoice(\r\n\t\tbytes32 _invoice,\r\n\t\taddress _buyer,\r\n\t\tbytes32 _paymentDateTime,\r\n\t\tuint _itemPrice,\r\n\t\tbytes32 _estimate,\r\n\t\tuint _shippingFee) public payable returns(bool success)\r\n\t{\r\n\t\trequire(invoiceToDetail[_invoice].state == 1);\r\n\t\trequire (invoiceToDetail[_invoice].fixBuyer < invoiceToDetail[_invoice].qty);\r\n\t\trequire(msg.sender.balance > _itemPrice+_shippingFee && msg.value == _itemPrice+_shippingFee);\r\n\r\n\t\tcontractBalance += msg.value;\r\n\r\n\t\tinvoiceToDetail[_invoice].fixBuyer += 1;\r\n\r\n\t\tinvoiceToBuyer[_invoice].push(BuyerStruct({\r\n\t\t\tpaymentDateTime: _paymentDateTime,\r\n\t\t\titemPrice: _itemPrice,\r\n\t\t\testimate: _estimate,\r\n\t\t\tshippingFee: _shippingFee,\r\n\t\t\twaybill: \"-\",\r\n\t\t\tnote: 0,\r\n\t\t\tbuyerIndex: user.getIndexByAddress(_buyer),\r\n\t\t\tbuyerToInvoiceIndex: buyerToInvoice[_buyer].push(_invoice)-1,\r\n\t\t\tinvoiceToBuyerIndex: invoiceToBuyer[_invoice].length\r\n\t\t}));\r\n\r\n\t\temit UpdateTrx(_invoice, invoiceToDetail[_invoice].index, _buyer, _paymentDateTime,\t_estimate, _shippingFee, _itemPrice+_shippingFee);\r\n\r\n\t\treturn true;\r\n\t}\r\n\r\n\tfunction aborted(bytes32 _invoice, uint _index) public returns(bool success){\r\n\t\trequire (invoiceToBuyer[_invoice][_index].note == 0);\r\n\t\t\r\n\t\tuint amount = invoiceToBuyer[_invoice][_index].itemPrice+invoiceToBuyer[_invoice][_index].shippingFee;\r\n\t\taddress buyer = user.getAddressByIndex(invoiceToBuyer[_invoice][_index].buyerIndex);\r\n\r\n\t\tbuyer.transfer(amount);\r\n\t\tcontractBalance -= amount;\r\n\t\tinvoiceToDetail[_invoice].totalItemPrice -= invoiceToBuyer[_invoice][_index].itemPrice;\r\n\t\tinvoiceToDetail[_invoice].fixBuyer -= 1;\r\n\t\tinvoiceToBuyer[_invoice][_index].note = 3;\r\n\r\n\t\tif(invoiceToDetail[_invoice].state == 1  &&  invoiceToDetail[_invoice].fixBuyer == 0){\r\n\t\t\t// restore stock\r\n\t\t\tproduct.updateStock(getSellerByInvoiceIndex(invoiceToDetail[_invoice].index), getSkuByInvoiceIndex(invoiceToDetail[_invoice].index), invoiceToDetail[_invoice].qty);\r\n\r\n\t\t\t// change state\r\n\t\t\tinvoiceToDetail[_invoice].state = 0;\r\n\t\t}\r\n\r\n\t\temit AbortTrx(_invoice, _index, user.getAddressByIndex(invoiceToBuyer[_invoice][_index].buyerIndex),\r\n\t\t\tinvoiceToBuyer[_invoice][_index].itemPrice+invoiceToBuyer[_invoice][_index].shippingFee);\r\n\r\n\t\treturn true;\r\n\t}\r\n\r\n\tfunction failed(bytes32 _invoice) public returns(bool success){\r\n\t\t// restore stock\r\n\t\tproduct.updateStock(getSellerByInvoiceIndex(invoiceToDetail[_invoice].index), getSkuByInvoiceIndex(invoiceToDetail[_invoice].index), invoiceToDetail[_invoice].qty);\t\r\n\r\n\t\t//change state\r\n\t\tinvoiceToDetail[_invoice].state = 0;\r\n\r\n\t\temit FailedTrx(_invoice);\r\n\r\n\t\treturn true;\r\n\t}\r\n\r\n\tfunction confirmSent(bytes32 _invoice, uint _index, bytes32 _waybill) public returns(bool success){\r\n\t\trequire (invoiceToDetail[_invoice].fixBuyer == invoiceToDetail[_invoice].qty);\r\n\t\trequire (invoiceToDetail[_invoice].state == 1 && invoiceToBuyer[_invoice][_index].note == 0);\r\n\r\n\t\tinvoiceToBuyer[_invoice][_index].note = 1;\r\n\t\tinvoiceToBuyer[_invoice][_index].waybill = _waybill;\r\n\r\n\t\temit ConfirmSent(_invoice, _index, user.getAddressByIndex(invoiceToBuyer[_invoice][_index].buyerIndex),\r\n\t\t\t_waybill, invoiceToBuyer[_invoice][_index].itemPrice+invoiceToBuyer[_invoice][_index].shippingFee);\r\n\r\n\t\treturn true;\r\n\t}\r\n\r\n\tfunction confirmReceived(bytes32 _invoice, uint _index) public returns(bool success){\r\n\t\trequire (invoiceToDetail[_invoice].state == 1 && invoiceToBuyer[_invoice][_index].note == 1);\r\n\r\n\t\tuint amount = invoiceToBuyer[_invoice][_index].itemPrice+invoiceToBuyer[_invoice][_index].shippingFee;\r\n\t\taddress seller = product.getSellerBySellerIndex(invoiceToDetail[_invoice].sellerIndex);\r\n\r\n\t\tseller.transfer(amount);\r\n\t\tcontractBalance -= amount;\r\n\t\tinvoiceToDetail[_invoice].totalItemPrice += invoiceToBuyer[_invoice][_index].itemPrice;\r\n\r\n\t\tinvoiceToBuyer[_invoice][_index].note = 2;\r\n\r\n\t\temit ConfirmReceived(_invoice, invoiceToDetail[_invoice].totalItemPrice, _index, user.getAddressByIndex(invoiceToBuyer[_invoice][_index].buyerIndex),\r\n\t\t\tinvoiceToBuyer[_invoice][_index].itemPrice+invoiceToBuyer[_invoice][_index].shippingFee);\r\n\r\n\t\treturn true;\r\n\t}\r\n\r\n\tfunction complain(bytes32 _invoice, uint _index) public returns(bool success){\r\n\t\trequire (invoiceToDetail[_invoice].state == 1 && invoiceToBuyer[_invoice][_index].note == 1);\r\n\t\t\r\n\t\tuint amount = invoiceToBuyer[_invoice][_index].itemPrice;\r\n\t\tuint fee = invoiceToBuyer[_invoice][_index].shippingFee;\r\n\r\n\t\taddress buyer = user.getAddressByIndex(invoiceToBuyer[_invoice][_index].buyerIndex);\r\n\t\taddress seller = product.getSellerBySellerIndex(invoiceToDetail[_invoice].sellerIndex);\r\n\r\n\t\tbuyer.transfer(amount);\r\n\t\tseller.transfer(fee);\r\n\t\tcontractBalance -= (amount+fee);\r\n\r\n\t\tinvoiceToBuyer[_invoice][_index].note = 3;\r\n\r\n\t\temit ComplainTrx(_invoice, _index, user.getAddressByIndex(invoiceToBuyer[_invoice][_index].buyerIndex),\r\n\t\t\tinvoiceToBuyer[_invoice][_index].itemPrice);\r\n\r\n\t\treturn true;\r\n\t}\r\n\r\n\t// Get Contract Balance\r\n\tfunction getContractBalance() public view returns(uint count){\r\n\t\treturn contractBalance;\r\n\t}\r\n\r\n\t// Get Invoice Count\r\n\tfunction getInvoiceCount() public view returns(uint count){\r\n\t\treturn invoice.length;\r\n\t}\r\n\r\n\tfunction getInvoiceCountBySeller(address _sellerAddress) public view returns(uint count){\r\n\t\treturn sellerToInvoice[_sellerAddress].length;\r\n\t}\r\n\r\n\tfunction getInvoiceCountByBuyer(address _buyerAddress) public view returns(uint count){\r\n\t\treturn buyerToInvoice[_buyerAddress].length;\r\n\t}\r\n\r\n\tfunction getInvoiceCountBySku(bytes32 _sku) public view returns(uint count){\r\n\t\treturn skuToInvoice[_sku].length;\r\n\t}\r\n\r\n\t// Get Invoice To Buyer Count\r\n\tfunction getInvoiceToBuyerCount(bytes32 _invoice) public view returns(uint count){\r\n\t\treturn invoiceToBuyer[_invoice].length;\r\n\t}\r\n\r\n\t// Get Invoice\r\n\tfunction getInvoiceByInvoiceIndex(uint _index) public view returns(bytes32 invoiceCode){\r\n\t\treturn invoice[_index];\r\n\t}\r\n\r\n\tfunction getInvoiceBySkuToInvoiceIndex(bytes32 _sku, uint _index) public view returns(bytes32 invoiceCode){\r\n\t\treturn skuToInvoice[_sku][_index];\r\n\t}\r\n\r\n\tfunction getInvoiceBySellerToInvoiceIndex(address _sellerAddress, uint _index) public view returns(bytes32 invoiceCode){\r\n\t\treturn sellerToInvoice[_sellerAddress][_index];\r\n\t}\r\n\r\n\tfunction getInvoiceByBuyerToInvoiceIndex(address _buyerAddress, uint _index) public view returns(bytes32 invoiceCode){\r\n\t\treturn buyerToInvoice[_buyerAddress][_index];\r\n\t}\r\n\r\n\t// Get Qty\r\n\tfunction getQtyByInvoiceIndex(uint _index) public view returns(int qty){\r\n\t\treturn invoiceToDetail[invoice[_index]].qty;\r\n\t}\r\n\r\n\tfunction getQtyBySkuToInvoiceIndex(bytes32 _sku, uint _index) public view returns(int qty){\r\n\t\treturn invoiceToDetail[skuToInvoice[_sku][_index]].qty;\r\n\t}\r\n\r\n\tfunction getQtyBySellerToInvoiceIndex(address _sellerAddress, uint _index) public view returns(int qty){\r\n\t\treturn invoiceToDetail[sellerToInvoice[_sellerAddress][_index]].qty;\r\n\t}\r\n\r\n\tfunction getQtyByBuyerToInvoiceIndex(address _buyerAddress, uint _index) public view returns(int qty){\r\n\t\treturn invoiceToDetail[buyerToInvoice[_buyerAddress][_index]].qty;\r\n\t}\r\n\r\n\t// Get Total Item Price\r\n\tfunction getTotalItemPriceByInvoiceIndex(uint _index) public view returns(uint totalItemPrice){\r\n\t\treturn invoiceToDetail[invoice[_index]].totalItemPrice;\r\n\t}\r\n\r\n\tfunction getTotaltemPriceIBySkuToInvoiceIndex(bytes32 _sku, uint _index) public view returns(uint totalItemPrice){\r\n\t\treturn invoiceToDetail[skuToInvoice[_sku][_index]].totalItemPrice;\r\n\t}\t\r\n\r\n\tfunction getTotalItemPriceBySellerToInvoiceIndex(address _sellerAddress, uint _index) public view returns(uint totalItemPrice){\r\n\t\treturn invoiceToDetail[sellerToInvoice[_sellerAddress][_index]].totalItemPrice;\r\n\t}\r\n\r\n\tfunction getTotalItemPriceByBuyerToInvoiceIndex(address _buyerAddress, uint _index) public view returns(uint totalItemPrice){\r\n\t\treturn invoiceToDetail[buyerToInvoice[_buyerAddress][_index]].totalItemPrice;\r\n\t}\r\n\r\n\t// Get Deadline\r\n\tfunction getDeadlineByInvoiceIndex(uint _index) public view returns(bytes32 deadline){\r\n\t\treturn invoiceToDetail[invoice[_index]].deadline;\r\n\t}\r\n\r\n\tfunction getDeadlineBySkuToInvoiceIndex(bytes32 _sku, uint _index) public view returns(bytes32 deadline){\r\n\t\treturn invoiceToDetail[skuToInvoice[_sku][_index]].deadline;\r\n\t}\r\n\r\n\tfunction getDeadlineBySellerToInvoiceIndex(address _sellerAddress, uint _index) public view returns(bytes32 deadline){\r\n\t\treturn invoiceToDetail[sellerToInvoice[_sellerAddress][_index]].deadline;\r\n\t}\r\n\r\n\tfunction getDeadlineByBuyerToInvoiceIndex(address _buyerAddress, uint _index) public view returns(bytes32 deadline){\r\n\t\treturn invoiceToDetail[buyerToInvoice[_buyerAddress][_index]].deadline;\r\n\t}\r\n\r\n\t// Get State\r\n\tfunction getStateByInvoiceIndex(uint _index) public view returns(uint state){\r\n\t\treturn invoiceToDetail[invoice[_index]].state;\r\n\t}\r\n\r\n\tfunction getStateBySkuToInvoiceIndex(bytes32 _sku, uint _index) public view returns(uint state){\r\n\t\treturn invoiceToDetail[skuToInvoice[_sku][_index]].state;\r\n\t}\r\n\r\n\tfunction getStateBySellerToInvoiceIndex(address _sellerAddress, uint _index) public view returns(uint state){\r\n\t\treturn invoiceToDetail[sellerToInvoice[_sellerAddress][_index]].state;\r\n\t}\r\n\r\n\tfunction getStateByBuyerToInvoiceIndex(address _buyerAddress, uint _index) public view returns(uint state){\r\n\t\treturn invoiceToDetail[buyerToInvoice[_buyerAddress][_index]].state;\r\n\t}\r\n\r\n\t// Get Fix Buyer\r\n\tfunction getFixBuyerByInvoiceIndex(uint _index) public view returns(int fixBuyer){\r\n\t\treturn invoiceToDetail[invoice[_index]].fixBuyer;\r\n\t}\r\n\r\n\tfunction getFixBuyerBySkuToInvoiceIndex(bytes32 _sku, uint _index) public view returns(int fixBuyer){\r\n\t\treturn invoiceToDetail[skuToInvoice[_sku][_index]].fixBuyer;\r\n\t}\r\n\r\n\tfunction getFixBuyerBySellerToInvoiceIndex(address _sellerAddress, uint _index) public view returns(int fixBuyer){\r\n\t\treturn invoiceToDetail[sellerToInvoice[_sellerAddress][_index]].fixBuyer;\r\n\t}\r\n\r\n\tfunction getFixBuyerByBuyerToInvoiceIndex(address _buyerAddress, uint _index) public view returns(int fixBuyer){\r\n\t\treturn invoiceToDetail[buyerToInvoice[_buyerAddress][_index]].fixBuyer;\r\n\t}\r\n\r\n\t// Get Idr\r\n\tfunction getIdrByInvoiceIndex(uint _index) public view returns(uint rupiah){\r\n\t\treturn invoiceToDetail[invoice[_index]].idr;\r\n\t}\r\n\r\n\tfunction getIdrBySkuToInvoiceIndex(bytes32 _sku, uint _index) public view returns(uint rupiah){\r\n\t\treturn invoiceToDetail[skuToInvoice[_sku][_index]].idr;\r\n\t}\r\n\r\n\tfunction getIdrBySellerToInvoiceIndex(address _sellerAddress, uint _index) public view returns(uint rupiah){\r\n\t\treturn invoiceToDetail[sellerToInvoice[_sellerAddress][_index]].idr;\r\n\t}\r\n\r\n\tfunction getIdrByBuyerToInvoiceIndex(address _buyerAddress, uint _index) public view returns(uint rupiah){\r\n\t\treturn invoiceToDetail[buyerToInvoice[_buyerAddress][_index]].idr;\r\n\t}\r\n\r\n\t// Get SKU\r\n\tfunction getSkuByInvoiceIndex(uint _index) public view returns(bytes32 sku){\r\n\t\treturn product.getSkuByIndex(invoiceToDetail[invoice[_index]].skuIndex);\r\n\t}\r\n\r\n\tfunction getSkuBySellerToInvoiceIndex(address _sellerAddress, uint _index) public view returns(bytes32 sku){\r\n\t\treturn product.getSkuByIndex(invoiceToDetail[sellerToInvoice[_sellerAddress][_index]].skuIndex);\r\n\t}\r\n\r\n\tfunction getSkuBySkuToInvoiceIndex(bytes32 _sku, uint _index) public view returns(bytes32 sku){\r\n\t\treturn product.getSkuByIndex(invoiceToDetail[skuToInvoice[_sku][_index]].skuIndex);\r\n\t}\r\n\r\n\tfunction getSkuByBuyerToInvoiceIndex(address _buyerAddress, uint _index) public view returns(bytes32 sku){\r\n\t\treturn product.getSkuByIndex(invoiceToDetail[buyerToInvoice[_buyerAddress][_index]].skuIndex);\r\n\t}\r\n\r\n\t// Get Seller\r\n\tfunction getSellerByInvoiceIndex(uint _index) public view returns(address sellerAddress){\r\n\t\treturn product.getSellerByIndex(invoiceToDetail[invoice[_index]].sellerIndex);\r\n\t}\r\n\r\n\tfunction getSellerBySkuToInvoiceIndex(bytes32 _sku, uint _index) public view returns(address sellerAddress){\r\n\t\treturn product.getSellerByIndex(invoiceToDetail[skuToInvoice[_sku][_index]].sellerIndex);\r\n\t}\r\n\r\n\tfunction getSellerBySellerToInvoiceIndex(address _sellerAddress, uint _index) public view returns(address sellerAddress){\r\n\t\treturn product.getSellerByIndex(invoiceToDetail[sellerToInvoice[_sellerAddress][_index]].sellerIndex);\r\n\t}\r\n\t\r\n\tfunction getSellerByBuyerToInvoiceIndex(address _buyerAddress, uint _index) public view returns(address sellerAddress){\r\n\t\treturn product.getSellerByIndex(invoiceToDetail[buyerToInvoice[_buyerAddress][_index]].sellerIndex);\r\n\t}\r\n\r\n\t// Get Payment Date Time\r\n\tfunction getPaymentDateTimeByInvoiceIndex(uint _index, uint _invoiceToBuyerIndex) public view returns(bytes32 paymentDateTime){\r\n\t\treturn invoiceToBuyer[getInvoiceByInvoiceIndex(_index)][_invoiceToBuyerIndex].paymentDateTime;\r\n\t}\r\n\r\n\tfunction getPaymentDateTimeBySkuToInvoiceIndex(bytes32 _sku, uint _index, uint _invoiceToBuyerIndex) public view returns(bytes32 paymentDateTime){\r\n\t\treturn invoiceToBuyer[getInvoiceBySkuToInvoiceIndex(_sku, _index)][_invoiceToBuyerIndex].paymentDateTime;\r\n\t}\r\n\r\n\tfunction getPaymentDateTimeBySellerToInvoiceIndex(address _sellerAddress, uint _index, uint _invoiceToBuyerIndex) public view returns(bytes32 paymentDateTime){\r\n\t\treturn invoiceToBuyer[getInvoiceBySellerToInvoiceIndex(_sellerAddress, _index)][_invoiceToBuyerIndex].paymentDateTime;\r\n\t}\r\n\r\n\tfunction getPaymentDateTimeByBuyerToInvoiceIndex(address _buyerAddress, uint _index, uint _invoiceToBuyerIndex) public view returns(bytes32 paymentDateTime){\r\n\t\treturn invoiceToBuyer[getInvoiceByBuyerToInvoiceIndex(_buyerAddress, _index)][_invoiceToBuyerIndex].paymentDateTime;\r\n\t}\r\n\r\n\t// Get Item Price\r\n\tfunction getItemPriceByInvoiceIndex(uint _index, uint _invoiceToBuyerIndex) public view returns(uint itemPrice){\r\n\t\treturn invoiceToBuyer[getInvoiceByInvoiceIndex(_index)][_invoiceToBuyerIndex].itemPrice;\r\n\t}\r\n\r\n\tfunction getItemPriceBySkuToInvoiceIndex(bytes32 _sku, uint _index, uint _invoiceToBuyerIndex) public view returns(uint itemPrice){\r\n\t\treturn invoiceToBuyer[getInvoiceBySkuToInvoiceIndex(_sku, _index)][_invoiceToBuyerIndex].itemPrice;\r\n\t}\r\n\r\n\tfunction getItemPriceBySellerToInvoiceIndex(address _sellerAddress, uint _index, uint _invoiceToBuyerIndex) public view returns(uint itemPrice){\r\n\t\treturn invoiceToBuyer[getInvoiceBySellerToInvoiceIndex(_sellerAddress, _index)][_invoiceToBuyerIndex].itemPrice;\r\n\t}\r\n\r\n\tfunction getItemPriceByBuyerToInvoiceIndex(address _buyerAddress, uint _index, uint _invoiceToBuyerIndex) public view returns(uint itemPrice){\r\n\t\treturn invoiceToBuyer[getInvoiceByBuyerToInvoiceIndex(_buyerAddress, _index)][_invoiceToBuyerIndex].itemPrice;\r\n\t}\r\n\r\n\t// Get Estimate\r\n\tfunction getEstimateByInvoiceIndex(uint _index, uint _invoiceToBuyerIndex) public view returns(bytes32 estimate){\r\n\t\treturn invoiceToBuyer[getInvoiceByInvoiceIndex(_index)][_invoiceToBuyerIndex].estimate;\r\n\t}\r\n\r\n\tfunction getEstimateBySkuToInvoiceIndex(bytes32 _sku, uint _index, uint _invoiceToBuyerIndex) public view returns(bytes32 estimate){\r\n\t\treturn invoiceToBuyer[getInvoiceBySkuToInvoiceIndex(_sku, _index)][_invoiceToBuyerIndex].estimate;\r\n\t}\r\n\r\n\tfunction getEstimateBySellerToInvoiceIndex(address _sellerAddress, uint _index, uint _invoiceToBuyerIndex) public view returns(bytes32 estimate){\r\n\t\treturn invoiceToBuyer[getInvoiceBySellerToInvoiceIndex(_sellerAddress, _index)][_invoiceToBuyerIndex].estimate;\r\n\t}\r\n\r\n\tfunction getEstimateByBuyerToInvoiceIndex(address _buyerAddress, uint _index, uint _invoiceToBuyerIndex) public view returns(bytes32 estimate){\r\n\t\treturn invoiceToBuyer[getInvoiceByBuyerToInvoiceIndex(_buyerAddress, _index)][_invoiceToBuyerIndex].estimate;\r\n\t}\r\n\r\n\t// Get Shipping Fee\r\n\tfunction getShippingFeeByInvoiceIndex(uint _index, uint _invoiceToBuyerIndex) public view returns(uint shippingFee){\r\n\t\treturn invoiceToBuyer[getInvoiceByInvoiceIndex(_index)][_invoiceToBuyerIndex].shippingFee;\r\n\t}\r\n\r\n\tfunction getShippingFeeBySkuToInvoiceIndex(bytes32 _sku, uint _index, uint _invoiceToBuyerIndex) public view returns(uint shippingFee){\r\n\t\treturn invoiceToBuyer[getInvoiceBySkuToInvoiceIndex(_sku, _index)][_invoiceToBuyerIndex].shippingFee;\r\n\t}\r\n\r\n\tfunction getShippingFeeBySellerToInvoiceIndex(address _sellerAddress, uint _index, uint _invoiceToBuyerIndex) public view returns(uint shippingFee){\r\n\t\treturn invoiceToBuyer[getInvoiceBySellerToInvoiceIndex(_sellerAddress, _index)][_invoiceToBuyerIndex].shippingFee;\r\n\t}\r\n\r\n\tfunction getShippingFeeByBuyerToInvoiceIndex(address _buyerAddress, uint _index, uint _invoiceToBuyerIndex) public view returns(uint shippingFee){\r\n\t\treturn invoiceToBuyer[getInvoiceByBuyerToInvoiceIndex(_buyerAddress, _index)][_invoiceToBuyerIndex].shippingFee;\r\n\t}\r\n\r\n\t// Get Note\r\n\tfunction getNoteByInvoiceIndex(uint _index, uint _invoiceToBuyerIndex) public view returns(uint note){\r\n\t\treturn invoiceToBuyer[getInvoiceByInvoiceIndex(_index)][_invoiceToBuyerIndex].note;\r\n\t}\r\n\r\n\tfunction getNoteBySkuToInvoiceIndex(bytes32 _sku, uint _index, uint _invoiceToBuyerIndex) public view returns(uint note){\r\n\t\treturn invoiceToBuyer[getInvoiceBySkuToInvoiceIndex(_sku, _index)][_invoiceToBuyerIndex].note;\r\n\t}\r\n\r\n\tfunction getNoteBySellerToInvoiceIndex(address _sellerAddress, uint _index, uint _invoiceToBuyerIndex) public view returns(uint note){\r\n\t\treturn invoiceToBuyer[getInvoiceBySellerToInvoiceIndex(_sellerAddress, _index)][_invoiceToBuyerIndex].note;\r\n\t}\r\n\r\n\tfunction getNoteByBuyerToInvoiceIndex(address _buyerAddress, uint _index, uint _invoiceToBuyerIndex) public view returns(uint note){\r\n\t\treturn invoiceToBuyer[getInvoiceByBuyerToInvoiceIndex(_buyerAddress, _index)][_invoiceToBuyerIndex].note;\r\n\t}\r\n\r\n\t// Get Waybill\r\n\tfunction getWaybillByInvoiceIndex(uint _index, uint _invoiceToBuyerIndex) public view returns(bytes32 waybill){\r\n\t\treturn invoiceToBuyer[getInvoiceByInvoiceIndex(_index)][_invoiceToBuyerIndex].waybill;\r\n\t}\r\n\r\n\tfunction getWaybillBySkuToInvoiceIndex(bytes32 _sku, uint _index, uint _invoiceToBuyerIndex) public view returns(bytes32 waybill){\r\n\t\treturn invoiceToBuyer[getInvoiceBySkuToInvoiceIndex(_sku, _index)][_invoiceToBuyerIndex].waybill;\r\n\t}\r\n\r\n\tfunction getWaybillBySellerToInvoiceIndex(address _sellerAddress, uint _index, uint _invoiceToBuyerIndex) public view returns(bytes32 waybill){\r\n\t\treturn invoiceToBuyer[getInvoiceBySellerToInvoiceIndex(_sellerAddress, _index)][_invoiceToBuyerIndex].waybill;\r\n\t}\r\n\r\n\tfunction getWaybillByBuyerToInvoiceIndex(address _buyerAddress, uint _index, uint _invoiceToBuyerIndex) public view returns(bytes32 waybill){\r\n\t\treturn invoiceToBuyer[getInvoiceByBuyerToInvoiceIndex(_buyerAddress, _index)][_invoiceToBuyerIndex].waybill;\r\n\t}\r\n\r\n\t// Get Buyer\r\n\tfunction getBuyerByInvoiceIndex(uint _index, uint _invoiceToBuyerIndex) public view returns(address buyerAddress){\r\n\t\treturn user.getAddressByIndex(invoiceToBuyer[getInvoiceByInvoiceIndex(_index)][_invoiceToBuyerIndex].buyerIndex);\r\n\t}\r\n\r\n\tfunction getBuyerBySkuToInvoiceIndex(bytes32 _sku, uint _index, uint _invoiceToBuyerIndex) public view returns(address buyerAddress){\r\n\t\treturn user.getAddressByIndex(invoiceToBuyer[getInvoiceBySkuToInvoiceIndex(_sku, _index)][_invoiceToBuyerIndex].buyerIndex);\r\n\t}\r\n\r\n\tfunction getBuyerBySellerToInvoiceIndex(address _sellerAddress, uint _index, uint _invoiceToBuyerIndex) public view returns(address buyerAddress){\r\n\t\treturn user.getAddressByIndex(invoiceToBuyer[getInvoiceBySellerToInvoiceIndex(_sellerAddress, _index)][_invoiceToBuyerIndex].buyerIndex);\r\n\t}\r\n\r\n\tfunction getBuyerByInvoiceToBuyerIndex(address _buyerAddress, uint _index, uint _invoiceToBuyerIndex) public view returns(address buyerAddress){\r\n\t\treturn user.getAddressByIndex(invoiceToBuyer[getInvoiceByBuyerToInvoiceIndex(_buyerAddress, _index)][_invoiceToBuyerIndex].buyerIndex);\r\n\t}\r\n}\t\r\n",
  "sourcePath": "D:\\Project\\Web\\jengjeng\\contracts\\Escrow.sol",
  "compiler": {
    "name": "solc",
    "version": "0.4.21+commit.dfe3193c.Emscripten.clang"
  },
  "schemaVersion": "3.1.0",
  "updatedAt": "2020-08-07T17:20:00.237Z",
  "networkType": "ethereum",
  "devdoc": {
    "methods": {}
  },
  "userdoc": {
    "methods": {}
  }
}