{
  "contractName": "Product",
  "abi": [
    {
      "inputs": [],
      "payable": false,
      "stateMutability": "nonpayable",
      "type": "constructor"
    },
    {
      "anonymous": false,
      "inputs": [
        {
          "indexed": true,
          "name": "sku",
          "type": "bytes32"
        },
        {
          "indexed": false,
          "name": "index",
          "type": "uint256"
        },
        {
          "indexed": false,
          "name": "name",
          "type": "bytes32"
        },
        {
          "indexed": false,
          "name": "desc",
          "type": "bytes32"
        },
        {
          "indexed": false,
          "name": "pict",
          "type": "bytes"
        },
        {
          "indexed": false,
          "name": "stock",
          "type": "int256"
        },
        {
          "indexed": false,
          "name": "note",
          "type": "uint256"
        },
        {
          "indexed": false,
          "name": "sellerAddress",
          "type": "address"
        }
      ],
      "name": "NewSku",
      "type": "event"
    },
    {
      "anonymous": false,
      "inputs": [
        {
          "indexed": true,
          "name": "sku",
          "type": "bytes32"
        },
        {
          "indexed": false,
          "name": "priceIndex",
          "type": "uint256"
        },
        {
          "indexed": false,
          "name": "min",
          "type": "uint256"
        },
        {
          "indexed": false,
          "name": "max",
          "type": "uint256"
        },
        {
          "indexed": false,
          "name": "price",
          "type": "uint256"
        }
      ],
      "name": "NewSkuPrice",
      "type": "event"
    },
    {
      "anonymous": false,
      "inputs": [
        {
          "indexed": true,
          "name": "sku",
          "type": "bytes32"
        },
        {
          "indexed": false,
          "name": "index",
          "type": "uint256"
        },
        {
          "indexed": false,
          "name": "name",
          "type": "bytes32"
        },
        {
          "indexed": false,
          "name": "desc",
          "type": "bytes32"
        },
        {
          "indexed": false,
          "name": "pict",
          "type": "bytes"
        },
        {
          "indexed": false,
          "name": "stock",
          "type": "int256"
        },
        {
          "indexed": false,
          "name": "note",
          "type": "uint256"
        },
        {
          "indexed": false,
          "name": "sellerAddress",
          "type": "address"
        }
      ],
      "name": "UpdateSku",
      "type": "event"
    },
    {
      "anonymous": false,
      "inputs": [
        {
          "indexed": true,
          "name": "sku",
          "type": "bytes32"
        },
        {
          "indexed": false,
          "name": "priceIndex",
          "type": "uint256"
        },
        {
          "indexed": false,
          "name": "min",
          "type": "uint256"
        },
        {
          "indexed": false,
          "name": "max",
          "type": "uint256"
        },
        {
          "indexed": false,
          "name": "price",
          "type": "uint256"
        }
      ],
      "name": "UpdateSkuPrice",
      "type": "event"
    },
    {
      "anonymous": false,
      "inputs": [
        {
          "indexed": true,
          "name": "sku",
          "type": "bytes32"
        },
        {
          "indexed": false,
          "name": "index",
          "type": "uint256"
        }
      ],
      "name": "DeleteSku",
      "type": "event"
    },
    {
      "anonymous": false,
      "inputs": [
        {
          "indexed": true,
          "name": "sku",
          "type": "bytes32"
        },
        {
          "indexed": false,
          "name": "priceIndex",
          "type": "uint256"
        }
      ],
      "name": "DeleteSkuPrice",
      "type": "event"
    },
    {
      "constant": true,
      "inputs": [
        {
          "name": "_sellerAddress",
          "type": "address"
        }
      ],
      "name": "isSeller",
      "outputs": [
        {
          "name": "isIndeed",
          "type": "bool"
        }
      ],
      "payable": false,
      "stateMutability": "view",
      "type": "function"
    },
    {
      "constant": true,
      "inputs": [
        {
          "name": "_sku",
          "type": "bytes32"
        }
      ],
      "name": "isSku",
      "outputs": [
        {
          "name": "isIndeed",
          "type": "bool"
        }
      ],
      "payable": false,
      "stateMutability": "view",
      "type": "function"
    },
    {
      "constant": false,
      "inputs": [
        {
          "name": "_sellerAddress",
          "type": "address"
        },
        {
          "name": "_sku",
          "type": "bytes32"
        },
        {
          "name": "_name",
          "type": "bytes32"
        },
        {
          "name": "_desc",
          "type": "bytes32"
        },
        {
          "name": "_pict",
          "type": "bytes"
        },
        {
          "name": "_stock",
          "type": "int256"
        }
      ],
      "name": "insertProduct",
      "outputs": [
        {
          "name": "success",
          "type": "bool"
        }
      ],
      "payable": false,
      "stateMutability": "nonpayable",
      "type": "function"
    },
    {
      "constant": false,
      "inputs": [
        {
          "name": "_sellerAddress",
          "type": "address"
        },
        {
          "name": "_sku",
          "type": "bytes32"
        },
        {
          "name": "_min",
          "type": "uint256"
        },
        {
          "name": "_max",
          "type": "uint256"
        },
        {
          "name": "_price",
          "type": "uint256"
        }
      ],
      "name": "createPrice",
      "outputs": [
        {
          "name": "success",
          "type": "bool"
        }
      ],
      "payable": false,
      "stateMutability": "nonpayable",
      "type": "function"
    },
    {
      "constant": false,
      "inputs": [
        {
          "name": "_sellerAddress",
          "type": "address"
        },
        {
          "name": "_sku",
          "type": "bytes32"
        }
      ],
      "name": "deleteProduct",
      "outputs": [
        {
          "name": "success",
          "type": "bool"
        }
      ],
      "payable": false,
      "stateMutability": "nonpayable",
      "type": "function"
    },
    {
      "constant": false,
      "inputs": [
        {
          "name": "_sellerAddress",
          "type": "address"
        },
        {
          "name": "_sku",
          "type": "bytes32"
        },
        {
          "name": "_index",
          "type": "uint256"
        }
      ],
      "name": "deletePrice",
      "outputs": [
        {
          "name": "success",
          "type": "bool"
        }
      ],
      "payable": false,
      "stateMutability": "nonpayable",
      "type": "function"
    },
    {
      "constant": false,
      "inputs": [
        {
          "name": "_sellerAddress",
          "type": "address"
        },
        {
          "name": "_sku",
          "type": "bytes32"
        },
        {
          "name": "_name",
          "type": "bytes32"
        }
      ],
      "name": "updateName",
      "outputs": [
        {
          "name": "success",
          "type": "bool"
        }
      ],
      "payable": false,
      "stateMutability": "nonpayable",
      "type": "function"
    },
    {
      "constant": false,
      "inputs": [
        {
          "name": "_sellerAddress",
          "type": "address"
        },
        {
          "name": "_sku",
          "type": "bytes32"
        },
        {
          "name": "_desc",
          "type": "bytes32"
        }
      ],
      "name": "updateDesc",
      "outputs": [
        {
          "name": "success",
          "type": "bool"
        }
      ],
      "payable": false,
      "stateMutability": "nonpayable",
      "type": "function"
    },
    {
      "constant": false,
      "inputs": [
        {
          "name": "_sellerAddress",
          "type": "address"
        },
        {
          "name": "_sku",
          "type": "bytes32"
        },
        {
          "name": "_pict",
          "type": "bytes"
        }
      ],
      "name": "updatePict",
      "outputs": [
        {
          "name": "success",
          "type": "bool"
        }
      ],
      "payable": false,
      "stateMutability": "nonpayable",
      "type": "function"
    },
    {
      "constant": false,
      "inputs": [
        {
          "name": "_sellerAddress",
          "type": "address"
        },
        {
          "name": "_sku",
          "type": "bytes32"
        },
        {
          "name": "_stock",
          "type": "int256"
        }
      ],
      "name": "updateStock",
      "outputs": [
        {
          "name": "success",
          "type": "bool"
        }
      ],
      "payable": false,
      "stateMutability": "nonpayable",
      "type": "function"
    },
    {
      "constant": false,
      "inputs": [
        {
          "name": "_sellerAddress",
          "type": "address"
        },
        {
          "name": "_sku",
          "type": "bytes32"
        },
        {
          "name": "_note",
          "type": "uint256"
        }
      ],
      "name": "updateNote",
      "outputs": [
        {
          "name": "success",
          "type": "bool"
        }
      ],
      "payable": false,
      "stateMutability": "nonpayable",
      "type": "function"
    },
    {
      "constant": false,
      "inputs": [
        {
          "name": "_sellerAddress",
          "type": "address"
        },
        {
          "name": "_sku",
          "type": "bytes32"
        },
        {
          "name": "_index",
          "type": "uint256"
        },
        {
          "name": "_min",
          "type": "uint256"
        },
        {
          "name": "_max",
          "type": "uint256"
        },
        {
          "name": "_price",
          "type": "uint256"
        }
      ],
      "name": "updatePrice",
      "outputs": [
        {
          "name": "success",
          "type": "bool"
        }
      ],
      "payable": false,
      "stateMutability": "nonpayable",
      "type": "function"
    },
    {
      "constant": true,
      "inputs": [],
      "name": "getSkuCount",
      "outputs": [
        {
          "name": "count",
          "type": "uint256"
        }
      ],
      "payable": false,
      "stateMutability": "view",
      "type": "function"
    },
    {
      "constant": true,
      "inputs": [
        {
          "name": "_sellerAddress",
          "type": "address"
        }
      ],
      "name": "getSkuCountByAddress",
      "outputs": [
        {
          "name": "count",
          "type": "uint256"
        }
      ],
      "payable": false,
      "stateMutability": "view",
      "type": "function"
    },
    {
      "constant": true,
      "inputs": [
        {
          "name": "_sku",
          "type": "bytes32"
        }
      ],
      "name": "getPriceRangeCountBySku",
      "outputs": [
        {
          "name": "count",
          "type": "uint256"
        }
      ],
      "payable": false,
      "stateMutability": "view",
      "type": "function"
    },
    {
      "constant": true,
      "inputs": [],
      "name": "getSellerCount",
      "outputs": [
        {
          "name": "count",
          "type": "uint256"
        }
      ],
      "payable": false,
      "stateMutability": "view",
      "type": "function"
    },
    {
      "constant": true,
      "inputs": [
        {
          "name": "_index",
          "type": "uint256"
        }
      ],
      "name": "getSkuByIndex",
      "outputs": [
        {
          "name": "skuCode",
          "type": "bytes32"
        }
      ],
      "payable": false,
      "stateMutability": "view",
      "type": "function"
    },
    {
      "constant": true,
      "inputs": [
        {
          "name": "_sellerAddress",
          "type": "address"
        },
        {
          "name": "_index",
          "type": "uint256"
        }
      ],
      "name": "getSkuBySellerToSkuIndex",
      "outputs": [
        {
          "name": "skuCode",
          "type": "bytes32"
        }
      ],
      "payable": false,
      "stateMutability": "view",
      "type": "function"
    },
    {
      "constant": true,
      "inputs": [
        {
          "name": "_index",
          "type": "uint256"
        }
      ],
      "name": "getSellerBySellerIndex",
      "outputs": [
        {
          "name": "sellerAddress",
          "type": "address"
        }
      ],
      "payable": false,
      "stateMutability": "view",
      "type": "function"
    },
    {
      "constant": true,
      "inputs": [
        {
          "name": "_index",
          "type": "uint256"
        }
      ],
      "name": "getSellerByIndex",
      "outputs": [
        {
          "name": "sellerAddress",
          "type": "address"
        }
      ],
      "payable": false,
      "stateMutability": "view",
      "type": "function"
    },
    {
      "constant": true,
      "inputs": [
        {
          "name": "_index",
          "type": "uint256"
        }
      ],
      "name": "getNameByIndex",
      "outputs": [
        {
          "name": "name",
          "type": "bytes32"
        }
      ],
      "payable": false,
      "stateMutability": "view",
      "type": "function"
    },
    {
      "constant": true,
      "inputs": [
        {
          "name": "_sellerAddress",
          "type": "address"
        },
        {
          "name": "_index",
          "type": "uint256"
        }
      ],
      "name": "getNameBySellerToSkuIndex",
      "outputs": [
        {
          "name": "name",
          "type": "bytes32"
        }
      ],
      "payable": false,
      "stateMutability": "view",
      "type": "function"
    },
    {
      "constant": true,
      "inputs": [
        {
          "name": "_index",
          "type": "uint256"
        }
      ],
      "name": "getDescByIndex",
      "outputs": [
        {
          "name": "desc",
          "type": "bytes32"
        }
      ],
      "payable": false,
      "stateMutability": "view",
      "type": "function"
    },
    {
      "constant": true,
      "inputs": [
        {
          "name": "_sellerAddress",
          "type": "address"
        },
        {
          "name": "_index",
          "type": "uint256"
        }
      ],
      "name": "getDescBySellerToSkuIndex",
      "outputs": [
        {
          "name": "desc",
          "type": "bytes32"
        }
      ],
      "payable": false,
      "stateMutability": "view",
      "type": "function"
    },
    {
      "constant": true,
      "inputs": [
        {
          "name": "_index",
          "type": "uint256"
        }
      ],
      "name": "getPictByIndex",
      "outputs": [
        {
          "name": "pict",
          "type": "bytes"
        }
      ],
      "payable": false,
      "stateMutability": "view",
      "type": "function"
    },
    {
      "constant": true,
      "inputs": [
        {
          "name": "_sellerAddress",
          "type": "address"
        },
        {
          "name": "_index",
          "type": "uint256"
        }
      ],
      "name": "getPictBySellerToSkuIndex",
      "outputs": [
        {
          "name": "pict",
          "type": "bytes"
        }
      ],
      "payable": false,
      "stateMutability": "view",
      "type": "function"
    },
    {
      "constant": true,
      "inputs": [
        {
          "name": "_index",
          "type": "uint256"
        }
      ],
      "name": "getStockByIndex",
      "outputs": [
        {
          "name": "stock",
          "type": "int256"
        }
      ],
      "payable": false,
      "stateMutability": "view",
      "type": "function"
    },
    {
      "constant": true,
      "inputs": [
        {
          "name": "_sellerAddress",
          "type": "address"
        },
        {
          "name": "_index",
          "type": "uint256"
        }
      ],
      "name": "getStockBySellerToSkuIndex",
      "outputs": [
        {
          "name": "stock",
          "type": "int256"
        }
      ],
      "payable": false,
      "stateMutability": "view",
      "type": "function"
    },
    {
      "constant": true,
      "inputs": [
        {
          "name": "_index",
          "type": "uint256"
        }
      ],
      "name": "getNoteByIndex",
      "outputs": [
        {
          "name": "note",
          "type": "uint256"
        }
      ],
      "payable": false,
      "stateMutability": "view",
      "type": "function"
    },
    {
      "constant": true,
      "inputs": [
        {
          "name": "_sellerAddress",
          "type": "address"
        },
        {
          "name": "_index",
          "type": "uint256"
        }
      ],
      "name": "getNoteBySellerToSkuIndex",
      "outputs": [
        {
          "name": "note",
          "type": "uint256"
        }
      ],
      "payable": false,
      "stateMutability": "view",
      "type": "function"
    },
    {
      "constant": true,
      "inputs": [
        {
          "name": "_index",
          "type": "uint256"
        },
        {
          "name": "_priceIndex",
          "type": "uint256"
        }
      ],
      "name": "getMinByIndex",
      "outputs": [
        {
          "name": "min",
          "type": "uint256"
        }
      ],
      "payable": false,
      "stateMutability": "view",
      "type": "function"
    },
    {
      "constant": true,
      "inputs": [
        {
          "name": "_sellerAddress",
          "type": "address"
        },
        {
          "name": "_index",
          "type": "uint256"
        },
        {
          "name": "_priceIndex",
          "type": "uint256"
        }
      ],
      "name": "getMinBySellerToSkuIndex",
      "outputs": [
        {
          "name": "min",
          "type": "uint256"
        }
      ],
      "payable": false,
      "stateMutability": "view",
      "type": "function"
    },
    {
      "constant": true,
      "inputs": [
        {
          "name": "_index",
          "type": "uint256"
        },
        {
          "name": "_priceIndex",
          "type": "uint256"
        }
      ],
      "name": "getMaxByIndex",
      "outputs": [
        {
          "name": "max",
          "type": "uint256"
        }
      ],
      "payable": false,
      "stateMutability": "view",
      "type": "function"
    },
    {
      "constant": true,
      "inputs": [
        {
          "name": "_sellerAddress",
          "type": "address"
        },
        {
          "name": "_index",
          "type": "uint256"
        },
        {
          "name": "_priceIndex",
          "type": "uint256"
        }
      ],
      "name": "getMaxBySellerToSkuIndex",
      "outputs": [
        {
          "name": "max",
          "type": "uint256"
        }
      ],
      "payable": false,
      "stateMutability": "view",
      "type": "function"
    },
    {
      "constant": true,
      "inputs": [
        {
          "name": "_index",
          "type": "uint256"
        },
        {
          "name": "_priceIndex",
          "type": "uint256"
        }
      ],
      "name": "getPriceByIndex",
      "outputs": [
        {
          "name": "price",
          "type": "uint256"
        }
      ],
      "payable": false,
      "stateMutability": "view",
      "type": "function"
    },
    {
      "constant": true,
      "inputs": [
        {
          "name": "_sellerAddress",
          "type": "address"
        },
        {
          "name": "_index",
          "type": "uint256"
        },
        {
          "name": "_priceIndex",
          "type": "uint256"
        }
      ],
      "name": "getPriceBySellerToSkuIndex",
      "outputs": [
        {
          "name": "price",
          "type": "uint256"
        }
      ],
      "payable": false,
      "stateMutability": "view",
      "type": "function"
    },
    {
      "constant": true,
      "inputs": [
        {
          "name": "_sku",
          "type": "bytes32"
        }
      ],
      "name": "getIndexBySku",
      "outputs": [
        {
          "name": "index",
          "type": "uint256"
        }
      ],
      "payable": false,
      "stateMutability": "view",
      "type": "function"
    },
    {
      "constant": true,
      "inputs": [
        {
          "name": "_sellerAddress",
          "type": "address"
        },
        {
          "name": "_sku",
          "type": "bytes32"
        }
      ],
      "name": "getSellerIndexByAddress",
      "outputs": [
        {
          "name": "index",
          "type": "uint256"
        }
      ],
      "payable": false,
      "stateMutability": "view",
      "type": "function"
    }
  ],
  "bytecode": "0x6060604052341561000f57600080fd5b33600260006101000a81548173ffffffffffffffffffffffffffffffffffffffff021916908373ffffffffffffffffffffffffffffffffffffffff1602179055506133ad8061005f6000396000f3006060604052600436106101d8576000357c0100000000000000000000000000000000000000000000000000000000900463ffffffff16806304585cc2146101dd578063059061d7146102485780630db9be4d1461028757806318235a36146103235780631c417da41461035e57806320d47805146103ff57806337b07c0a14610478578063407e51a6146104c55780634c21fa451461051b578063542ad3261461055257806359c293f11461060d578063638a8a841461064c57806363f8c98b146106875780636cbd1e91146106e55780636e6748bf146107485780637205bab3146107b357806376ca6fe9146108095780637cac07af1461086857806387a1a0ae146108915780638abb39cd146108f85780638b271928146109215780639fbe695614610958578063a94ece76146109da578063afb8f2ac14610a1a578063b18434bb14610a78578063b8e6018614610adf578063c1dc2ed814610b39578063c6c1c4ea14610b98578063cc85127014610bf6578063d091315514610cba578063da3d2fd714610d18578063eb13467714610d58578063ee95feaf14610dbb578063ef21d9c214610e0c578063f121818f14610e4b578063f288d19f14610e8a578063f29ebbed14610ef1578063f3277b5314610f31575b600080fd5b34156101e857600080fd5b61022e600480803573ffffffffffffffffffffffffffffffffffffffff169060200190919080356000191690602001909190803560001916906020019091905050610f90565b604051808215151515815260200191505060405180910390f35b341561025357600080fd5b61026d6004808035600019169060200190919050506111ab565b604051808215151515815260200191505060405180910390f35b341561029257600080fd5b6102a8600480803590602001909190505061120e565b6040518080602001828103825283818151815260200191508051906020019080838360005b838110156102e85780820151818401526020810190506102cd565b50505050905090810190601f1680156103155780820380516001836020036101000a031916815260200191505b509250505060405180910390f35b341561032e57600080fd5b6103486004808035600019169060200190919050506112ed565b6040518082815260200191505060405180910390f35b341561036957600080fd5b6103e5600480803573ffffffffffffffffffffffffffffffffffffffff169060200190919080356000191690602001909190803590602001908201803590602001908080601f01602080910402602001604051908101604052809392919081815260200183838082843782019150505050505091905050611315565b604051808215151515815260200191505060405180910390f35b341561040a57600080fd5b61045e600480803573ffffffffffffffffffffffffffffffffffffffff1690602001909190803560001916906020019091908035906020019091908035906020019091908035906020019091905050611520565b604051808215151515815260200191505060405180910390f35b341561048357600080fd5b6104af600480803573ffffffffffffffffffffffffffffffffffffffff16906020019091905050611679565b6040518082815260200191505060405180910390f35b34156104d057600080fd5b610505600480803573ffffffffffffffffffffffffffffffffffffffff169060200190919080359060200190919050506116c5565b6040518082815260200191505060405180910390f35b341561052657600080fd5b61053c6004808035906020019091905050611745565b6040518082815260200191505060405180910390f35b341561055d57600080fd5b610592600480803573ffffffffffffffffffffffffffffffffffffffff16906020019091908035906020019091905050611786565b6040518080602001828103825283818151815260200191508051906020019080838360005b838110156105d25780820151818401526020810190506105b7565b50505050905090810190601f1680156105ff5780820380516001836020036101000a031916815260200191505b509250505060405180910390f35b341561061857600080fd5b61062e60048080359060200190919050506118a4565b60405180826000191660001916815260200191505060405180910390f35b341561065757600080fd5b6106716004808035600019169060200190919050506118e5565b6040518082815260200191505060405180910390f35b341561069257600080fd5b6106c7600480803573ffffffffffffffffffffffffffffffffffffffff1690602001909190803590602001909190505061190d565b60405180826000191660001916815260200191505060405180910390f35b34156106f057600080fd5b610706600480803590602001909190505061196f565b604051808273ffffffffffffffffffffffffffffffffffffffff1673ffffffffffffffffffffffffffffffffffffffff16815260200191505060405180910390f35b341561075357600080fd5b610799600480803573ffffffffffffffffffffffffffffffffffffffff1690602001909190803560001916906020019091908035600019169060200190919050506119b3565b604051808215151515815260200191505060405180910390f35b34156107be57600080fd5b6107f3600480803573ffffffffffffffffffffffffffffffffffffffff16906020019091908035906020019091905050611bce565b6040518082815260200191505060405180910390f35b341561081457600080fd5b610852600480803573ffffffffffffffffffffffffffffffffffffffff16906020019091908035906020019091908035906020019091905050611c4e565b6040518082815260200191505060405180910390f35b341561087357600080fd5b61087b611c9c565b6040518082815260200191505060405180910390f35b341561089c57600080fd5b6108de600480803573ffffffffffffffffffffffffffffffffffffffff1690602001909190803560001916906020019091908035906020019091905050611ca9565b604051808215151515815260200191505060405180910390f35b341561090357600080fd5b61090b611e77565b6040518082815260200191505060405180910390f35b341561092c57600080fd5b6109426004808035906020019091905050611e83565b6040518082815260200191505060405180910390f35b341561096357600080fd5b6109c0600480803573ffffffffffffffffffffffffffffffffffffffff1690602001909190803560001916906020019091908035906020019091908035906020019091908035906020019091908035906020019091905050611ec4565b604051808215151515815260200191505060405180910390f35b34156109e557600080fd5b610a04600480803590602001909190803590602001909190505061200a565b6040518082815260200191505060405180910390f35b3415610a2557600080fd5b610a5a600480803573ffffffffffffffffffffffffffffffffffffffff16906020019091908035906020019091905050612056565b60405180826000191660001916815260200191505060405180910390f35b3415610a8357600080fd5b610ac5600480803573ffffffffffffffffffffffffffffffffffffffff16906020019091908035600019169060200190919080359060200190919050506120d6565b604051808215151515815260200191505060405180910390f35b3415610aea57600080fd5b610b23600480803573ffffffffffffffffffffffffffffffffffffffff1690602001909190803560001916906020019091905050612314565b6040518082815260200191505060405180910390f35b3415610b4457600080fd5b610b82600480803573ffffffffffffffffffffffffffffffffffffffff169060200190919080359060200190919080359060200190919050506123b2565b6040518082815260200191505060405180910390f35b3415610ba357600080fd5b610bd8600480803573ffffffffffffffffffffffffffffffffffffffff16906020019091908035906020019091905050612400565b60405180826000191660001916815260200191505060405180910390f35b3415610c0157600080fd5b610ca0600480803573ffffffffffffffffffffffffffffffffffffffff1690602001909190803560001916906020019091908035600019169060200190919080356000191690602001909190803590602001908201803590602001908080601f01602080910402602001604051908101604052809392919081815260200183838082843782019150505050505091908035906020019091905050612480565b604051808215151515815260200191505060405180910390f35b3415610cc557600080fd5b610cfe600480803573ffffffffffffffffffffffffffffffffffffffff16906020019091908035600019169060200190919050506128b0565b604051808215151515815260200191505060405180910390f35b3415610d2357600080fd5b610d426004808035906020019091908035906020019091905050612d48565b6040518082815260200191505060405180910390f35b3415610d6357600080fd5b610d796004808035906020019091905050612d94565b604051808273ffffffffffffffffffffffffffffffffffffffff1673ffffffffffffffffffffffffffffffffffffffff16815260200191505060405180910390f35b3415610dc657600080fd5b610df2600480803573ffffffffffffffffffffffffffffffffffffffff16906020019091905050612e0f565b604051808215151515815260200191505060405180910390f35b3415610e1757600080fd5b610e2d6004808035906020019091905050612e75565b60405180826000191660001916815260200191505060405180910390f35b3415610e5657600080fd5b610e6c6004808035906020019091905050612e98565b60405180826000191660001916815260200191505060405180910390f35b3415610e9557600080fd5b610ed7600480803573ffffffffffffffffffffffffffffffffffffffff1690602001909190803560001916906020019091908035906020019091905050612ed9565b604051808215151515815260200191505060405180910390f35b3415610efc57600080fd5b610f1b60048080359060200190919080359060200190919050506130f0565b6040518082815260200191505060405180910390f35b3415610f3c57600080fd5b610f7a600480803573ffffffffffffffffffffffffffffffffffffffff1690602001909190803590602001909190803590602001909190505061313c565b6040518082815260200191505060405180910390f35b6000610f9b836111ab565b1515610fa657600080fd5b610faf84612e0f565b1515610fba57600080fd5b81600360008560001916600019168152602001908152602001600020600101816000191690555082600019167f69b26b944430c6607eb8c0ee5940dd43b682ee2c44b6e24246ee045ee2a5f20d600360008660001916600019168152602001908152602001600020600501546003600087600019166000191681526020019081526020016000206000015485600360008960001916600019168152602001908152602001600020600201600360008a6000191660001916815260200190815260200160002060030154600360008b60001916600019168152602001908152602001600020600401548b6040518088815260200187600019166000191681526020018660001916600019168152602001806020018581526020018481526020018373ffffffffffffffffffffffffffffffffffffffff1673ffffffffffffffffffffffffffffffffffffffff16815260200182810382528681815460018160011615610100020316600290048152602001915080546001816001161561010002031660029004801561118c5780601f106111615761010080835404028352916020019161118c565b820191906000526020600020905b81548152906001019060200180831161116f57829003601f168201915b50509850505050505050505060405180910390a2600190509392505050565b60008060008054905014156111c35760009050611209565b81600019166000600360008560001916600019168152602001908152602001600020600501548154811015156111f557fe5b906000526020600020900154600019161490505b919050565b61121661318a565b60036000808481548110151561122857fe5b906000526020600020900154600019166000191681526020019081526020016000206002018054600181600116156101000203166002900480601f0160208091040260200160405190810160405280929190818152602001828054600181600116156101000203166002900480156112e15780601f106112b6576101008083540402835291602001916112e1565b820191906000526020600020905b8154815290600101906020018083116112c457829003601f168201915b50505050509050919050565b6000600460008360001916600019168152602001908152602001600020805490509050919050565b6000611320836111ab565b151561132b57600080fd5b61133484612e0f565b151561133f57600080fd5b81600360008560001916600019168152602001908152602001600020600201908051906020019061137192919061319e565b5082600019167f69b26b944430c6607eb8c0ee5940dd43b682ee2c44b6e24246ee045ee2a5f20d60036000866000191660001916815260200190815260200160002060050154600360008760001916600019168152602001908152602001600020600001546003600088600019166000191681526020019081526020016000206001015486600360008a6000191660001916815260200190815260200160002060030154600360008b60001916600019168152602001908152602001600020600401548b6040518088815260200187600019166000191681526020018660001916600019168152602001806020018581526020018481526020018373ffffffffffffffffffffffffffffffffffffffff1673ffffffffffffffffffffffffffffffffffffffff168152602001828103825286818151815260200191508051906020019080838360005b838110156114d55780820151818401526020810190506114ba565b50505050905090810190601f1680156115025780820380516001836020036101000a031916815260200191505b509850505050505050505060405180910390a2600190509392505050565b600061152b856111ab565b151561153657600080fd5b61153f86612e0f565b151561154a57600080fd5b6004600086600019166000191681526020019081526020016000208054806001018281611577919061321e565b91600052602060002090600402016000608060405190810160405280888152602001878152602001868152602001600460008b600019166000191681526020019081526020016000208054905081525090919091506000820151816000015560208201518160010155604082015181600201556060820151816003015550505084600019167fff129bce5779c59a49fd1ef2f43aefc3cb7c658391ebb6469c82c000bb1068a1600160046000896000191660001916815260200190815260200160002080549050038686866040518085815260200184815260200183815260200182815260200194505050505060405180910390a26001905095945050505050565b6000600560008373ffffffffffffffffffffffffffffffffffffffff1673ffffffffffffffffffffffffffffffffffffffff168152602001908152602001600020805490509050919050565b600060036000600560008673ffffffffffffffffffffffffffffffffffffffff1673ffffffffffffffffffffffffffffffffffffffff1681526020019081526020016000208481548110151561171757fe5b9060005260206000209001546000191660001916815260200190815260200160002060040154905092915050565b600060036000808481548110151561175957fe5b90600052602060002090015460001916600019168152602001908152602001600020600401549050919050565b61178e61318a565b60036000600560008673ffffffffffffffffffffffffffffffffffffffff1673ffffffffffffffffffffffffffffffffffffffff168152602001908152602001600020848154811015156117de57fe5b906000526020600020900154600019166000191681526020019081526020016000206002018054600181600116156101000203166002900480601f0160208091040260200160405190810160405280929190818152602001828054600181600116156101000203166002900480156118975780601f1061186c57610100808354040283529160200191611897565b820191906000526020600020905b81548152906001019060200180831161187a57829003601f168201915b5050505050905092915050565b60006003600080848154811015156118b857fe5b90600052602060002090015460001916600019168152602001908152602001600020600001549050919050565b6000600360008360001916600019168152602001908152602001600020600501549050919050565b6000600560008473ffffffffffffffffffffffffffffffffffffffff1673ffffffffffffffffffffffffffffffffffffffff1681526020019081526020016000208281548110151561195b57fe5b906000526020600020900154905092915050565b600060018281548110151561198057fe5b906000526020600020900160009054906101000a900473ffffffffffffffffffffffffffffffffffffffff169050919050565b60006119be836111ab565b15156119c957600080fd5b6119d284612e0f565b15156119dd57600080fd5b81600360008560001916600019168152602001908152602001600020600001816000191690555082600019167f69b26b944430c6607eb8c0ee5940dd43b682ee2c44b6e24246ee045ee2a5f20d600360008660001916600019168152602001908152602001600020600501548460036000886000191660001916815260200190815260200160002060010154600360008960001916600019168152602001908152602001600020600201600360008a6000191660001916815260200190815260200160002060030154600360008b60001916600019168152602001908152602001600020600401548b6040518088815260200187600019166000191681526020018660001916600019168152602001806020018581526020018481526020018373ffffffffffffffffffffffffffffffffffffffff1673ffffffffffffffffffffffffffffffffffffffff168152602001828103825286818154600181600116156101000203166002900481526020019150805460018160011615610100020316600290048015611baf5780601f10611b8457610100808354040283529160200191611baf565b820191906000526020600020905b815481529060010190602001808311611b9257829003601f168201915b50509850505050505050505060405180910390a2600190509392505050565b600060036000600560008673ffffffffffffffffffffffffffffffffffffffff1673ffffffffffffffffffffffffffffffffffffffff16815260200190815260200160002084815481101515611c2057fe5b9060005260206000209001546000191660001916815260200190815260200160002060030154905092915050565b600060046000611c5e868661190d565b6000191660001916815260200190815260200160002082815481101515611c8157fe5b90600052602060002090600402016000015490509392505050565b6000600180549050905090565b600080611cb5846111ab565b1515611cc057600080fd5b611cc985612e0f565b1515611cd457600080fd5b82905060046000856000191660001916815260200190815260200160002081815481101515611cff57fe5b9060005260206000209060040201600080820160009055600182016000905560028201600090556003820160009055505083600019167f25f60d558b64fe5e895fb53abcfcce63e1da4969887110f86b291122d46cb394826040518082815260200191505060405180910390a283600019167fb96c095c85dc4b91ff7cc57859a21490f147ef09875ac528ab487b43b7081a958260046000886000191660001916815260200190815260200160002084815481101515611dbb57fe5b90600052602060002090600402016000015460046000896000191660001916815260200190815260200160002085815481101515611df557fe5b906000526020600020906004020160010154600460008a6000191660001916815260200190815260200160002086815481101515611e2f57fe5b9060005260206000209060040201600201546040518085815260200184815260200183815260200182815260200194505050505060405180910390a260019150509392505050565b60008080549050905090565b6000600360008084815481101515611e9757fe5b90600052602060002090015460001916600019168152602001908152602001600020600301549050919050565b6000611ecf866111ab565b1515611eda57600080fd5b611ee387612e0f565b1515611eee57600080fd5b8360046000886000191660001916815260200190815260200160002086815481101515611f1757fe5b9060005260206000209060040201600001819055508260046000886000191660001916815260200190815260200160002086815481101515611f5557fe5b9060005260206000209060040201600101819055508160046000886000191660001916815260200190815260200160002086815481101515611f9357fe5b90600052602060002090600402016002018190555085600019167fb96c095c85dc4b91ff7cc57859a21490f147ef09875ac528ab487b43b7081a95868686866040518085815260200184815260200183815260200182815260200194505050505060405180910390a2600190509695505050505050565b60006004600061201985612e75565b600019166000191681526020019081526020016000208281548110151561203c57fe5b906000526020600020906004020160020154905092915050565b600060036000600560008673ffffffffffffffffffffffffffffffffffffffff1673ffffffffffffffffffffffffffffffffffffffff168152602001908152602001600020848154811015156120a857fe5b9060005260206000209001546000191660001916815260200190815260200160002060010154905092915050565b60006120e1836111ab565b15156120ec57600080fd5b6120f584612e0f565b151561210057600080fd5b816003600085600019166000191681526020019081526020016000206003016000828254019250508190555082600019167f69b26b944430c6607eb8c0ee5940dd43b682ee2c44b6e24246ee045ee2a5f20d600360008660001916600019168152602001908152602001600020600501546003600087600019166000191681526020019081526020016000206000015460036000886000191660001916815260200190815260200160002060010154600360008960001916600019168152602001908152602001600020600201600360008a6000191660001916815260200190815260200160002060030154600360008b60001916600019168152602001908152602001600020600401548b6040518088815260200187600019166000191681526020018660001916600019168152602001806020018581526020018481526020018373ffffffffffffffffffffffffffffffffffffffff1673ffffffffffffffffffffffffffffffffffffffff1681526020018281038252868181546001816001161561010002031660029004815260200191508054600181600116156101000203166002900480156122f55780601f106122ca576101008083540402835291602001916122f5565b820191906000526020600020905b8154815290600101906020018083116122d857829003601f168201915b50509850505050505050505060405180910390a2600190509392505050565b600060036000600560008673ffffffffffffffffffffffffffffffffffffffff1673ffffffffffffffffffffffffffffffffffffffff1681526020019081526020016000206003600086600019166000191681526020019081526020016000206007015481548110151561238457fe5b9060005260206000209001546000191660001916815260200190815260200160002060060154905092915050565b6000600460006123c2868661190d565b60001916600019168152602001908152602001600020828154811015156123e557fe5b90600052602060002090600402016001015490509392505050565b600060036000600560008673ffffffffffffffffffffffffffffffffffffffff1673ffffffffffffffffffffffffffffffffffffffff1681526020019081526020016000208481548110151561245257fe5b9060005260206000209001546000191660001916815260200190815260200160002060000154905092915050565b600061248b866111ab565b15151561249757600080fd5b6124a087612e0f565b15156125315760018080548060010182816124bb9190613250565b916000526020600020900160008a909190916101000a81548173ffffffffffffffffffffffffffffffffffffffff021916908373ffffffffffffffffffffffffffffffffffffffff16021790555003600360008860001916600019168152602001908152602001600020600601819055506125cb565b60036000600560008a73ffffffffffffffffffffffffffffffffffffffff1673ffffffffffffffffffffffffffffffffffffffff168152602001908152602001600020600081548110151561258257fe5b9060005260206000209001546000191660001916815260200190815260200160002060060154600360008860001916600019168152602001908152602001600020600601819055505b84600360008860001916600019168152602001908152602001600020600001816000191690555083600360008860001916600019168152602001908152602001600020600101816000191690555082600360008860001916600019168152602001908152602001600020600201908051906020019061264b92919061319e565b5081600360008860001916600019168152602001908152602001600020600301819055506000600360008860001916600019168152602001908152602001600020600401819055506001600080548060010182816126a9919061327c565b916000526020600020900160008990919091509060001916905503600360008860001916600019168152602001908152602001600020600501819055506001600560008973ffffffffffffffffffffffffffffffffffffffff1673ffffffffffffffffffffffffffffffffffffffff1681526020019081526020016000208054806001018281612739919061327c565b9160005260206000209001600089909190915090600019169055036003600088600019166000191681526020019081526020016000206007018190555085600019167fcbc3cabb9b6b61b7e39f67c57e5ef25f6b80b6c7a5acf23ff62298962a74d6dc600360008960001916600019168152602001908152602001600020600501548787878760008e6040518088815260200187600019166000191681526020018660001916600019168152602001806020018581526020018481526020018373ffffffffffffffffffffffffffffffffffffffff1673ffffffffffffffffffffffffffffffffffffffff168152602001828103825286818151815260200191508051906020019080838360005b83811015612862578082015181840152602081019050612847565b50505050905090810190601f16801561288f5780820380516001836020036101000a031916815260200191505b509850505050505050505060405180910390a2600190509695505050505050565b60008060008060006128c1866111ab565b15156128cc57600080fd5b6128d587612e0f565b15156128e057600080fd5b600360008760001916600019168152602001908152602001600020600501549350600360008760001916600019168152602001908152602001600020600701549250600060016000805490500381548110151561293957fe5b9060005260206000209001549150600560008873ffffffffffffffffffffffffffffffffffffffff1673ffffffffffffffffffffffffffffffffffffffff1681526020019081526020016000206001600560008a73ffffffffffffffffffffffffffffffffffffffff1673ffffffffffffffffffffffffffffffffffffffff16815260200190815260200160002080549050038154811015156129d857fe5b9060005260206000209001549050816000858154811015156129f657fe5b9060005260206000209001816000191690555080600560008973ffffffffffffffffffffffffffffffffffffffff1673ffffffffffffffffffffffffffffffffffffffff16815260200190815260200160002084815481101515612a5657fe5b90600052602060002090018160001916905550836003600084600019166000191681526020019081526020016000206005018190555082600360008460001916600019168152602001908152602001600020600701819055506000805480919060019003612ac491906132a8565b50600560008873ffffffffffffffffffffffffffffffffffffffff1673ffffffffffffffffffffffffffffffffffffffff168152602001908152602001600020805480919060019003612b1791906132a8565b506004600087600019166000191681526020019081526020016000206000612b3f91906132d4565b85600019167f04c3e14d25084740f9b317bd42df4463db1535df7cca396ae0f71129a826ec00856040518082815260200191505060405180910390a281600019167f69b26b944430c6607eb8c0ee5940dd43b682ee2c44b6e24246ee045ee2a5f20d85600360008660001916600019168152602001908152602001600020600001546003600087600019166000191681526020019081526020016000206001015460036000886000191660001916815260200190815260200160002060020160036000896000191660001916815260200190815260200160002060030154600360008a60001916600019168152602001908152602001600020600401548e6040518088815260200187600019166000191681526020018660001916600019168152602001806020018581526020018481526020018373ffffffffffffffffffffffffffffffffffffffff1673ffffffffffffffffffffffffffffffffffffffff168152602001828103825286818154600181600116156101000203166002900481526020019150805460018160011615610100020316600290048015612d265780601f10612cfb57610100808354040283529160200191612d26565b820191906000526020600020905b815481529060010190602001808311612d0957829003601f168201915b50509850505050505050505060405180910390a2600194505050505092915050565b600060046000612d5785612e75565b6000191660001916815260200190815260200160002082815481101515612d7a57fe5b906000526020600020906004020160000154905092915050565b60006001600360008085815481101515612daa57fe5b9060005260206000209001546000191660001916815260200190815260200160002060060154815481101515612ddc57fe5b906000526020600020900160009054906101000a900473ffffffffffffffffffffffffffffffffffffffff169050919050565b6000806001805490501415612e275760009050612e70565b6000600560008473ffffffffffffffffffffffffffffffffffffffff1673ffffffffffffffffffffffffffffffffffffffff168152602001908152602001600020805490501190505b919050565b60008082815481101515612e8557fe5b9060005260206000209001549050919050565b6000600360008084815481101515612eac57fe5b90600052602060002090015460001916600019168152602001908152602001600020600101549050919050565b6000612ee4836111ab565b1515612eef57600080fd5b612ef884612e0f565b1515612f0357600080fd5b816003600085600019166000191681526020019081526020016000206004018190555082600019167f69b26b944430c6607eb8c0ee5940dd43b682ee2c44b6e24246ee045ee2a5f20d600360008660001916600019168152602001908152602001600020600501546003600087600019166000191681526020019081526020016000206000015460036000886000191660001916815260200190815260200160002060010154600360008960001916600019168152602001908152602001600020600201600360008a6000191660001916815260200190815260200160002060030154888b6040518088815260200187600019166000191681526020018660001916600019168152602001806020018581526020018481526020018373ffffffffffffffffffffffffffffffffffffffff1673ffffffffffffffffffffffffffffffffffffffff1681526020018281038252868181546001816001161561010002031660029004815260200191508054600181600116156101000203166002900480156130d15780601f106130a6576101008083540402835291602001916130d1565b820191906000526020600020905b8154815290600101906020018083116130b457829003601f168201915b50509850505050505050505060405180910390a2600190509392505050565b6000600460006130ff85612e75565b600019166000191681526020019081526020016000208281548110151561312257fe5b906000526020600020906004020160010154905092915050565b60006004600061314c868661190d565b600019166000191681526020019081526020016000208281548110151561316f57fe5b90600052602060002090600402016002015490509392505050565b602060405190810160405280600081525090565b828054600181600116156101000203166002900490600052602060002090601f016020900481019282601f106131df57805160ff191683800117855561320d565b8280016001018555821561320d579182015b8281111561320c5782518255916020019190600101906131f1565b5b50905061321a91906132f8565b5090565b81548183558181151161324b5760040281600402836000526020600020918201910161324a919061331d565b5b505050565b8154818355818115116132775781836000526020600020918201910161327691906132f8565b5b505050565b8154818355818115116132a3578183600052602060002091820191016132a2919061335c565b5b505050565b8154818355818115116132cf578183600052602060002091820191016132ce919061335c565b5b505050565b50805460008255600402906000526020600020908101906132f5919061331d565b50565b61331a91905b808211156133165760008160009055506001016132fe565b5090565b90565b61335991905b808211156133555760008082016000905560018201600090556002820160009055600382016000905550600401613323565b5090565b90565b61337e91905b8082111561337a576000816000905550600101613362565b5090565b905600a165627a7a723058203f6b45758d5f0f607793368670695899981ea7f685fa1ba33bba62bc1ac6209b0029",
  "source": "pragma solidity ^0.4.21;\r\n\r\ncontract Product{\r\n\tstruct Detail{\r\n\t\tbytes32 name;\r\n\t\tbytes32 desc;\r\n\t\tbytes pict;\r\n\t\tint stock;\r\n\t\tuint note;\r\n\t\tuint index;\r\n\t\tuint sellerIndex;\r\n\t\tuint sellerToSkuIndex;\r\n\t}\r\n\tstruct Range{\r\n\t\tuint min;\r\n\t\tuint max;\r\n\t\tuint price;\r\n\t\tuint priceIndex;\r\n\t}\r\n\tbytes32[] private sku;\r\n\taddress[] private seller;\r\n\taddress private owner;\r\n\r\n\tmapping(bytes32 => Detail) private skuToDetail;\r\n\tmapping(bytes32 => Range[]) private skuToPrice;\r\n\tmapping(address => bytes32[]) private sellerToSku;\r\n\r\n\tevent NewSku(bytes32 indexed sku, uint index, bytes32 name, bytes32 desc, bytes pict, int stock, uint note, address sellerAddress);\r\n\tevent NewSkuPrice(bytes32 indexed sku, uint priceIndex, uint min, uint max, uint price);\r\n\tevent UpdateSku(bytes32 indexed sku, uint index, bytes32 name, bytes32 desc, bytes pict, int stock, uint note, address sellerAddress);\r\n\tevent UpdateSkuPrice(bytes32 indexed sku, uint priceIndex, uint min, uint max, uint price);\r\n\tevent DeleteSku(bytes32 indexed sku, uint index);\r\n\tevent DeleteSkuPrice(bytes32 indexed sku, uint priceIndex);\r\n\r\n\tmodifier onlyOwner(){\r\n\t\trequire(msg.sender == owner);\r\n\t\t_;\r\n\t}\r\n\r\n\tfunction Product() public{\r\n\t\towner = msg.sender;\r\n\t}\r\n\r\n\tfunction isSeller(address _sellerAddress) public view returns(bool isIndeed){\r\n\t\tif(seller.length == 0) return false;\r\n\r\n\t\t// return (seller[skuToDetail[sellerToSku[_sellerAddress][0]].sellerIndex] == _sellerAddress);\r\n\t\treturn (sellerToSku[_sellerAddress].length > 0);\r\n\t}\r\n\r\n\tfunction isSku(bytes32 _sku) public view returns(bool isIndeed){\r\n\t\tif(sku.length == 0) return false;\r\n\r\n\t\treturn (sku[skuToDetail[_sku].index] == _sku);\r\n\t}\r\n\r\n\tfunction insertProduct(address _sellerAddress, bytes32 _sku, bytes32 _name, bytes32 _desc, bytes _pict, int _stock) public returns(bool success){\r\n\t\trequire(!isSku(_sku));\r\n\r\n\t\tif(!isSeller(_sellerAddress)){\r\n\t\t\tskuToDetail[_sku].sellerIndex = seller.push(_sellerAddress)-1;\r\n\t\t} else{\r\n\t\t\tskuToDetail[_sku].sellerIndex = skuToDetail[sellerToSku[_sellerAddress][0]].sellerIndex;\r\n\t\t}\r\n\t\t\r\n\t\tskuToDetail[_sku].name = _name;\r\n\t\tskuToDetail[_sku].desc = _desc;\r\n\t\tskuToDetail[_sku].pict = _pict;\r\n\t\tskuToDetail[_sku].stock = _stock;\r\n\t\tskuToDetail[_sku].note = 0;\r\n\t\tskuToDetail[_sku].index = sku.push(_sku)-1;\r\n\t\tskuToDetail[_sku].sellerToSkuIndex = sellerToSku[_sellerAddress].push(_sku)-1;\r\n\r\n\t\temit NewSku(_sku, skuToDetail[_sku].index, _name, _desc, _pict, _stock, 0, _sellerAddress);\r\n\r\n\t\treturn true;\r\n\t}\r\n\r\n\tfunction createPrice(address _sellerAddress, bytes32 _sku, uint _min, uint _max, uint _price) public returns(bool success){\r\n\t\trequire(isSku(_sku));\r\n\t\trequire(isSeller(_sellerAddress));\r\n\t\t\r\n\t\tskuToPrice[_sku].push(Range(_min, _max, _price, skuToPrice[_sku].length));\r\n\r\n\t\temit NewSkuPrice(_sku, skuToPrice[_sku].length-1, _min, _max, _price);\r\n\r\n\t\treturn true;\r\n\t}\r\n\r\n\tfunction deleteProduct(address _sellerAddress, bytes32 _sku) public returns(bool success){\r\n\t\trequire(isSku(_sku));\r\n\t\trequire(isSeller(_sellerAddress));\r\n\r\n\t\tuint indexToDelete = skuToDetail[_sku].index;\r\n\t\tuint sellerToSkuIndexToDelete = skuToDetail[_sku].sellerToSkuIndex;\r\n\r\n\t\tbytes32 skuToMove = sku[sku.length-1];\r\n\t\tbytes32 skuSellerToMove = sellerToSku[_sellerAddress][sellerToSku[_sellerAddress].length-1];\r\n\r\n\t\tsku[indexToDelete] = skuToMove;\r\n\t\tsellerToSku[_sellerAddress][sellerToSkuIndexToDelete] = skuSellerToMove;\r\n\r\n\t\tskuToDetail[skuToMove].index = indexToDelete;\r\n\t\tskuToDetail[skuToMove].sellerToSkuIndex = sellerToSkuIndexToDelete;\r\n\r\n\t\tsku.length--;\r\n\t\tsellerToSku[_sellerAddress].length--;\r\n\t\tdelete skuToPrice[_sku];\r\n\r\n\t\temit DeleteSku(_sku, indexToDelete);\r\n\t\temit UpdateSku(skuToMove, indexToDelete, skuToDetail[skuToMove].name, skuToDetail[skuToMove].desc, skuToDetail[skuToMove].pict, skuToDetail[skuToMove].stock, skuToDetail[skuToMove].note, _sellerAddress);\r\n\r\n\t\treturn true;\r\n\t}\r\n\r\n\tfunction deletePrice(address _sellerAddress, bytes32 _sku, uint _index) public returns(bool success){\r\n\t\trequire(isSku(_sku));\r\n\t\trequire(isSeller(_sellerAddress));\r\n\r\n\t\tuint indexToDelete = _index;\r\n\r\n\t\t// skuToPrice[_sku][indexToDelete].min = skuToPrice[_sku][skuToPrice[_sku].length-1].min;\r\n\t\t// skuToPrice[_sku][indexToDelete].max = skuToPrice[_sku][skuToPrice[_sku].length-1].max;\r\n\t\t// skuToPrice[_sku][indexToDelete].price = skuToPrice[_sku][skuToPrice[_sku].length-1].price;\r\n\r\n\t\t// skuToPrice[_sku].length--;\r\n\r\n\t\tdelete skuToPrice[_sku][indexToDelete];\r\n\r\n\t\temit DeleteSkuPrice(_sku, indexToDelete);\r\n\t\temit UpdateSkuPrice(_sku, indexToDelete, skuToPrice[_sku][indexToDelete].min, skuToPrice[_sku][indexToDelete].max, skuToPrice[_sku][indexToDelete].price);\r\n\r\n\t\treturn true;\r\n\t}\r\n\r\n\tfunction updateName(address _sellerAddress, bytes32 _sku, bytes32 _name) public returns(bool success){\r\n\t\trequire(isSku(_sku));\r\n\t\trequire(isSeller(_sellerAddress));\r\n\r\n\t\tskuToDetail[_sku].name = _name;\r\n\r\n\t\temit UpdateSku(_sku, skuToDetail[_sku].index, _name, skuToDetail[_sku].desc, skuToDetail[_sku].pict, skuToDetail[_sku].stock, skuToDetail[_sku].note, _sellerAddress);\r\n\r\n\t\treturn true;\r\n\t}\r\n\r\n\tfunction updateDesc(address _sellerAddress, bytes32 _sku, bytes32 _desc) public returns(bool success){\r\n\t\trequire(isSku(_sku));\r\n\t\trequire(isSeller(_sellerAddress));\r\n\r\n\t\tskuToDetail[_sku].desc = _desc;\r\n\r\n\t\temit UpdateSku(_sku, skuToDetail[_sku].index, skuToDetail[_sku].name, _desc, skuToDetail[_sku].pict, skuToDetail[_sku].stock, skuToDetail[_sku].note, _sellerAddress);\r\n\r\n\t\treturn true;\r\n\t}\r\n\r\n\tfunction updatePict(address _sellerAddress, bytes32 _sku, bytes _pict) public returns(bool success){\r\n\t\trequire(isSku(_sku));\r\n\t\trequire(isSeller(_sellerAddress));\r\n\r\n\t\tskuToDetail[_sku].pict = _pict;\r\n\r\n\t\temit UpdateSku(_sku, skuToDetail[_sku].index, skuToDetail[_sku].name, skuToDetail[_sku].desc, _pict, skuToDetail[_sku].stock, skuToDetail[_sku].note, _sellerAddress);\r\n\r\n\t\treturn true;\r\n\t}\r\n\r\n\tfunction updateStock(address _sellerAddress, bytes32 _sku, int _stock) public returns(bool success){\r\n\t\trequire(isSku(_sku));\r\n\t\trequire(isSeller(_sellerAddress));\r\n\r\n\t\tskuToDetail[_sku].stock += _stock;\r\n\r\n\t\temit UpdateSku(_sku, skuToDetail[_sku].index, skuToDetail[_sku].name, skuToDetail[_sku].desc, skuToDetail[_sku].pict, skuToDetail[_sku].stock, skuToDetail[_sku].note, _sellerAddress);\r\n\r\n\t\treturn true;\r\n\t}\r\n\r\n\tfunction updateNote(address _sellerAddress, bytes32 _sku, uint _note) public returns(bool success){\r\n\t\trequire(isSku(_sku));\r\n\t\trequire(isSeller(_sellerAddress));\r\n\r\n\t\tskuToDetail[_sku].note = _note;\r\n\r\n\t\temit UpdateSku(_sku, skuToDetail[_sku].index, skuToDetail[_sku].name, skuToDetail[_sku].desc, skuToDetail[_sku].pict, skuToDetail[_sku].stock, _note, _sellerAddress);\r\n\r\n\t\treturn true;\r\n\t}\r\n\r\n\tfunction updatePrice(address _sellerAddress, bytes32 _sku, uint _index, uint _min, uint _max, uint _price) public returns(bool success){\r\n\t\trequire(isSku(_sku));\r\n\t\trequire(isSeller(_sellerAddress));\r\n\r\n\t\tskuToPrice[_sku][_index].min = _min;\r\n\t\tskuToPrice[_sku][_index].max = _max;\r\n\t\tskuToPrice[_sku][_index].price = _price;\r\n\r\n\t\temit UpdateSkuPrice(_sku, _index, _min, _max, _price);\r\n\r\n\t\treturn true;\r\n\t}\r\n\r\n\tfunction getSkuCount() public view returns(uint count){\r\n\t\treturn sku.length;\r\n\t}\r\n\r\n\tfunction getSkuCountByAddress(address _sellerAddress) public view returns(uint count){\r\n\t\treturn sellerToSku[_sellerAddress].length;\r\n\t}\r\n\r\n\tfunction getPriceRangeCountBySku(bytes32 _sku) public view returns(uint count){\r\n\t\treturn skuToPrice[_sku].length;\r\n\t}\r\n\r\n\tfunction getSellerCount() public view returns(uint count) {\r\n\t\treturn seller.length;\r\n\t}\r\n\r\n\tfunction getSkuByIndex(uint _index) public view returns(bytes32 skuCode){\r\n\t\treturn sku[_index];\r\n\t}\r\n\r\n\tfunction getSkuBySellerToSkuIndex(address _sellerAddress, uint _index) public view returns(bytes32 skuCode){\r\n\t\treturn sellerToSku[_sellerAddress][_index];\r\n\t}\r\n\r\n\tfunction getSellerBySellerIndex(uint _index) public view returns(address sellerAddress){\r\n\t\treturn seller[skuToDetail[sku[_index]].sellerIndex];\r\n\t}\r\n\r\n\tfunction getSellerByIndex(uint _index) public view returns(address sellerAddress){\r\n\t\treturn seller[_index];\r\n\t}\r\n\t\r\n\tfunction getNameByIndex(uint _index) public view returns(bytes32 name){\r\n\t\treturn skuToDetail[sku[_index]].name;\r\n\t}\r\n\r\n\tfunction getNameBySellerToSkuIndex(address _sellerAddress, uint _index) public view returns(bytes32 name){\r\n\t\treturn skuToDetail[sellerToSku[_sellerAddress][_index]].name;\r\n\t}\r\n\r\n\tfunction getDescByIndex(uint _index) public view returns(bytes32 desc){\r\n\t\treturn skuToDetail[sku[_index]].desc;\r\n\t}\r\n\r\n\tfunction getDescBySellerToSkuIndex(address _sellerAddress, uint _index) public view returns(bytes32 desc){\r\n\t\treturn skuToDetail[sellerToSku[_sellerAddress][_index]].desc;\r\n\t}\r\n\r\n\tfunction getPictByIndex(uint _index) public view returns(bytes pict){\r\n\t\treturn skuToDetail[sku[_index]].pict;\r\n\t}\r\n\r\n\tfunction getPictBySellerToSkuIndex(address _sellerAddress, uint _index) public view returns(bytes pict){\r\n\t\treturn skuToDetail[sellerToSku[_sellerAddress][_index]].pict;\r\n\t}\r\n\r\n\tfunction getStockByIndex(uint _index) public view returns(int stock){\r\n\t\treturn skuToDetail[sku[_index]].stock;\r\n\t}\r\n\r\n\tfunction getStockBySellerToSkuIndex(address _sellerAddress, uint _index) public view returns(int stock){\r\n\t\treturn skuToDetail[sellerToSku[_sellerAddress][_index]].stock;\r\n\t}\r\n\r\n\tfunction getNoteByIndex(uint _index) public view returns(uint note){\r\n\t\treturn skuToDetail[sku[_index]].note;\r\n\t}\r\n\r\n\tfunction getNoteBySellerToSkuIndex(address _sellerAddress, uint _index) public view returns(uint note){\r\n\t\treturn skuToDetail[sellerToSku[_sellerAddress][_index]].note;\r\n\t}\r\n\r\n\tfunction getMinByIndex(uint _index, uint _priceIndex) public view returns(uint min){\r\n\t\treturn skuToPrice[getSkuByIndex(_index)][_priceIndex].min;\r\n\t}\r\n\r\n\tfunction getMinBySellerToSkuIndex(address _sellerAddress, uint _index, uint _priceIndex) public view returns(uint min){\r\n\t\treturn skuToPrice[getSkuBySellerToSkuIndex(_sellerAddress, _index)][_priceIndex].min;\r\n\t}\r\n\r\n\tfunction getMaxByIndex(uint _index, uint _priceIndex) public view returns(uint max){\r\n\t\treturn skuToPrice[getSkuByIndex(_index)][_priceIndex].max;\r\n\t}\r\n\r\n\tfunction getMaxBySellerToSkuIndex(address _sellerAddress, uint _index, uint _priceIndex) public view returns(uint max){\r\n\t\treturn skuToPrice[getSkuBySellerToSkuIndex(_sellerAddress, _index)][_priceIndex].max;\r\n\t}\r\n\r\n\tfunction getPriceByIndex(uint _index, uint _priceIndex) public view returns(uint price){\r\n\t\treturn skuToPrice[getSkuByIndex(_index)][_priceIndex].price;\r\n\t}\r\n\r\n\tfunction getPriceBySellerToSkuIndex(address _sellerAddress, uint _index, uint _priceIndex) public view returns(uint price){\r\n\t\treturn skuToPrice[getSkuBySellerToSkuIndex(_sellerAddress, _index)][_priceIndex].price;\r\n\t}\r\n\r\n\tfunction getIndexBySku(bytes32 _sku) public view returns(uint index){\r\n\t\treturn skuToDetail[_sku].index;\r\n\t}\r\n\r\n\tfunction getSellerIndexByAddress(address _sellerAddress, bytes32 _sku) public view returns(uint index){\r\n\t\treturn skuToDetail[sellerToSku[_sellerAddress][skuToDetail[_sku].sellerToSkuIndex]].sellerIndex;\r\n\t}\r\n}",
  "sourcePath": "D:\\Project\\Web\\jengjeng\\contracts\\Product.sol",
  "compiler": {
    "name": "solc",
    "version": "0.4.21+commit.dfe3193c.Emscripten.clang"
  },
  "schemaVersion": "3.1.0",
  "updatedAt": "2020-08-07T17:20:00.197Z",
  "networkType": "ethereum",
  "devdoc": {
    "methods": {}
  },
  "userdoc": {
    "methods": {}
  }
}