{
  "contractName": "User",
  "abi": [
    {
      "inputs": [],
      "payable": false,
      "stateMutability": "nonpayable",
      "type": "constructor"
    },
    {
      "anonymous": false,
      "inputs": [
        {
          "indexed": true,
          "name": "userAddress",
          "type": "address"
        },
        {
          "indexed": false,
          "name": "index",
          "type": "uint256"
        },
        {
          "indexed": false,
          "name": "userName",
          "type": "bytes16"
        },
        {
          "indexed": false,
          "name": "userLocation",
          "type": "bytes32"
        },
        {
          "indexed": false,
          "name": "city",
          "type": "uint256"
        },
        {
          "indexed": false,
          "name": "province",
          "type": "uint256"
        },
        {
          "indexed": false,
          "name": "userWa",
          "type": "bytes32"
        }
      ],
      "name": "NewUser",
      "type": "event"
    },
    {
      "anonymous": false,
      "inputs": [
        {
          "indexed": true,
          "name": "userAddress",
          "type": "address"
        },
        {
          "indexed": false,
          "name": "index",
          "type": "uint256"
        },
        {
          "indexed": false,
          "name": "userName",
          "type": "bytes16"
        },
        {
          "indexed": false,
          "name": "userLocation",
          "type": "bytes32"
        },
        {
          "indexed": false,
          "name": "city",
          "type": "uint256"
        },
        {
          "indexed": false,
          "name": "province",
          "type": "uint256"
        },
        {
          "indexed": false,
          "name": "userWa",
          "type": "bytes32"
        }
      ],
      "name": "UpdateUser",
      "type": "event"
    },
    {
      "anonymous": false,
      "inputs": [
        {
          "indexed": true,
          "name": "userAddress",
          "type": "address"
        },
        {
          "indexed": false,
          "name": "index",
          "type": "uint256"
        }
      ],
      "name": "DeleteUser",
      "type": "event"
    },
    {
      "constant": true,
      "inputs": [
        {
          "name": "_userAddress",
          "type": "address"
        }
      ],
      "name": "isUser",
      "outputs": [
        {
          "name": "isIndeed",
          "type": "bool"
        }
      ],
      "payable": false,
      "stateMutability": "view",
      "type": "function"
    },
    {
      "constant": false,
      "inputs": [
        {
          "name": "_userAddress",
          "type": "address"
        },
        {
          "name": "_name",
          "type": "bytes16"
        },
        {
          "name": "_location",
          "type": "bytes32"
        },
        {
          "name": "_city",
          "type": "uint256"
        },
        {
          "name": "_province",
          "type": "uint256"
        },
        {
          "name": "_wa",
          "type": "bytes32"
        }
      ],
      "name": "createUser",
      "outputs": [
        {
          "name": "success",
          "type": "bool"
        }
      ],
      "payable": false,
      "stateMutability": "nonpayable",
      "type": "function"
    },
    {
      "constant": false,
      "inputs": [
        {
          "name": "_userAddress",
          "type": "address"
        }
      ],
      "name": "deleteUser",
      "outputs": [
        {
          "name": "success",
          "type": "bool"
        }
      ],
      "payable": false,
      "stateMutability": "nonpayable",
      "type": "function"
    },
    {
      "constant": false,
      "inputs": [
        {
          "name": "_userAddress",
          "type": "address"
        },
        {
          "name": "_name",
          "type": "bytes16"
        }
      ],
      "name": "updateName",
      "outputs": [
        {
          "name": "success",
          "type": "bool"
        }
      ],
      "payable": false,
      "stateMutability": "nonpayable",
      "type": "function"
    },
    {
      "constant": false,
      "inputs": [
        {
          "name": "_userAddress",
          "type": "address"
        },
        {
          "name": "_location",
          "type": "bytes32"
        }
      ],
      "name": "updateLocation",
      "outputs": [
        {
          "name": "success",
          "type": "bool"
        }
      ],
      "payable": false,
      "stateMutability": "nonpayable",
      "type": "function"
    },
    {
      "constant": false,
      "inputs": [
        {
          "name": "_userAddress",
          "type": "address"
        },
        {
          "name": "_city",
          "type": "uint256"
        }
      ],
      "name": "updateCity",
      "outputs": [
        {
          "name": "success",
          "type": "bool"
        }
      ],
      "payable": false,
      "stateMutability": "nonpayable",
      "type": "function"
    },
    {
      "constant": false,
      "inputs": [
        {
          "name": "_userAddress",
          "type": "address"
        },
        {
          "name": "_province",
          "type": "uint256"
        }
      ],
      "name": "updateProvince",
      "outputs": [
        {
          "name": "success",
          "type": "bool"
        }
      ],
      "payable": false,
      "stateMutability": "nonpayable",
      "type": "function"
    },
    {
      "constant": false,
      "inputs": [
        {
          "name": "_userAddress",
          "type": "address"
        },
        {
          "name": "_wa",
          "type": "bytes32"
        }
      ],
      "name": "updateWa",
      "outputs": [
        {
          "name": "success",
          "type": "bool"
        }
      ],
      "payable": false,
      "stateMutability": "nonpayable",
      "type": "function"
    },
    {
      "constant": false,
      "inputs": [
        {
          "name": "_userAddress",
          "type": "address"
        }
      ],
      "name": "saveBalance",
      "outputs": [
        {
          "name": "success",
          "type": "bool"
        }
      ],
      "payable": false,
      "stateMutability": "nonpayable",
      "type": "function"
    },
    {
      "constant": true,
      "inputs": [
        {
          "name": "_userAddress",
          "type": "address"
        }
      ],
      "name": "getBalance",
      "outputs": [
        {
          "name": "userBalance",
          "type": "uint256"
        }
      ],
      "payable": false,
      "stateMutability": "view",
      "type": "function"
    },
    {
      "constant": true,
      "inputs": [],
      "name": "getOwner",
      "outputs": [
        {
          "name": "author",
          "type": "address"
        }
      ],
      "payable": false,
      "stateMutability": "view",
      "type": "function"
    },
    {
      "constant": true,
      "inputs": [],
      "name": "getUserCount",
      "outputs": [
        {
          "name": "count",
          "type": "uint256"
        }
      ],
      "payable": false,
      "stateMutability": "view",
      "type": "function"
    },
    {
      "constant": true,
      "inputs": [
        {
          "name": "_index",
          "type": "uint256"
        }
      ],
      "name": "getAddressByIndex",
      "outputs": [
        {
          "name": "userAddress",
          "type": "address"
        }
      ],
      "payable": false,
      "stateMutability": "view",
      "type": "function"
    },
    {
      "constant": true,
      "inputs": [
        {
          "name": "_index",
          "type": "uint256"
        }
      ],
      "name": "getNameByIndex",
      "outputs": [
        {
          "name": "userName",
          "type": "bytes16"
        }
      ],
      "payable": false,
      "stateMutability": "view",
      "type": "function"
    },
    {
      "constant": true,
      "inputs": [
        {
          "name": "_index",
          "type": "uint256"
        }
      ],
      "name": "getLocationByIndex",
      "outputs": [
        {
          "name": "userLocation",
          "type": "bytes32"
        }
      ],
      "payable": false,
      "stateMutability": "view",
      "type": "function"
    },
    {
      "constant": true,
      "inputs": [
        {
          "name": "_index",
          "type": "uint256"
        }
      ],
      "name": "getCityByIndex",
      "outputs": [
        {
          "name": "userLocation",
          "type": "uint256"
        }
      ],
      "payable": false,
      "stateMutability": "view",
      "type": "function"
    },
    {
      "constant": true,
      "inputs": [
        {
          "name": "_index",
          "type": "uint256"
        }
      ],
      "name": "getProvinceByIndex",
      "outputs": [
        {
          "name": "userLocation",
          "type": "uint256"
        }
      ],
      "payable": false,
      "stateMutability": "view",
      "type": "function"
    },
    {
      "constant": true,
      "inputs": [
        {
          "name": "_index",
          "type": "uint256"
        }
      ],
      "name": "getWaByIndex",
      "outputs": [
        {
          "name": "userWa",
          "type": "bytes32"
        }
      ],
      "payable": false,
      "stateMutability": "view",
      "type": "function"
    },
    {
      "constant": true,
      "inputs": [
        {
          "name": "_userAddress",
          "type": "address"
        }
      ],
      "name": "getIndexByAddress",
      "outputs": [
        {
          "name": "index",
          "type": "uint256"
        }
      ],
      "payable": false,
      "stateMutability": "view",
      "type": "function"
    }
  ],
  "bytecode": "0x6060604052341561000f57600080fd5b33600160006101000a81548173ffffffffffffffffffffffffffffffffffffffff021916908373ffffffffffffffffffffffffffffffffffffffff160217905550611f858061005f6000396000f300606060405260043610610107576000357c0100000000000000000000000000000000000000000000000000000000900463ffffffff1680631973ef911461010c5780633b4cd27a146101595780634209fff1146101f25780634c8d8b541461024357806356ad8d951461028257806359c293f1146102c15780635c60f2261461031e57806361b09a2e1461036f5780636f211d9d146103cd578063712bb28c1461041e578063893d20e814610455578063902c52b9146104aa5780639a06bbb314610508578063b5cb15f714610562578063be764dd21461058b578063ce10cf88146105c2578063d81ede0414610625578063e68e8fee1461067f578063f8b2cb4f146106ec575b600080fd5b341561011757600080fd5b610143600480803573ffffffffffffffffffffffffffffffffffffffff16906020019091905050610739565b6040518082815260200191505060405180910390f35b341561016457600080fd5b6101d8600480803573ffffffffffffffffffffffffffffffffffffffff169060200190919080356fffffffffffffffffffffffffffffffff19169060200190919080356000191690602001909190803590602001909190803590602001909190803560001916906020019091905050610785565b604051808215151515815260200191505060405180910390f35b34156101fd57600080fd5b610229600480803573ffffffffffffffffffffffffffffffffffffffff16906020019091905050610ae2565b604051808215151515815260200191505060405180910390f35b341561024e57600080fd5b6102646004808035906020019091905050610bad565b60405180826000191660001916815260200191505060405180910390f35b341561028d57600080fd5b6102a36004808035906020019091905050610c01565b60405180826000191660001916815260200191505060405180910390f35b34156102cc57600080fd5b6102e26004808035906020019091905050610c55565b60405180826fffffffffffffffffffffffffffffffff19166fffffffffffffffffffffffffffffffff1916815260200191505060405180910390f35b341561032957600080fd5b610355600480803573ffffffffffffffffffffffffffffffffffffffff16906020019091905050610cc6565b604051808215151515815260200191505060405180910390f35b341561037a57600080fd5b6103b3600480803573ffffffffffffffffffffffffffffffffffffffff169060200190919080356000191690602001909190505061108b565b604051808215151515815260200191505060405180910390f35b34156103d857600080fd5b610404600480803573ffffffffffffffffffffffffffffffffffffffff16906020019091905050611309565b604051808215151515815260200191505060405180910390f35b341561042957600080fd5b61043f600480803590602001909190505061136f565b6040518082815260200191505060405180910390f35b341561046057600080fd5b6104686113c3565b604051808273ffffffffffffffffffffffffffffffffffffffff1673ffffffffffffffffffffffffffffffffffffffff16815260200191505060405180910390f35b34156104b557600080fd5b6104ee600480803573ffffffffffffffffffffffffffffffffffffffff16906020019091908035600019169060200190919050506113ed565b604051808215151515815260200191505060405180910390f35b341561051357600080fd5b610548600480803573ffffffffffffffffffffffffffffffffffffffff1690602001909190803590602001909190505061166b565b604051808215151515815260200191505060405180910390f35b341561056d57600080fd5b6105756118e5565b6040518082815260200191505060405180910390f35b341561059657600080fd5b6105ac60048080359060200190919050506118f1565b6040518082815260200191505060405180910390f35b34156105cd57600080fd5b6105e36004808035906020019091905050611945565b604051808273ffffffffffffffffffffffffffffffffffffffff1673ffffffffffffffffffffffffffffffffffffffff16815260200191505060405180910390f35b341561063057600080fd5b610665600480803573ffffffffffffffffffffffffffffffffffffffff16906020019091908035906020019091905050611988565b604051808215151515815260200191505060405180910390f35b341561068a57600080fd5b6106d2600480803573ffffffffffffffffffffffffffffffffffffffff169060200190919080356fffffffffffffffffffffffffffffffff1916906020019091905050611c02565b604051808215151515815260200191505060405180910390f35b34156106f757600080fd5b610723600480803573ffffffffffffffffffffffffffffffffffffffff16906020019091905050611e93565b6040518082815260200191505060405180910390f35b6000600260008373ffffffffffffffffffffffffffffffffffffffff1673ffffffffffffffffffffffffffffffffffffffff168152602001908152602001600020600501549050919050565b600061079087610ae2565b15151561079c57600080fd5b85600260008973ffffffffffffffffffffffffffffffffffffffff1673ffffffffffffffffffffffffffffffffffffffff16815260200190815260200160002060000160006101000a8154816fffffffffffffffffffffffffffffffff02191690837001000000000000000000000000000000009004021790555084600260008973ffffffffffffffffffffffffffffffffffffffff1673ffffffffffffffffffffffffffffffffffffffff168152602001908152602001600020600101816000191690555083600260008973ffffffffffffffffffffffffffffffffffffffff1673ffffffffffffffffffffffffffffffffffffffff1681526020019081526020016000206002018190555082600260008973ffffffffffffffffffffffffffffffffffffffff1673ffffffffffffffffffffffffffffffffffffffff1681526020019081526020016000206003018190555081600260008973ffffffffffffffffffffffffffffffffffffffff1673ffffffffffffffffffffffffffffffffffffffff16815260200190815260200160002060040181600019169055506001600080548060010182816109519190611edc565b916000526020600020900160008a909190916101000a81548173ffffffffffffffffffffffffffffffffffffffff021916908373ffffffffffffffffffffffffffffffffffffffff16021790555003600260008973ffffffffffffffffffffffffffffffffffffffff1673ffffffffffffffffffffffffffffffffffffffff168152602001908152602001600020600501819055508673ffffffffffffffffffffffffffffffffffffffff167f06a69b7af9a3933a9c3aa98bd2d7251fb5021022cb54e74bf40957d6ccd33097600260008a73ffffffffffffffffffffffffffffffffffffffff1673ffffffffffffffffffffffffffffffffffffffff16815260200190815260200160002060050154888888888860405180878152602001866fffffffffffffffffffffffffffffffff19166fffffffffffffffffffffffffffffffff1916815260200185600019166000191681526020018481526020018381526020018260001916600019168152602001965050505050505060405180910390a2600190509695505050505050565b6000806000805490501415610afa5760009050610ba8565b8173ffffffffffffffffffffffffffffffffffffffff166000600260008573ffffffffffffffffffffffffffffffffffffffff1673ffffffffffffffffffffffffffffffffffffffff16815260200190815260200160002060050154815481101515610b6257fe5b906000526020600020900160009054906101000a900473ffffffffffffffffffffffffffffffffffffffff1673ffffffffffffffffffffffffffffffffffffffff161490505b919050565b600060026000610bbc84611945565b73ffffffffffffffffffffffffffffffffffffffff1673ffffffffffffffffffffffffffffffffffffffff168152602001908152602001600020600401549050919050565b600060026000610c1084611945565b73ffffffffffffffffffffffffffffffffffffffff1673ffffffffffffffffffffffffffffffffffffffff168152602001908152602001600020600101549050919050565b600060026000610c6484611945565b73ffffffffffffffffffffffffffffffffffffffff1673ffffffffffffffffffffffffffffffffffffffff16815260200190815260200160002060000160009054906101000a9004700100000000000000000000000000000000029050919050565b6000806000610cd484610ae2565b1515610cdf57600080fd5b600260008573ffffffffffffffffffffffffffffffffffffffff1673ffffffffffffffffffffffffffffffffffffffff1681526020019081526020016000206005015491506000600160008054905003815481101515610d3b57fe5b906000526020600020900160009054906101000a900473ffffffffffffffffffffffffffffffffffffffff16905080600083815481101515610d7957fe5b906000526020600020900160006101000a81548173ffffffffffffffffffffffffffffffffffffffff021916908373ffffffffffffffffffffffffffffffffffffffff16021790555081600260008373ffffffffffffffffffffffffffffffffffffffff1673ffffffffffffffffffffffffffffffffffffffff168152602001908152602001600020600501819055506000805480919060019003610e1e9190611f08565b508373ffffffffffffffffffffffffffffffffffffffff167f117183c06981515bdfa0b70d0448d8eb6ba07648cda62ab7c2b4361eeff80a1b836040518082815260200191505060405180910390a28073ffffffffffffffffffffffffffffffffffffffff167ffb41d2035007b6a9c0ed9d3910e70197d5744d943d98a299b0ad70c247b2663f83600260008573ffffffffffffffffffffffffffffffffffffffff1673ffffffffffffffffffffffffffffffffffffffff16815260200190815260200160002060000160009054906101000a900470010000000000000000000000000000000002600260008673ffffffffffffffffffffffffffffffffffffffff1673ffffffffffffffffffffffffffffffffffffffff16815260200190815260200160002060010154600260008773ffffffffffffffffffffffffffffffffffffffff1673ffffffffffffffffffffffffffffffffffffffff16815260200190815260200160002060020154600260008873ffffffffffffffffffffffffffffffffffffffff1673ffffffffffffffffffffffffffffffffffffffff16815260200190815260200160002060030154600260008973ffffffffffffffffffffffffffffffffffffffff1673ffffffffffffffffffffffffffffffffffffffff1681526020019081526020016000206004015460405180878152602001866fffffffffffffffffffffffffffffffff19166fffffffffffffffffffffffffffffffff1916815260200185600019166000191681526020018481526020018381526020018260001916600019168152602001965050505050505060405180910390a2600192505050919050565b600061109683610ae2565b15156110a157600080fd5b81600260008573ffffffffffffffffffffffffffffffffffffffff1673ffffffffffffffffffffffffffffffffffffffff16815260200190815260200160002060040181600019169055508273ffffffffffffffffffffffffffffffffffffffff167ffb41d2035007b6a9c0ed9d3910e70197d5744d943d98a299b0ad70c247b2663f600260008673ffffffffffffffffffffffffffffffffffffffff1673ffffffffffffffffffffffffffffffffffffffff16815260200190815260200160002060050154600260008773ffffffffffffffffffffffffffffffffffffffff1673ffffffffffffffffffffffffffffffffffffffff16815260200190815260200160002060000160009054906101000a900470010000000000000000000000000000000002600260008873ffffffffffffffffffffffffffffffffffffffff1673ffffffffffffffffffffffffffffffffffffffff16815260200190815260200160002060010154600260008973ffffffffffffffffffffffffffffffffffffffff1673ffffffffffffffffffffffffffffffffffffffff16815260200190815260200160002060020154600260008a73ffffffffffffffffffffffffffffffffffffffff1673ffffffffffffffffffffffffffffffffffffffff168152602001908152602001600020600301548860405180878152602001866fffffffffffffffffffffffffffffffff19166fffffffffffffffffffffffffffffffff1916815260200185600019166000191681526020018481526020018381526020018260001916600019168152602001965050505050505060405180910390a26001905092915050565b60008173ffffffffffffffffffffffffffffffffffffffff1631600360008473ffffffffffffffffffffffffffffffffffffffff1673ffffffffffffffffffffffffffffffffffffffff1681526020019081526020016000208190555060019050919050565b60006002600061137e84611945565b73ffffffffffffffffffffffffffffffffffffffff1673ffffffffffffffffffffffffffffffffffffffff168152602001908152602001600020600201549050919050565b6000600160009054906101000a900473ffffffffffffffffffffffffffffffffffffffff16905090565b60006113f883610ae2565b151561140357600080fd5b81600260008573ffffffffffffffffffffffffffffffffffffffff1673ffffffffffffffffffffffffffffffffffffffff16815260200190815260200160002060010181600019169055508273ffffffffffffffffffffffffffffffffffffffff167ffb41d2035007b6a9c0ed9d3910e70197d5744d943d98a299b0ad70c247b2663f600260008673ffffffffffffffffffffffffffffffffffffffff1673ffffffffffffffffffffffffffffffffffffffff16815260200190815260200160002060050154600260008773ffffffffffffffffffffffffffffffffffffffff1673ffffffffffffffffffffffffffffffffffffffff16815260200190815260200160002060000160009054906101000a90047001000000000000000000000000000000000285600260008973ffffffffffffffffffffffffffffffffffffffff1673ffffffffffffffffffffffffffffffffffffffff16815260200190815260200160002060020154600260008a73ffffffffffffffffffffffffffffffffffffffff1673ffffffffffffffffffffffffffffffffffffffff16815260200190815260200160002060030154600260008b73ffffffffffffffffffffffffffffffffffffffff1673ffffffffffffffffffffffffffffffffffffffff1681526020019081526020016000206004015460405180878152602001866fffffffffffffffffffffffffffffffff19166fffffffffffffffffffffffffffffffff1916815260200185600019166000191681526020018481526020018381526020018260001916600019168152602001965050505050505060405180910390a26001905092915050565b600061167683610ae2565b151561168157600080fd5b81600260008573ffffffffffffffffffffffffffffffffffffffff1673ffffffffffffffffffffffffffffffffffffffff168152602001908152602001600020600301819055508273ffffffffffffffffffffffffffffffffffffffff167ffb41d2035007b6a9c0ed9d3910e70197d5744d943d98a299b0ad70c247b2663f600260008673ffffffffffffffffffffffffffffffffffffffff1673ffffffffffffffffffffffffffffffffffffffff16815260200190815260200160002060050154600260008773ffffffffffffffffffffffffffffffffffffffff1673ffffffffffffffffffffffffffffffffffffffff16815260200190815260200160002060000160009054906101000a900470010000000000000000000000000000000002600260008873ffffffffffffffffffffffffffffffffffffffff1673ffffffffffffffffffffffffffffffffffffffff16815260200190815260200160002060010154600260008973ffffffffffffffffffffffffffffffffffffffff1673ffffffffffffffffffffffffffffffffffffffff1681526020019081526020016000206002015487600260008b73ffffffffffffffffffffffffffffffffffffffff1673ffffffffffffffffffffffffffffffffffffffff1681526020019081526020016000206004015460405180878152602001866fffffffffffffffffffffffffffffffff19166fffffffffffffffffffffffffffffffff1916815260200185600019166000191681526020018481526020018381526020018260001916600019168152602001965050505050505060405180910390a26001905092915050565b60008080549050905090565b60006002600061190084611945565b73ffffffffffffffffffffffffffffffffffffffff1673ffffffffffffffffffffffffffffffffffffffff168152602001908152602001600020600301549050919050565b6000808281548110151561195557fe5b906000526020600020900160009054906101000a900473ffffffffffffffffffffffffffffffffffffffff169050919050565b600061199383610ae2565b151561199e57600080fd5b81600260008573ffffffffffffffffffffffffffffffffffffffff1673ffffffffffffffffffffffffffffffffffffffff168152602001908152602001600020600201819055508273ffffffffffffffffffffffffffffffffffffffff167ffb41d2035007b6a9c0ed9d3910e70197d5744d943d98a299b0ad70c247b2663f600260008673ffffffffffffffffffffffffffffffffffffffff1673ffffffffffffffffffffffffffffffffffffffff16815260200190815260200160002060050154600260008773ffffffffffffffffffffffffffffffffffffffff1673ffffffffffffffffffffffffffffffffffffffff16815260200190815260200160002060000160009054906101000a900470010000000000000000000000000000000002600260008873ffffffffffffffffffffffffffffffffffffffff1673ffffffffffffffffffffffffffffffffffffffff1681526020019081526020016000206001015486600260008a73ffffffffffffffffffffffffffffffffffffffff1673ffffffffffffffffffffffffffffffffffffffff16815260200190815260200160002060030154600260008b73ffffffffffffffffffffffffffffffffffffffff1673ffffffffffffffffffffffffffffffffffffffff1681526020019081526020016000206004015460405180878152602001866fffffffffffffffffffffffffffffffff19166fffffffffffffffffffffffffffffffff1916815260200185600019166000191681526020018481526020018381526020018260001916600019168152602001965050505050505060405180910390a26001905092915050565b6000611c0d83610ae2565b1515611c1857600080fd5b81600260008573ffffffffffffffffffffffffffffffffffffffff1673ffffffffffffffffffffffffffffffffffffffff16815260200190815260200160002060000160006101000a8154816fffffffffffffffffffffffffffffffff0219169083700100000000000000000000000000000000900402179055508273ffffffffffffffffffffffffffffffffffffffff167ffb41d2035007b6a9c0ed9d3910e70197d5744d943d98a299b0ad70c247b2663f600260008673ffffffffffffffffffffffffffffffffffffffff1673ffffffffffffffffffffffffffffffffffffffff1681526020019081526020016000206005015484600260008873ffffffffffffffffffffffffffffffffffffffff1673ffffffffffffffffffffffffffffffffffffffff16815260200190815260200160002060010154600260008973ffffffffffffffffffffffffffffffffffffffff1673ffffffffffffffffffffffffffffffffffffffff16815260200190815260200160002060020154600260008a73ffffffffffffffffffffffffffffffffffffffff1673ffffffffffffffffffffffffffffffffffffffff16815260200190815260200160002060030154600260008b73ffffffffffffffffffffffffffffffffffffffff1673ffffffffffffffffffffffffffffffffffffffff1681526020019081526020016000206004015460405180878152602001866fffffffffffffffffffffffffffffffff19166fffffffffffffffffffffffffffffffff1916815260200185600019166000191681526020018481526020018381526020018260001916600019168152602001965050505050505060405180910390a26001905092915050565b6000600360008373ffffffffffffffffffffffffffffffffffffffff1673ffffffffffffffffffffffffffffffffffffffff168152602001908152602001600020549050919050565b815481835581811511611f0357818360005260206000209182019101611f029190611f34565b5b505050565b815481835581811511611f2f57818360005260206000209182019101611f2e9190611f34565b5b505050565b611f5691905b80821115611f52576000816000905550600101611f3a565b5090565b905600a165627a7a72305820fd314fce00102c7619356d41518c9180e6e7a75da3f7b3445d7ad5f7874e9e770029",
  "source": "pragma solidity ^0.4.21;\r\n\r\ncontract User{\r\n\tstruct UserStruct{\r\n\t\tbytes16 name;\r\n\t\tbytes32 location;\r\n\t\tuint city;\r\n\t\tuint province;\r\n\t\tbytes32 wa;\r\n\t\tuint index;\r\n\t}\r\n\taddress[] private userIndex;\r\n\taddress private owner;\r\n\tmapping(address => UserStruct) private addressToUser;\r\n\tmapping(address => uint256) private lastBalance;\r\n\r\n\tevent NewUser(address indexed userAddress, uint index, bytes16 userName, bytes32 userLocation, uint city, uint province, bytes32 userWa);\r\n\tevent UpdateUser(address indexed userAddress, uint index, bytes16 userName, bytes32 userLocation, uint city, uint province, bytes32 userWa);\r\n\tevent DeleteUser(address indexed userAddress, uint index);\r\n\r\n\tmodifier onlyOwner(){\r\n\t\trequire(msg.sender == owner);\r\n\t\t_;\r\n\t} \r\n\r\n\tfunction User() public{\r\n\t\towner = msg.sender;\r\n\t}\r\n\r\n\tfunction isUser(address _userAddress) public view returns(bool isIndeed) {\r\n\t\tif(userIndex.length == 0) return false;\r\n\t\treturn (userIndex[addressToUser[_userAddress].index] == _userAddress);\r\n\t}\r\n\r\n\tfunction createUser(address _userAddress, bytes16 _name, bytes32 _location, uint _city, uint _province, bytes32 _wa) public returns(bool success){\r\n\t\trequire(!isUser(_userAddress));\r\n\r\n\t\taddressToUser[_userAddress].name = _name;\r\n\t\taddressToUser[_userAddress].location = _location;\r\n\t\taddressToUser[_userAddress].city = _city;\r\n\t\taddressToUser[_userAddress].province = _province;\r\n\t\taddressToUser[_userAddress].wa = _wa;\r\n\t\taddressToUser[_userAddress].index = userIndex.push(_userAddress)-1;\r\n\r\n    \temit NewUser(_userAddress, addressToUser[_userAddress].index, _name, _location, _city, _province, _wa);\r\n\r\n    \treturn true;\r\n\t}\r\n\r\n\tfunction deleteUser(address _userAddress) public returns(bool success){\r\n\t\trequire(isUser(_userAddress));\r\n\r\n\t\tuint indexToDelete = addressToUser[_userAddress].index;\r\n\t\taddress toMove = userIndex[userIndex.length-1];\r\n\t\tuserIndex[indexToDelete] = toMove;\r\n\t\taddressToUser[toMove].index = indexToDelete;\r\n\t\tuserIndex.length--;\r\n\r\n\t\temit DeleteUser(_userAddress, indexToDelete);\r\n    \temit UpdateUser(toMove, indexToDelete, addressToUser[toMove].name, addressToUser[toMove].location, addressToUser[toMove].city, addressToUser[toMove].province, addressToUser[toMove].wa);\r\n    \r\n    \treturn true;\r\n\t}\r\n\r\n\tfunction updateName(address _userAddress, bytes16 _name) public returns(bool success){\r\n\t\trequire(isUser(_userAddress));\r\n\r\n\t\taddressToUser[_userAddress].name = _name;\r\n\r\n\t\temit UpdateUser(_userAddress, addressToUser[_userAddress].index, _name, addressToUser[_userAddress].location, addressToUser[_userAddress].city, addressToUser[_userAddress].province, addressToUser[_userAddress].wa);\r\n\t\t\r\n\t\treturn true;\r\n\t}\r\n\r\n\tfunction updateLocation(address _userAddress, bytes32 _location) public returns(bool success){\r\n\t\trequire(isUser(_userAddress));\r\n\r\n\t\taddressToUser[_userAddress].location = _location;\r\n\r\n\t\temit UpdateUser(_userAddress, addressToUser[_userAddress].index, addressToUser[_userAddress].name, _location, addressToUser[_userAddress].city, addressToUser[_userAddress].province, addressToUser[_userAddress].wa);\r\n\t\t\r\n\t\treturn true;\r\n\t}\r\n\r\n\tfunction updateCity(address _userAddress, uint _city) public returns(bool success){\r\n\t\trequire(isUser(_userAddress));\r\n\r\n\t\taddressToUser[_userAddress].city = _city;\r\n\r\n\t\temit UpdateUser(_userAddress, addressToUser[_userAddress].index, addressToUser[_userAddress].name, addressToUser[_userAddress].location, _city,addressToUser[_userAddress].province, addressToUser[_userAddress].wa);\r\n\t\t\r\n\t\treturn true;\r\n\t}\r\n\r\n\r\n\tfunction updateProvince(address _userAddress, uint _province) public returns(bool success){\r\n\t\trequire(isUser(_userAddress));\r\n\r\n\t\taddressToUser[_userAddress].province = _province;\r\n\r\n\t\temit UpdateUser(_userAddress, addressToUser[_userAddress].index, addressToUser[_userAddress].name, addressToUser[_userAddress].location, addressToUser[_userAddress].city, _province, addressToUser[_userAddress].wa);\r\n\t\t\r\n\t\treturn true;\r\n\t}\t\r\n\r\n\tfunction updateWa(address _userAddress, bytes32 _wa) public returns(bool success){\r\n\t\trequire(isUser(_userAddress));\r\n\r\n\t\taddressToUser[_userAddress].wa = _wa;\r\n\r\n\t\temit UpdateUser(_userAddress, addressToUser[_userAddress].index, addressToUser[_userAddress].name, addressToUser[_userAddress].location, addressToUser[_userAddress].city, addressToUser[_userAddress].province, _wa);\r\n\t\t\r\n\t\treturn true;\r\n\t}\r\n\r\n\tfunction saveBalance(address _userAddress) public returns(bool success){\r\n\t\tlastBalance[_userAddress] = _userAddress.balance;\r\n\r\n\t\treturn true;\r\n\t}\r\n\r\n\tfunction getBalance(address _userAddress) public view returns(uint256 userBalance) {\r\n\t\treturn lastBalance[_userAddress];\r\n\t}\r\n\t\r\n\r\n\tfunction getOwner() public view returns(address author){\r\n\t\treturn owner;\r\n\t}\r\n\r\n\tfunction getUserCount() public view returns(uint count) {\r\n\t\treturn userIndex.length;\r\n\t}\r\n\r\n\tfunction getAddressByIndex(uint _index) public view returns(address userAddress){\r\n\t\treturn userIndex[_index];\r\n\t}\r\n\r\n\tfunction getNameByIndex(uint _index) public view returns(bytes16 userName){\r\n\t\treturn addressToUser[getAddressByIndex(_index)].name;\r\n\t}\r\n\r\n\tfunction getLocationByIndex(uint _index) public view returns(bytes32 userLocation){\r\n\t\treturn addressToUser[getAddressByIndex(_index)].location;\r\n\t}\r\n\r\n\tfunction getCityByIndex(uint _index) public view returns(uint userLocation){\r\n\t\treturn addressToUser[getAddressByIndex(_index)].city;\r\n\t}\r\n\r\n\tfunction getProvinceByIndex(uint _index) public view returns(uint userLocation){\r\n\t\treturn addressToUser[getAddressByIndex(_index)].province;\r\n\t}\t\t\r\n\r\n\tfunction getWaByIndex(uint _index) public view returns(bytes32 userWa){\r\n\t\treturn addressToUser[getAddressByIndex(_index)].wa;\r\n\t}\r\n\r\n\tfunction getIndexByAddress(address _userAddress) public view returns(uint index){\r\n\t\treturn addressToUser[_userAddress].index;\r\n\t}\r\n}",
  "sourcePath": "D:\\Project\\Web\\jengjeng\\contracts\\User.sol",
  "compiler": {
    "name": "solc",
    "version": "0.4.21+commit.dfe3193c.Emscripten.clang"
  },
  "schemaVersion": "3.1.0",
  "updatedAt": "2020-08-07T17:20:00.171Z",
  "networkType": "ethereum",
  "devdoc": {
    "methods": {}
  },
  "userdoc": {
    "methods": {}
  }
}